{
	"contracts/Helper.sol": {
		"Helper": {
			"abi": [
				{
					"inputs": [
						{
							"internalType": "address",
							"name": "owner",
							"type": "address"
						}
					],
					"name": "generateRandomNumber",
					"outputs": [
						{
							"internalType": "uint256",
							"name": "",
							"type": "uint256"
						}
					],
					"stateMutability": "view",
					"type": "function"
				}
			],
			"devdoc": {
				"kind": "dev",
				"methods": {},
				"version": 1
			},
			"evm": {
				"assembly": "    /* \"contracts/Helper.sol\":58:225  library Helper {... */\n  dataSize(sub_0)\n  dataOffset(sub_0)\n  0x0b\n  dup3\n  dup3\n  dup3\n  codecopy\n  dup1\n  mload\n  0x00\n  byte\n  0x73\n  eq\n  tag_1\n  jumpi\n  mstore(0x00, 0x4e487b7100000000000000000000000000000000000000000000000000000000)\n  mstore(0x04, 0x00)\n  revert(0x00, 0x24)\ntag_1:\n  mstore(0x00, address)\n  0x73\n  dup2\n  mstore8\n  dup3\n  dup2\n  return\nstop\n\nsub_0: assembly {\n        /* \"contracts/Helper.sol\":58:225  library Helper {... */\n      eq(address, deployTimeAddress())\n      mstore(0x40, 0x80)\n      jumpi(tag_1, lt(calldatasize, 0x04))\n      shr(0xe0, calldataload(0x00))\n      dup1\n      0xe8737436\n      eq\n      tag_2\n      jumpi\n    tag_1:\n      0x00\n      dup1\n      revert\n        /* \"contracts/Helper.sol\":77:223  function generateRandomNumber(address owner) public view returns (uint){... */\n    tag_2:\n      tag_3\n      0x04\n      dup1\n      calldatasize\n      sub\n      dup2\n      add\n      swap1\n      tag_4\n      swap2\n      swap1\n      tag_5\n      jump\t// in\n    tag_4:\n      tag_6\n      jump\t// in\n    tag_3:\n      mload(0x40)\n      tag_7\n      swap2\n      swap1\n      tag_8\n      jump\t// in\n    tag_7:\n      mload(0x40)\n      dup1\n      swap2\n      sub\n      swap1\n      return\n    tag_6:\n        /* \"contracts/Helper.sol\":143:147  uint */\n      0x00\n        /* \"contracts/Helper.sol\":193:198  owner */\n      dup2\n        /* \"contracts/Helper.sol\":200:215  block.timestamp */\n      timestamp\n        /* \"contracts/Helper.sol\":176:216  abi.encodePacked(owner, block.timestamp) */\n      add(0x20, mload(0x40))\n      tag_10\n      swap3\n      swap2\n      swap1\n      tag_11\n      jump\t// in\n    tag_10:\n      mload(0x40)\n      0x20\n      dup2\n      dup4\n      sub\n      sub\n      dup2\n      mstore\n      swap1\n      0x40\n      mstore\n        /* \"contracts/Helper.sol\":166:217  keccak256(abi.encodePacked(owner, block.timestamp)) */\n      dup1\n      mload\n      swap1\n      0x20\n      add\n      keccak256\n        /* \"contracts/Helper.sol\":161:218  uint(keccak256(abi.encodePacked(owner, block.timestamp))) */\n      0x00\n      shr\n        /* \"contracts/Helper.sol\":154:218  return uint(keccak256(abi.encodePacked(owner, block.timestamp))) */\n      swap1\n      pop\n        /* \"contracts/Helper.sol\":77:223  function generateRandomNumber(address owner) public view returns (uint){... */\n      swap2\n      swap1\n      pop\n      jump\t// out\n        /* \"#utility.yul\":88:205   */\n    tag_13:\n        /* \"#utility.yul\":197:198   */\n      0x00\n        /* \"#utility.yul\":194:195   */\n      dup1\n        /* \"#utility.yul\":187:199   */\n      revert\n        /* \"#utility.yul\":334:460   */\n    tag_15:\n        /* \"#utility.yul\":371:378   */\n      0x00\n        /* \"#utility.yul\":411:453   */\n      0xffffffffffffffffffffffffffffffffffffffff\n        /* \"#utility.yul\":404:409   */\n      dup3\n        /* \"#utility.yul\":400:454   */\n      and\n        /* \"#utility.yul\":389:454   */\n      swap1\n      pop\n        /* \"#utility.yul\":334:460   */\n      swap2\n      swap1\n      pop\n      jump\t// out\n        /* \"#utility.yul\":466:562   */\n    tag_16:\n        /* \"#utility.yul\":503:510   */\n      0x00\n        /* \"#utility.yul\":532:556   */\n      tag_33\n        /* \"#utility.yul\":550:555   */\n      dup3\n        /* \"#utility.yul\":532:556   */\n      tag_15\n      jump\t// in\n    tag_33:\n        /* \"#utility.yul\":521:556   */\n      swap1\n      pop\n        /* \"#utility.yul\":466:562   */\n      swap2\n      swap1\n      pop\n      jump\t// out\n        /* \"#utility.yul\":568:690   */\n    tag_17:\n        /* \"#utility.yul\":641:665   */\n      tag_35\n        /* \"#utility.yul\":659:664   */\n      dup2\n        /* \"#utility.yul\":641:665   */\n      tag_16\n      jump\t// in\n    tag_35:\n        /* \"#utility.yul\":634:639   */\n      dup2\n        /* \"#utility.yul\":631:666   */\n      eq\n        /* \"#utility.yul\":621:684   */\n      tag_36\n      jumpi\n        /* \"#utility.yul\":680:681   */\n      0x00\n        /* \"#utility.yul\":677:678   */\n      dup1\n        /* \"#utility.yul\":670:682   */\n      revert\n        /* \"#utility.yul\":621:684   */\n    tag_36:\n        /* \"#utility.yul\":568:690   */\n      pop\n      jump\t// out\n        /* \"#utility.yul\":696:835   */\n    tag_18:\n        /* \"#utility.yul\":742:747   */\n      0x00\n        /* \"#utility.yul\":780:786   */\n      dup2\n        /* \"#utility.yul\":767:787   */\n      calldataload\n        /* \"#utility.yul\":758:787   */\n      swap1\n      pop\n        /* \"#utility.yul\":796:829   */\n      tag_38\n        /* \"#utility.yul\":823:828   */\n      dup2\n        /* \"#utility.yul\":796:829   */\n      tag_17\n      jump\t// in\n    tag_38:\n        /* \"#utility.yul\":696:835   */\n      swap3\n      swap2\n      pop\n      pop\n      jump\t// out\n        /* \"#utility.yul\":841:1170   */\n    tag_5:\n        /* \"#utility.yul\":900:906   */\n      0x00\n        /* \"#utility.yul\":949:951   */\n      0x20\n        /* \"#utility.yul\":937:946   */\n      dup3\n        /* \"#utility.yul\":928:935   */\n      dup5\n        /* \"#utility.yul\":924:947   */\n      sub\n        /* \"#utility.yul\":920:952   */\n      slt\n        /* \"#utility.yul\":917:1036   */\n      iszero\n      tag_40\n      jumpi\n        /* \"#utility.yul\":955:1034   */\n      tag_41\n      tag_13\n      jump\t// in\n    tag_41:\n        /* \"#utility.yul\":917:1036   */\n    tag_40:\n        /* \"#utility.yul\":1075:1076   */\n      0x00\n        /* \"#utility.yul\":1100:1153   */\n      tag_42\n        /* \"#utility.yul\":1145:1152   */\n      dup5\n        /* \"#utility.yul\":1136:1142   */\n      dup3\n        /* \"#utility.yul\":1125:1134   */\n      dup6\n        /* \"#utility.yul\":1121:1143   */\n      add\n        /* \"#utility.yul\":1100:1153   */\n      tag_18\n      jump\t// in\n    tag_42:\n        /* \"#utility.yul\":1090:1153   */\n      swap2\n      pop\n        /* \"#utility.yul\":1046:1163   */\n      pop\n        /* \"#utility.yul\":841:1170   */\n      swap3\n      swap2\n      pop\n      pop\n      jump\t// out\n        /* \"#utility.yul\":1176:1253   */\n    tag_19:\n        /* \"#utility.yul\":1213:1220   */\n      0x00\n        /* \"#utility.yul\":1242:1247   */\n      dup2\n        /* \"#utility.yul\":1231:1247   */\n      swap1\n      pop\n        /* \"#utility.yul\":1176:1253   */\n      swap2\n      swap1\n      pop\n      jump\t// out\n        /* \"#utility.yul\":1259:1385   */\n    tag_20:\n        /* \"#utility.yul\":1354:1378   */\n      tag_45\n        /* \"#utility.yul\":1372:1377   */\n      dup2\n        /* \"#utility.yul\":1354:1378   */\n      tag_19\n      jump\t// in\n    tag_45:\n        /* \"#utility.yul\":1349:1352   */\n      dup3\n        /* \"#utility.yul\":1342:1379   */\n      mstore\n        /* \"#utility.yul\":1259:1385   */\n      pop\n      pop\n      jump\t// out\n        /* \"#utility.yul\":1391:1629   */\n    tag_8:\n        /* \"#utility.yul\":1492:1496   */\n      0x00\n        /* \"#utility.yul\":1530:1532   */\n      0x20\n        /* \"#utility.yul\":1519:1528   */\n      dup3\n        /* \"#utility.yul\":1515:1533   */\n      add\n        /* \"#utility.yul\":1507:1533   */\n      swap1\n      pop\n        /* \"#utility.yul\":1543:1622   */\n      tag_47\n        /* \"#utility.yul\":1619:1620   */\n      0x00\n        /* \"#utility.yul\":1608:1617   */\n      dup4\n        /* \"#utility.yul\":1604:1621   */\n      add\n        /* \"#utility.yul\":1595:1601   */\n      dup5\n        /* \"#utility.yul\":1543:1622   */\n      tag_20\n      jump\t// in\n    tag_47:\n        /* \"#utility.yul\":1391:1629   */\n      swap3\n      swap2\n      pop\n      pop\n      jump\t// out\n        /* \"#utility.yul\":1635:1729   */\n    tag_21:\n        /* \"#utility.yul\":1668:1676   */\n      0x00\n        /* \"#utility.yul\":1716:1721   */\n      dup2\n        /* \"#utility.yul\":1712:1714   */\n      0x60\n        /* \"#utility.yul\":1708:1722   */\n      shl\n        /* \"#utility.yul\":1687:1722   */\n      swap1\n      pop\n        /* \"#utility.yul\":1635:1729   */\n      swap2\n      swap1\n      pop\n      jump\t// out\n        /* \"#utility.yul\":1735:1829   */\n    tag_22:\n        /* \"#utility.yul\":1774:1781   */\n      0x00\n        /* \"#utility.yul\":1803:1823   */\n      tag_50\n        /* \"#utility.yul\":1817:1822   */\n      dup3\n        /* \"#utility.yul\":1803:1823   */\n      tag_21\n      jump\t// in\n    tag_50:\n        /* \"#utility.yul\":1792:1823   */\n      swap1\n      pop\n        /* \"#utility.yul\":1735:1829   */\n      swap2\n      swap1\n      pop\n      jump\t// out\n        /* \"#utility.yul\":1835:1935   */\n    tag_23:\n        /* \"#utility.yul\":1874:1881   */\n      0x00\n        /* \"#utility.yul\":1903:1929   */\n      tag_52\n        /* \"#utility.yul\":1923:1928   */\n      dup3\n        /* \"#utility.yul\":1903:1929   */\n      tag_22\n      jump\t// in\n    tag_52:\n        /* \"#utility.yul\":1892:1929   */\n      swap1\n      pop\n        /* \"#utility.yul\":1835:1935   */\n      swap2\n      swap1\n      pop\n      jump\t// out\n        /* \"#utility.yul\":1941:2098   */\n    tag_24:\n        /* \"#utility.yul\":2046:2091   */\n      tag_54\n        /* \"#utility.yul\":2066:2090   */\n      tag_55\n        /* \"#utility.yul\":2084:2089   */\n      dup3\n        /* \"#utility.yul\":2066:2090   */\n      tag_16\n      jump\t// in\n    tag_55:\n        /* \"#utility.yul\":2046:2091   */\n      tag_23\n      jump\t// in\n    tag_54:\n        /* \"#utility.yul\":2041:2044   */\n      dup3\n        /* \"#utility.yul\":2034:2092   */\n      mstore\n        /* \"#utility.yul\":1941:2098   */\n      pop\n      pop\n      jump\t// out\n        /* \"#utility.yul\":2104:2183   */\n    tag_25:\n        /* \"#utility.yul\":2143:2150   */\n      0x00\n        /* \"#utility.yul\":2172:2177   */\n      dup2\n        /* \"#utility.yul\":2161:2177   */\n      swap1\n      pop\n        /* \"#utility.yul\":2104:2183   */\n      swap2\n      swap1\n      pop\n      jump\t// out\n        /* \"#utility.yul\":2189:2346   */\n    tag_26:\n        /* \"#utility.yul\":2294:2339   */\n      tag_58\n        /* \"#utility.yul\":2314:2338   */\n      tag_59\n        /* \"#utility.yul\":2332:2337   */\n      dup3\n        /* \"#utility.yul\":2314:2338   */\n      tag_19\n      jump\t// in\n    tag_59:\n        /* \"#utility.yul\":2294:2339   */\n      tag_25\n      jump\t// in\n    tag_58:\n        /* \"#utility.yul\":2289:2292   */\n      dup3\n        /* \"#utility.yul\":2282:2340   */\n      mstore\n        /* \"#utility.yul\":2189:2346   */\n      pop\n      pop\n      jump\t// out\n        /* \"#utility.yul\":2352:2749   */\n    tag_11:\n        /* \"#utility.yul\":2492:2495   */\n      0x00\n        /* \"#utility.yul\":2507:2582   */\n      tag_61\n        /* \"#utility.yul\":2578:2581   */\n      dup3\n        /* \"#utility.yul\":2569:2575   */\n      dup6\n        /* \"#utility.yul\":2507:2582   */\n      tag_24\n      jump\t// in\n    tag_61:\n        /* \"#utility.yul\":2607:2609   */\n      0x14\n        /* \"#utility.yul\":2602:2605   */\n      dup3\n        /* \"#utility.yul\":2598:2610   */\n      add\n        /* \"#utility.yul\":2591:2610   */\n      swap2\n      pop\n        /* \"#utility.yul\":2620:2695   */\n      tag_62\n        /* \"#utility.yul\":2691:2694   */\n      dup3\n        /* \"#utility.yul\":2682:2688   */\n      dup5\n        /* \"#utility.yul\":2620:2695   */\n      tag_26\n      jump\t// in\n    tag_62:\n        /* \"#utility.yul\":2720:2722   */\n      0x20\n        /* \"#utility.yul\":2715:2718   */\n      dup3\n        /* \"#utility.yul\":2711:2723   */\n      add\n        /* \"#utility.yul\":2704:2723   */\n      swap2\n      pop\n        /* \"#utility.yul\":2740:2743   */\n      dup2\n        /* \"#utility.yul\":2733:2743   */\n      swap1\n      pop\n        /* \"#utility.yul\":2352:2749   */\n      swap4\n      swap3\n      pop\n      pop\n      pop\n      jump\t// out\n\n    auxdata: 0xa2646970667358221220d0ede21eddf761fdbf9e40f52863e6c9bf02ae55a05280d2f0f1020493008cdd64736f6c63430008120033\n}\n",
				"bytecode": {
					"linkReferences": {},
					"object": "61022e610053600b82828239805160001a607314610046577f4e487b7100000000000000000000000000000000000000000000000000000000600052600060045260246000fd5b30600052607381538281f3fe73000000000000000000000000000000000000000030146080604052600436106100355760003560e01c8063e87374361461003a575b600080fd5b610054600480360381019061004f9190610102565b61006a565b6040516100619190610148565b60405180910390f35b6000814260405160200161007f9291906101cc565b6040516020818303038152906040528051906020012060001c9050919050565b600080fd5b600073ffffffffffffffffffffffffffffffffffffffff82169050919050565b60006100cf826100a4565b9050919050565b6100df816100c4565b81146100ea57600080fd5b50565b6000813590506100fc816100d6565b92915050565b6000602082840312156101185761011761009f565b5b6000610126848285016100ed565b91505092915050565b6000819050919050565b6101428161012f565b82525050565b600060208201905061015d6000830184610139565b92915050565b60008160601b9050919050565b600061017b82610163565b9050919050565b600061018d82610170565b9050919050565b6101a56101a0826100c4565b610182565b82525050565b6000819050919050565b6101c66101c18261012f565b6101ab565b82525050565b60006101d88285610194565b6014820191506101e882846101b5565b602082019150819050939250505056fea2646970667358221220d0ede21eddf761fdbf9e40f52863e6c9bf02ae55a05280d2f0f1020493008cdd64736f6c63430008120033",
					"opcodes": "PUSH2 0x22E PUSH2 0x53 PUSH1 0xB DUP3 DUP3 DUP3 CODECOPY DUP1 MLOAD PUSH1 0x0 BYTE PUSH1 0x73 EQ PUSH2 0x46 JUMPI PUSH32 0x4E487B7100000000000000000000000000000000000000000000000000000000 PUSH1 0x0 MSTORE PUSH1 0x0 PUSH1 0x4 MSTORE PUSH1 0x24 PUSH1 0x0 REVERT JUMPDEST ADDRESS PUSH1 0x0 MSTORE PUSH1 0x73 DUP2 MSTORE8 DUP3 DUP2 RETURN INVALID PUSH20 0x0 ADDRESS EQ PUSH1 0x80 PUSH1 0x40 MSTORE PUSH1 0x4 CALLDATASIZE LT PUSH2 0x35 JUMPI PUSH1 0x0 CALLDATALOAD PUSH1 0xE0 SHR DUP1 PUSH4 0xE8737436 EQ PUSH2 0x3A JUMPI JUMPDEST PUSH1 0x0 DUP1 REVERT JUMPDEST PUSH2 0x54 PUSH1 0x4 DUP1 CALLDATASIZE SUB DUP2 ADD SWAP1 PUSH2 0x4F SWAP2 SWAP1 PUSH2 0x102 JUMP JUMPDEST PUSH2 0x6A JUMP JUMPDEST PUSH1 0x40 MLOAD PUSH2 0x61 SWAP2 SWAP1 PUSH2 0x148 JUMP JUMPDEST PUSH1 0x40 MLOAD DUP1 SWAP2 SUB SWAP1 RETURN JUMPDEST PUSH1 0x0 DUP2 TIMESTAMP PUSH1 0x40 MLOAD PUSH1 0x20 ADD PUSH2 0x7F SWAP3 SWAP2 SWAP1 PUSH2 0x1CC JUMP JUMPDEST PUSH1 0x40 MLOAD PUSH1 0x20 DUP2 DUP4 SUB SUB DUP2 MSTORE SWAP1 PUSH1 0x40 MSTORE DUP1 MLOAD SWAP1 PUSH1 0x20 ADD KECCAK256 PUSH1 0x0 SHR SWAP1 POP SWAP2 SWAP1 POP JUMP JUMPDEST PUSH1 0x0 DUP1 REVERT JUMPDEST PUSH1 0x0 PUSH20 0xFFFFFFFFFFFFFFFFFFFFFFFFFFFFFFFFFFFFFFFF DUP3 AND SWAP1 POP SWAP2 SWAP1 POP JUMP JUMPDEST PUSH1 0x0 PUSH2 0xCF DUP3 PUSH2 0xA4 JUMP JUMPDEST SWAP1 POP SWAP2 SWAP1 POP JUMP JUMPDEST PUSH2 0xDF DUP2 PUSH2 0xC4 JUMP JUMPDEST DUP2 EQ PUSH2 0xEA JUMPI PUSH1 0x0 DUP1 REVERT JUMPDEST POP JUMP JUMPDEST PUSH1 0x0 DUP2 CALLDATALOAD SWAP1 POP PUSH2 0xFC DUP2 PUSH2 0xD6 JUMP JUMPDEST SWAP3 SWAP2 POP POP JUMP JUMPDEST PUSH1 0x0 PUSH1 0x20 DUP3 DUP5 SUB SLT ISZERO PUSH2 0x118 JUMPI PUSH2 0x117 PUSH2 0x9F JUMP JUMPDEST JUMPDEST PUSH1 0x0 PUSH2 0x126 DUP5 DUP3 DUP6 ADD PUSH2 0xED JUMP JUMPDEST SWAP2 POP POP SWAP3 SWAP2 POP POP JUMP JUMPDEST PUSH1 0x0 DUP2 SWAP1 POP SWAP2 SWAP1 POP JUMP JUMPDEST PUSH2 0x142 DUP2 PUSH2 0x12F JUMP JUMPDEST DUP3 MSTORE POP POP JUMP JUMPDEST PUSH1 0x0 PUSH1 0x20 DUP3 ADD SWAP1 POP PUSH2 0x15D PUSH1 0x0 DUP4 ADD DUP5 PUSH2 0x139 JUMP JUMPDEST SWAP3 SWAP2 POP POP JUMP JUMPDEST PUSH1 0x0 DUP2 PUSH1 0x60 SHL SWAP1 POP SWAP2 SWAP1 POP JUMP JUMPDEST PUSH1 0x0 PUSH2 0x17B DUP3 PUSH2 0x163 JUMP JUMPDEST SWAP1 POP SWAP2 SWAP1 POP JUMP JUMPDEST PUSH1 0x0 PUSH2 0x18D DUP3 PUSH2 0x170 JUMP JUMPDEST SWAP1 POP SWAP2 SWAP1 POP JUMP JUMPDEST PUSH2 0x1A5 PUSH2 0x1A0 DUP3 PUSH2 0xC4 JUMP JUMPDEST PUSH2 0x182 JUMP JUMPDEST DUP3 MSTORE POP POP JUMP JUMPDEST PUSH1 0x0 DUP2 SWAP1 POP SWAP2 SWAP1 POP JUMP JUMPDEST PUSH2 0x1C6 PUSH2 0x1C1 DUP3 PUSH2 0x12F JUMP JUMPDEST PUSH2 0x1AB JUMP JUMPDEST DUP3 MSTORE POP POP JUMP JUMPDEST PUSH1 0x0 PUSH2 0x1D8 DUP3 DUP6 PUSH2 0x194 JUMP JUMPDEST PUSH1 0x14 DUP3 ADD SWAP2 POP PUSH2 0x1E8 DUP3 DUP5 PUSH2 0x1B5 JUMP JUMPDEST PUSH1 0x20 DUP3 ADD SWAP2 POP DUP2 SWAP1 POP SWAP4 SWAP3 POP POP POP JUMP INVALID LOG2 PUSH5 0x6970667358 0x22 SLT KECCAK256 0xD0 0xED 0xE2 0x1E 0xDD 0xF7 PUSH2 0xFDBF SWAP15 BLOCKHASH CREATE2 0x28 PUSH4 0xE6C9BF02 0xAE SSTORE LOG0 MSTORE DUP1 0xD2 CREATE CALL MUL DIV SWAP4 STOP DUP13 0xDD PUSH5 0x736F6C6343 STOP ADDMOD SLT STOP CALLER "
				},
				"gasEstimates": {
					"creation": {
						"codeDepositCost": "111600",
						"executionCost": "184",
						"totalCost": "111784"
					},
					"external": {
						"generateRandomNumber(address)": "infinite"
					}
				},
				"methodIdentifiers": {
					"generateRandomNumber(address)": "e8737436"
				}
			},
			"storageLayout": {
				"storage": [],
				"types": null
			},
			"userdoc": {
				"kind": "user",
				"methods": {},
				"version": 1
			}
		}
	}
}