{
	"contracts/Lottery.sol": {
		"Lottery": {
			"abi": [
				{
					"inputs": [
						{
							"internalType": "uint256",
							"name": "_totalTickets",
							"type": "uint256"
						},
						{
							"internalType": "uint256",
							"name": "_ticketAmount",
							"type": "uint256"
						},
						{
							"internalType": "uint256",
							"name": "_endTime",
							"type": "uint256"
						}
					],
					"stateMutability": "nonpayable",
					"type": "constructor"
				},
				{
					"inputs": [
						{
							"internalType": "uint256",
							"name": "timestamp",
							"type": "uint256"
						},
						{
							"internalType": "uint256",
							"name": "endTime",
							"type": "uint256"
						}
					],
					"name": "LotteryExpiredError",
					"type": "error"
				},
				{
					"inputs": [],
					"name": "endTime",
					"outputs": [
						{
							"internalType": "uint256",
							"name": "",
							"type": "uint256"
						}
					],
					"stateMutability": "view",
					"type": "function"
				},
				{
					"inputs": [],
					"name": "getBalance",
					"outputs": [
						{
							"internalType": "uint256",
							"name": "",
							"type": "uint256"
						}
					],
					"stateMutability": "view",
					"type": "function"
				},
				{
					"inputs": [],
					"name": "getLotteryHistory",
					"outputs": [
						{
							"components": [
								{
									"internalType": "address payable",
									"name": "winner",
									"type": "address"
								},
								{
									"internalType": "uint256",
									"name": "amountWon",
									"type": "uint256"
								},
								{
									"internalType": "address payable[]",
									"name": "players",
									"type": "address[]"
								}
							],
							"internalType": "struct Lottery.LotteryRecord[]",
							"name": "",
							"type": "tuple[]"
						}
					],
					"stateMutability": "view",
					"type": "function"
				},
				{
					"inputs": [],
					"name": "getPlayers",
					"outputs": [
						{
							"internalType": "address payable[]",
							"name": "",
							"type": "address[]"
						}
					],
					"stateMutability": "view",
					"type": "function"
				},
				{
					"inputs": [
						{
							"internalType": "uint256",
							"name": "_lotteryId",
							"type": "uint256"
						}
					],
					"name": "getWinnerByLotteryId",
					"outputs": [
						{
							"components": [
								{
									"internalType": "address payable",
									"name": "winner",
									"type": "address"
								},
								{
									"internalType": "uint256",
									"name": "amountWon",
									"type": "uint256"
								},
								{
									"internalType": "address payable[]",
									"name": "players",
									"type": "address[]"
								}
							],
							"internalType": "struct Lottery.LotteryRecord",
							"name": "",
							"type": "tuple"
						}
					],
					"stateMutability": "view",
					"type": "function"
				},
				{
					"inputs": [],
					"name": "owner",
					"outputs": [
						{
							"internalType": "address",
							"name": "",
							"type": "address"
						}
					],
					"stateMutability": "view",
					"type": "function"
				},
				{
					"inputs": [],
					"name": "pickWinner",
					"outputs": [],
					"stateMutability": "nonpayable",
					"type": "function"
				},
				{
					"inputs": [],
					"name": "register",
					"outputs": [],
					"stateMutability": "payable",
					"type": "function"
				}
			],
			"devdoc": {
				"kind": "dev",
				"methods": {},
				"version": 1
			},
			"evm": {
				"assembly": "    /* \"contracts/Lottery.sol\":82:2527  contract Lottery {... */\n  mstore(0x40, 0x80)\n    /* \"contracts/Lottery.sol\":414:727  constructor(uint _totalTickets, uint _ticketAmount, uint _endTime){... */\n  callvalue\n  dup1\n  iszero\n  tag_1\n  jumpi\n  0x00\n  dup1\n  revert\ntag_1:\n  pop\n  mload(0x40)\n  sub(codesize, bytecodeSize)\n  dup1\n  bytecodeSize\n  dup4\n  codecopy\n  dup2\n  dup2\n  add\n  0x40\n  mstore\n  dup2\n  add\n  swap1\n  tag_2\n  swap2\n  swap1\n  tag_3\n  jump\t// in\ntag_2:\n    /* \"contracts/Lottery.sol\":245:251  60 * 2 */\n  0x78\n    /* \"contracts/Lottery.sol\":494:502  _endTime */\n  dup2\n    /* \"contracts/Lottery.sol\":494:518  _endTime >= MIN_END_DATE */\n  lt\n  iszero\n    /* \"contracts/Lottery.sol\":486:569  require(_endTime >= MIN_END_DATE, \"End Date should be equal to or more than 2 min\") */\n  tag_6\n  jumpi\n  mload(0x40)\n  0x08c379a000000000000000000000000000000000000000000000000000000000\n  dup2\n  mstore\n  0x04\n  add\n  tag_7\n  swap1\n  tag_8\n  jump\t// in\ntag_7:\n  mload(0x40)\n  dup1\n  swap2\n  sub\n  swap1\n  revert\ntag_6:\n    /* \"contracts/Lottery.sol\":583:593  msg.sender */\n  caller\n    /* \"contracts/Lottery.sol\":575:580  owner */\n  0x00\n  dup1\n    /* \"contracts/Lottery.sol\":575:593  owner = msg.sender */\n  0x0100\n  exp\n  dup2\n  sload\n  dup2\n  0xffffffffffffffffffffffffffffffffffffffff\n  mul\n  not\n  and\n  swap1\n  dup4\n  0xffffffffffffffffffffffffffffffffffffffff\n  and\n  mul\n  or\n  swap1\n  sstore\n  pop\n    /* \"contracts/Lottery.sol\":614:627  _totalTickets */\n  dup3\n    /* \"contracts/Lottery.sol\":599:611  totalTickets */\n  0x03\n    /* \"contracts/Lottery.sol\":599:627  totalTickets = _totalTickets */\n  dup2\n  swap1\n  sstore\n  pop\n    /* \"contracts/Lottery.sol\":648:661  _ticketAmount */\n  dup2\n    /* \"contracts/Lottery.sol\":633:645  ticketAmount */\n  0x04\n    /* \"contracts/Lottery.sol\":633:661  ticketAmount = _ticketAmount */\n  dup2\n  swap1\n  sstore\n  pop\n    /* \"contracts/Lottery.sol\":695:703  _endTime */\n  dup1\n    /* \"contracts/Lottery.sol\":677:692  block.timestamp */\n  timestamp\n    /* \"contracts/Lottery.sol\":677:703  block.timestamp + _endTime */\n  tag_9\n  swap2\n  swap1\n  tag_10\n  jump\t// in\ntag_9:\n    /* \"contracts/Lottery.sol\":667:674  endTime */\n  0x05\n    /* \"contracts/Lottery.sol\":667:703  endTime = block.timestamp + _endTime */\n  dup2\n  swap1\n  sstore\n  pop\n    /* \"contracts/Lottery.sol\":721:722  1 */\n  0x01\n    /* \"contracts/Lottery.sol\":709:718  lotteryId */\n  0x02\n    /* \"contracts/Lottery.sol\":709:722  lotteryId = 1 */\n  dup2\n  swap1\n  sstore\n  pop\n    /* \"contracts/Lottery.sol\":414:727  constructor(uint _totalTickets, uint _ticketAmount, uint _endTime){... */\n  pop\n  pop\n  pop\n    /* \"contracts/Lottery.sol\":82:2527  contract Lottery {... */\n  jump(tag_11)\n    /* \"#utility.yul\":88:205   */\ntag_13:\n    /* \"#utility.yul\":197:198   */\n  0x00\n    /* \"#utility.yul\":194:195   */\n  dup1\n    /* \"#utility.yul\":187:199   */\n  revert\n    /* \"#utility.yul\":334:411   */\ntag_15:\n    /* \"#utility.yul\":371:378   */\n  0x00\n    /* \"#utility.yul\":400:405   */\n  dup2\n    /* \"#utility.yul\":389:405   */\n  swap1\n  pop\n    /* \"#utility.yul\":334:411   */\n  swap2\n  swap1\n  pop\n  jump\t// out\n    /* \"#utility.yul\":417:539   */\ntag_16:\n    /* \"#utility.yul\":490:514   */\n  tag_28\n    /* \"#utility.yul\":508:513   */\n  dup2\n    /* \"#utility.yul\":490:514   */\n  tag_15\n  jump\t// in\ntag_28:\n    /* \"#utility.yul\":483:488   */\n  dup2\n    /* \"#utility.yul\":480:515   */\n  eq\n    /* \"#utility.yul\":470:533   */\n  tag_29\n  jumpi\n    /* \"#utility.yul\":529:530   */\n  0x00\n    /* \"#utility.yul\":526:527   */\n  dup1\n    /* \"#utility.yul\":519:531   */\n  revert\n    /* \"#utility.yul\":470:533   */\ntag_29:\n    /* \"#utility.yul\":417:539   */\n  pop\n  jump\t// out\n    /* \"#utility.yul\":545:688   */\ntag_17:\n    /* \"#utility.yul\":602:607   */\n  0x00\n    /* \"#utility.yul\":633:639   */\n  dup2\n    /* \"#utility.yul\":627:640   */\n  mload\n    /* \"#utility.yul\":618:640   */\n  swap1\n  pop\n    /* \"#utility.yul\":649:682   */\n  tag_31\n    /* \"#utility.yul\":676:681   */\n  dup2\n    /* \"#utility.yul\":649:682   */\n  tag_16\n  jump\t// in\ntag_31:\n    /* \"#utility.yul\":545:688   */\n  swap3\n  swap2\n  pop\n  pop\n  jump\t// out\n    /* \"#utility.yul\":694:1357   */\ntag_3:\n    /* \"#utility.yul\":782:788   */\n  0x00\n    /* \"#utility.yul\":790:796   */\n  dup1\n    /* \"#utility.yul\":798:804   */\n  0x00\n    /* \"#utility.yul\":847:849   */\n  0x60\n    /* \"#utility.yul\":835:844   */\n  dup5\n    /* \"#utility.yul\":826:833   */\n  dup7\n    /* \"#utility.yul\":822:845   */\n  sub\n    /* \"#utility.yul\":818:850   */\n  slt\n    /* \"#utility.yul\":815:934   */\n  iszero\n  tag_33\n  jumpi\n    /* \"#utility.yul\":853:932   */\n  tag_34\n  tag_13\n  jump\t// in\ntag_34:\n    /* \"#utility.yul\":815:934   */\ntag_33:\n    /* \"#utility.yul\":973:974   */\n  0x00\n    /* \"#utility.yul\":998:1062   */\n  tag_35\n    /* \"#utility.yul\":1054:1061   */\n  dup7\n    /* \"#utility.yul\":1045:1051   */\n  dup3\n    /* \"#utility.yul\":1034:1043   */\n  dup8\n    /* \"#utility.yul\":1030:1052   */\n  add\n    /* \"#utility.yul\":998:1062   */\n  tag_17\n  jump\t// in\ntag_35:\n    /* \"#utility.yul\":988:1062   */\n  swap4\n  pop\n    /* \"#utility.yul\":944:1072   */\n  pop\n    /* \"#utility.yul\":1111:1113   */\n  0x20\n    /* \"#utility.yul\":1137:1201   */\n  tag_36\n    /* \"#utility.yul\":1193:1200   */\n  dup7\n    /* \"#utility.yul\":1184:1190   */\n  dup3\n    /* \"#utility.yul\":1173:1182   */\n  dup8\n    /* \"#utility.yul\":1169:1191   */\n  add\n    /* \"#utility.yul\":1137:1201   */\n  tag_17\n  jump\t// in\ntag_36:\n    /* \"#utility.yul\":1127:1201   */\n  swap3\n  pop\n    /* \"#utility.yul\":1082:1211   */\n  pop\n    /* \"#utility.yul\":1250:1252   */\n  0x40\n    /* \"#utility.yul\":1276:1340   */\n  tag_37\n    /* \"#utility.yul\":1332:1339   */\n  dup7\n    /* \"#utility.yul\":1323:1329   */\n  dup3\n    /* \"#utility.yul\":1312:1321   */\n  dup8\n    /* \"#utility.yul\":1308:1330   */\n  add\n    /* \"#utility.yul\":1276:1340   */\n  tag_17\n  jump\t// in\ntag_37:\n    /* \"#utility.yul\":1266:1340   */\n  swap2\n  pop\n    /* \"#utility.yul\":1221:1350   */\n  pop\n    /* \"#utility.yul\":694:1357   */\n  swap3\n  pop\n  swap3\n  pop\n  swap3\n  jump\t// out\n    /* \"#utility.yul\":1363:1532   */\ntag_18:\n    /* \"#utility.yul\":1447:1458   */\n  0x00\n    /* \"#utility.yul\":1481:1487   */\n  dup3\n    /* \"#utility.yul\":1476:1479   */\n  dup3\n    /* \"#utility.yul\":1469:1488   */\n  mstore\n    /* \"#utility.yul\":1521:1525   */\n  0x20\n    /* \"#utility.yul\":1516:1519   */\n  dup3\n    /* \"#utility.yul\":1512:1526   */\n  add\n    /* \"#utility.yul\":1497:1526   */\n  swap1\n  pop\n    /* \"#utility.yul\":1363:1532   */\n  swap3\n  swap2\n  pop\n  pop\n  jump\t// out\n    /* \"#utility.yul\":1538:1771   */\ntag_19:\n    /* \"#utility.yul\":1678:1712   */\n  0x456e6420446174652073686f756c6420626520657175616c20746f206f72206d\n    /* \"#utility.yul\":1674:1675   */\n  0x00\n    /* \"#utility.yul\":1666:1672   */\n  dup3\n    /* \"#utility.yul\":1662:1676   */\n  add\n    /* \"#utility.yul\":1655:1713   */\n  mstore\n    /* \"#utility.yul\":1747:1763   */\n  0x6f7265207468616e2032206d696e000000000000000000000000000000000000\n    /* \"#utility.yul\":1742:1744   */\n  0x20\n    /* \"#utility.yul\":1734:1740   */\n  dup3\n    /* \"#utility.yul\":1730:1745   */\n  add\n    /* \"#utility.yul\":1723:1764   */\n  mstore\n    /* \"#utility.yul\":1538:1771   */\n  pop\n  jump\t// out\n    /* \"#utility.yul\":1777:2143   */\ntag_20:\n    /* \"#utility.yul\":1919:1922   */\n  0x00\n    /* \"#utility.yul\":1940:2007   */\n  tag_41\n    /* \"#utility.yul\":2004:2006   */\n  0x2e\n    /* \"#utility.yul\":1999:2002   */\n  dup4\n    /* \"#utility.yul\":1940:2007   */\n  tag_18\n  jump\t// in\ntag_41:\n    /* \"#utility.yul\":1933:2007   */\n  swap2\n  pop\n    /* \"#utility.yul\":2016:2109   */\n  tag_42\n    /* \"#utility.yul\":2105:2108   */\n  dup3\n    /* \"#utility.yul\":2016:2109   */\n  tag_19\n  jump\t// in\ntag_42:\n    /* \"#utility.yul\":2134:2136   */\n  0x40\n    /* \"#utility.yul\":2129:2132   */\n  dup3\n    /* \"#utility.yul\":2125:2137   */\n  add\n    /* \"#utility.yul\":2118:2137   */\n  swap1\n  pop\n    /* \"#utility.yul\":1777:2143   */\n  swap2\n  swap1\n  pop\n  jump\t// out\n    /* \"#utility.yul\":2149:2568   */\ntag_8:\n    /* \"#utility.yul\":2315:2319   */\n  0x00\n    /* \"#utility.yul\":2353:2355   */\n  0x20\n    /* \"#utility.yul\":2342:2351   */\n  dup3\n    /* \"#utility.yul\":2338:2356   */\n  add\n    /* \"#utility.yul\":2330:2356   */\n  swap1\n  pop\n    /* \"#utility.yul\":2402:2411   */\n  dup2\n    /* \"#utility.yul\":2396:2400   */\n  dup2\n    /* \"#utility.yul\":2392:2412   */\n  sub\n    /* \"#utility.yul\":2388:2389   */\n  0x00\n    /* \"#utility.yul\":2377:2386   */\n  dup4\n    /* \"#utility.yul\":2373:2390   */\n  add\n    /* \"#utility.yul\":2366:2413   */\n  mstore\n    /* \"#utility.yul\":2430:2561   */\n  tag_44\n    /* \"#utility.yul\":2556:2560   */\n  dup2\n    /* \"#utility.yul\":2430:2561   */\n  tag_20\n  jump\t// in\ntag_44:\n    /* \"#utility.yul\":2422:2561   */\n  swap1\n  pop\n    /* \"#utility.yul\":2149:2568   */\n  swap2\n  swap1\n  pop\n  jump\t// out\n    /* \"#utility.yul\":2574:2754   */\ntag_21:\n    /* \"#utility.yul\":2622:2699   */\n  0x4e487b7100000000000000000000000000000000000000000000000000000000\n    /* \"#utility.yul\":2619:2620   */\n  0x00\n    /* \"#utility.yul\":2612:2700   */\n  mstore\n    /* \"#utility.yul\":2719:2723   */\n  0x11\n    /* \"#utility.yul\":2716:2717   */\n  0x04\n    /* \"#utility.yul\":2709:2724   */\n  mstore\n    /* \"#utility.yul\":2743:2747   */\n  0x24\n    /* \"#utility.yul\":2740:2741   */\n  0x00\n    /* \"#utility.yul\":2733:2748   */\n  revert\n    /* \"#utility.yul\":2760:2951   */\ntag_10:\n    /* \"#utility.yul\":2800:2803   */\n  0x00\n    /* \"#utility.yul\":2819:2839   */\n  tag_47\n    /* \"#utility.yul\":2837:2838   */\n  dup3\n    /* \"#utility.yul\":2819:2839   */\n  tag_15\n  jump\t// in\ntag_47:\n    /* \"#utility.yul\":2814:2839   */\n  swap2\n  pop\n    /* \"#utility.yul\":2853:2873   */\n  tag_48\n    /* \"#utility.yul\":2871:2872   */\n  dup4\n    /* \"#utility.yul\":2853:2873   */\n  tag_15\n  jump\t// in\ntag_48:\n    /* \"#utility.yul\":2848:2873   */\n  swap3\n  pop\n    /* \"#utility.yul\":2896:2897   */\n  dup3\n    /* \"#utility.yul\":2893:2894   */\n  dup3\n    /* \"#utility.yul\":2889:2898   */\n  add\n    /* \"#utility.yul\":2882:2898   */\n  swap1\n  pop\n    /* \"#utility.yul\":2917:2920   */\n  dup1\n    /* \"#utility.yul\":2914:2915   */\n  dup3\n    /* \"#utility.yul\":2911:2921   */\n  gt\n    /* \"#utility.yul\":2908:2944   */\n  iszero\n  tag_49\n  jumpi\n    /* \"#utility.yul\":2924:2942   */\n  tag_50\n  tag_21\n  jump\t// in\ntag_50:\n    /* \"#utility.yul\":2908:2944   */\ntag_49:\n    /* \"#utility.yul\":2760:2951   */\n  swap3\n  swap2\n  pop\n  pop\n  jump\t// out\n    /* \"contracts/Lottery.sol\":82:2527  contract Lottery {... */\ntag_11:\n  dataSize(sub_0)\n  dup1\n  dataOffset(sub_0)\n  0x00\n  codecopy\n  0x00\n  return\nstop\n\nsub_0: assembly {\n        /* \"contracts/Lottery.sol\":82:2527  contract Lottery {... */\n      mstore(0x40, 0x80)\n      jumpi(tag_1, lt(calldatasize, 0x04))\n      shr(0xe0, calldataload(0x00))\n      dup1\n      0x5d495aea\n      gt\n      tag_10\n      jumpi\n      dup1\n      0x5d495aea\n      eq\n      tag_6\n      jumpi\n      dup1\n      0x8b5b9ccc\n      eq\n      tag_7\n      jumpi\n      dup1\n      0x8da5cb5b\n      eq\n      tag_8\n      jumpi\n      dup1\n      0x992f7db3\n      eq\n      tag_9\n      jumpi\n      jump(tag_1)\n    tag_10:\n      dup1\n      0x12065fe0\n      eq\n      tag_2\n      jumpi\n      dup1\n      0x1aa3a008\n      eq\n      tag_3\n      jumpi\n      dup1\n      0x3149c427\n      eq\n      tag_4\n      jumpi\n      dup1\n      0x3197cbb6\n      eq\n      tag_5\n      jumpi\n    tag_1:\n      0x00\n      dup1\n      revert\n        /* \"contracts/Lottery.sol\":908:994  function getBalance() view public returns(uint){... */\n    tag_2:\n      callvalue\n      dup1\n      iszero\n      tag_11\n      jumpi\n      0x00\n      dup1\n      revert\n    tag_11:\n      pop\n      tag_12\n      tag_13\n      jump\t// in\n    tag_12:\n      mload(0x40)\n      tag_14\n      swap2\n      swap1\n      tag_15\n      jump\t// in\n    tag_14:\n      mload(0x40)\n      dup1\n      swap2\n      sub\n      swap1\n      return\n        /* \"contracts/Lottery.sol\":1532:1980  function register() public payable {... */\n    tag_3:\n      tag_16\n      tag_17\n      jump\t// in\n    tag_16:\n      stop\n        /* \"contracts/Lottery.sol\":1224:1525  function getLotteryHistory() public view returns (LotteryRecord[] memory){... */\n    tag_4:\n      callvalue\n      dup1\n      iszero\n      tag_18\n      jumpi\n      0x00\n      dup1\n      revert\n    tag_18:\n      pop\n      tag_19\n      tag_20\n      jump\t// in\n    tag_19:\n      mload(0x40)\n      tag_21\n      swap2\n      swap1\n      tag_22\n      jump\t// in\n    tag_21:\n      mload(0x40)\n      dup1\n      swap2\n      sub\n      swap1\n      return\n        /* \"contracts/Lottery.sol\":348:367  uint public endTime */\n    tag_5:\n      callvalue\n      dup1\n      iszero\n      tag_23\n      jumpi\n      0x00\n      dup1\n      revert\n    tag_23:\n      pop\n      tag_24\n      tag_25\n      jump\t// in\n    tag_24:\n      mload(0x40)\n      tag_26\n      swap2\n      swap1\n      tag_15\n      jump\t// in\n    tag_26:\n      mload(0x40)\n      dup1\n      swap2\n      sub\n      swap1\n      return\n        /* \"contracts/Lottery.sol\":1984:2525  function pickWinner() public isOwner{... */\n    tag_6:\n      callvalue\n      dup1\n      iszero\n      tag_27\n      jumpi\n      0x00\n      dup1\n      revert\n    tag_27:\n      pop\n      tag_28\n      tag_29\n      jump\t// in\n    tag_28:\n      stop\n        /* \"contracts/Lottery.sol\":998:1090  function getPlayers() view public returns(address payable[] memory){... */\n    tag_7:\n      callvalue\n      dup1\n      iszero\n      tag_30\n      jumpi\n      0x00\n      dup1\n      revert\n    tag_30:\n      pop\n      tag_31\n      tag_32\n      jump\t// in\n    tag_31:\n      mload(0x40)\n      tag_33\n      swap2\n      swap1\n      tag_34\n      jump\t// in\n    tag_33:\n      mload(0x40)\n      dup1\n      swap2\n      sub\n      swap1\n      return\n        /* \"contracts/Lottery.sol\":163:183  address public owner */\n    tag_8:\n      callvalue\n      dup1\n      iszero\n      tag_35\n      jumpi\n      0x00\n      dup1\n      revert\n    tag_35:\n      pop\n      tag_36\n      tag_37\n      jump\t// in\n    tag_36:\n      mload(0x40)\n      tag_38\n      swap2\n      swap1\n      tag_39\n      jump\t// in\n    tag_38:\n      mload(0x40)\n      dup1\n      swap2\n      sub\n      swap1\n      return\n        /* \"contracts/Lottery.sol\":1094:1220  function getWinnerByLotteryId(uint _lotteryId) public view returns (LotteryRecord memory){... */\n    tag_9:\n      callvalue\n      dup1\n      iszero\n      tag_40\n      jumpi\n      0x00\n      dup1\n      revert\n    tag_40:\n      pop\n      tag_41\n      0x04\n      dup1\n      calldatasize\n      sub\n      dup2\n      add\n      swap1\n      tag_42\n      swap2\n      swap1\n      tag_43\n      jump\t// in\n    tag_42:\n      tag_44\n      jump\t// in\n    tag_41:\n      mload(0x40)\n      tag_45\n      swap2\n      swap1\n      tag_46\n      jump\t// in\n    tag_45:\n      mload(0x40)\n      dup1\n      swap2\n      sub\n      swap1\n      return\n        /* \"contracts/Lottery.sol\":908:994  function getBalance() view public returns(uint){... */\n    tag_13:\n        /* \"contracts/Lottery.sol\":950:954  uint */\n      0x00\n        /* \"contracts/Lottery.sol\":968:989  address(this).balance */\n      selfbalance\n        /* \"contracts/Lottery.sol\":961:989  return address(this).balance */\n      swap1\n      pop\n        /* \"contracts/Lottery.sol\":908:994  function getBalance() view public returns(uint){... */\n      swap1\n      jump\t// out\n        /* \"contracts/Lottery.sol\":1532:1980  function register() public payable {... */\n    tag_17:\n        /* \"contracts/Lottery.sol\":1593:1605  ticketAmount */\n      sload(0x04)\n        /* \"contracts/Lottery.sol\":1581:1590  msg.value */\n      callvalue\n        /* \"contracts/Lottery.sol\":1581:1605  msg.value > ticketAmount */\n      gt\n        /* \"contracts/Lottery.sol\":1573:1643  require(msg.value > ticketAmount, \"Amount too low to purchase ticket\") */\n      tag_49\n      jumpi\n      mload(0x40)\n      0x08c379a000000000000000000000000000000000000000000000000000000000\n      dup2\n      mstore\n      0x04\n      add\n      tag_50\n      swap1\n      tag_51\n      jump\t// in\n    tag_50:\n      mload(0x40)\n      dup1\n      swap2\n      sub\n      swap1\n      revert\n    tag_49:\n        /* \"contracts/Lottery.sol\":1672:1673  0 */\n      0x00\n        /* \"contracts/Lottery.sol\":1657:1669  totalTickets */\n      sload(0x03)\n        /* \"contracts/Lottery.sol\":1657:1673  totalTickets > 0 */\n      gt\n        /* \"contracts/Lottery.sol\":1649:1698  require(totalTickets > 0, \"Tickets are sold out\") */\n      tag_52\n      jumpi\n      mload(0x40)\n      0x08c379a000000000000000000000000000000000000000000000000000000000\n      dup2\n      mstore\n      0x04\n      add\n      tag_53\n      swap1\n      tag_54\n      jump\t// in\n    tag_53:\n      mload(0x40)\n      dup1\n      swap2\n      sub\n      swap1\n      revert\n    tag_52:\n        /* \"contracts/Lottery.sol\":1724:1725  1 */\n      0x01\n        /* \"contracts/Lottery.sol\":1707:1714  players */\n      dup1\n        /* \"contracts/Lottery.sol\":1707:1721  players.length */\n      dup1\n      sload\n      swap1\n      pop\n        /* \"contracts/Lottery.sol\":1707:1725  players.length > 1 */\n      gt\n        /* \"contracts/Lottery.sol\":1707:1754  players.length > 1 && block.timestamp > endTime */\n      dup1\n      iszero\n      tag_55\n      jumpi\n      pop\n        /* \"contracts/Lottery.sol\":1747:1754  endTime */\n      sload(0x05)\n        /* \"contracts/Lottery.sol\":1729:1744  block.timestamp */\n      timestamp\n        /* \"contracts/Lottery.sol\":1729:1754  block.timestamp > endTime */\n      gt\n        /* \"contracts/Lottery.sol\":1707:1754  players.length > 1 && block.timestamp > endTime */\n    tag_55:\n        /* \"contracts/Lottery.sol\":1704:1911  if(players.length > 1 && block.timestamp > endTime){... */\n      iszero\n      tag_56\n      jumpi\n        /* \"contracts/Lottery.sol\":1790:1805  block.timestamp */\n      timestamp\n        /* \"contracts/Lottery.sol\":1807:1814  endTime */\n      sload(0x05)\n        /* \"contracts/Lottery.sol\":1770:1815  LotteryExpiredError(block.timestamp, endTime) */\n      mload(0x40)\n      0xc7d7c4cf00000000000000000000000000000000000000000000000000000000\n      dup2\n      mstore\n      0x04\n      add\n      tag_57\n      swap3\n      swap2\n      swap1\n      tag_58\n      jump\t// in\n    tag_57:\n      mload(0x40)\n      dup1\n      swap2\n      sub\n      swap1\n      revert\n        /* \"contracts/Lottery.sol\":1704:1911  if(players.length > 1 && block.timestamp > endTime){... */\n    tag_56:\n        /* \"contracts/Lottery.sol\":1848:1855  endTime */\n      sload(0x05)\n        /* \"contracts/Lottery.sol\":1830:1845  block.timestamp */\n      timestamp\n        /* \"contracts/Lottery.sol\":1830:1855  block.timestamp > endTime */\n      gt\n        /* \"contracts/Lottery.sol\":1827:1911  if(block.timestamp > endTime){... */\n      iszero\n      tag_60\n      jumpi\n        /* \"contracts/Lottery.sol\":245:251  60 * 2 */\n      0x78\n        /* \"contracts/Lottery.sol\":1874:1889  block.timestamp */\n      timestamp\n        /* \"contracts/Lottery.sol\":1874:1904  block.timestamp + MIN_END_DATE */\n      tag_61\n      swap2\n      swap1\n      tag_62\n      jump\t// in\n    tag_61:\n        /* \"contracts/Lottery.sol\":1864:1871  endTime */\n      0x05\n        /* \"contracts/Lottery.sol\":1864:1904  endTime = block.timestamp + MIN_END_DATE */\n      dup2\n      swap1\n      sstore\n      pop\n        /* \"contracts/Lottery.sol\":1827:1911  if(block.timestamp > endTime){... */\n    tag_60:\n        /* \"contracts/Lottery.sol\":1922:1929  players */\n      0x01\n        /* \"contracts/Lottery.sol\":1943:1953  msg.sender */\n      caller\n        /* \"contracts/Lottery.sol\":1922:1955  players.push(payable(msg.sender)) */\n      swap1\n      dup1\n      0x01\n      dup2\n      sload\n      add\n      dup1\n      dup3\n      sstore\n      dup1\n      swap2\n      pop\n      pop\n      0x01\n      swap1\n      sub\n      swap1\n      0x00\n      mstore\n      keccak256(0x00, 0x20)\n      add\n      0x00\n      swap1\n      swap2\n      swap1\n      swap2\n      swap1\n      swap2\n      0x0100\n      exp\n      dup2\n      sload\n      dup2\n      0xffffffffffffffffffffffffffffffffffffffff\n      mul\n      not\n      and\n      swap1\n      dup4\n      0xffffffffffffffffffffffffffffffffffffffff\n      and\n      mul\n      or\n      swap1\n      sstore\n      pop\n        /* \"contracts/Lottery.sol\":1961:1973  totalTickets */\n      0x03\n      0x00\n        /* \"contracts/Lottery.sol\":1961:1975  totalTickets-- */\n      dup2\n      sload\n      dup1\n      swap3\n      swap2\n      swap1\n      tag_64\n      swap1\n      tag_65\n      jump\t// in\n    tag_64:\n      swap2\n      swap1\n      pop\n      sstore\n      pop\n        /* \"contracts/Lottery.sol\":1532:1980  function register() public payable {... */\n      jump\t// out\n        /* \"contracts/Lottery.sol\":1224:1525  function getLotteryHistory() public view returns (LotteryRecord[] memory){... */\n    tag_20:\n        /* \"contracts/Lottery.sol\":1274:1296  LotteryRecord[] memory */\n      0x60\n        /* \"contracts/Lottery.sol\":1303:1332  LotteryRecord[] memory result */\n      0x00\n        /* \"contracts/Lottery.sol\":1367:1368  1 */\n      0x01\n        /* \"contracts/Lottery.sol\":1355:1364  lotteryId */\n      sload(0x02)\n        /* \"contracts/Lottery.sol\":1355:1368  lotteryId - 1 */\n      tag_67\n      swap2\n      swap1\n      tag_68\n      jump\t// in\n    tag_67:\n        /* \"contracts/Lottery.sol\":1335:1369  new LotteryRecord[](lotteryId - 1) */\n      0xffffffffffffffff\n      dup2\n      gt\n      iszero\n      tag_69\n      jumpi\n      tag_70\n      tag_71\n      jump\t// in\n    tag_70:\n    tag_69:\n      mload(0x40)\n      swap1\n      dup1\n      dup3\n      mstore\n      dup1\n      0x20\n      mul\n      0x20\n      add\n      dup3\n      add\n      0x40\n      mstore\n      dup1\n      iszero\n      tag_72\n      jumpi\n      dup2\n      0x20\n      add\n    tag_73:\n      tag_74\n      tag_75\n      jump\t// in\n    tag_74:\n      dup2\n      mstore\n      0x20\n      add\n      swap1\n      0x01\n      swap1\n      sub\n      swap1\n      dup2\n      tag_73\n      jumpi\n      swap1\n      pop\n    tag_72:\n      pop\n        /* \"contracts/Lottery.sol\":1303:1369  LotteryRecord[] memory result = new LotteryRecord[](lotteryId - 1) */\n      swap1\n      pop\n        /* \"contracts/Lottery.sol\":1384:1390  uint i */\n      0x00\n        /* \"contracts/Lottery.sol\":1380:1502  for(uint i = 0; i < lotteryId - 1; i++){... */\n    tag_76:\n        /* \"contracts/Lottery.sol\":1412:1413  1 */\n      0x01\n        /* \"contracts/Lottery.sol\":1400:1409  lotteryId */\n      sload(0x02)\n        /* \"contracts/Lottery.sol\":1400:1413  lotteryId - 1 */\n      tag_79\n      swap2\n      swap1\n      tag_68\n      jump\t// in\n    tag_79:\n        /* \"contracts/Lottery.sol\":1396:1397  i */\n      dup2\n        /* \"contracts/Lottery.sol\":1396:1413  i < lotteryId - 1 */\n      lt\n        /* \"contracts/Lottery.sol\":1380:1502  for(uint i = 0; i < lotteryId - 1; i++){... */\n      iszero\n      tag_77\n      jumpi\n        /* \"contracts/Lottery.sol\":1427:1454  LotteryRecord memory record */\n      0x00\n        /* \"contracts/Lottery.sol\":1457:1464  history */\n      0x06\n        /* \"contracts/Lottery.sol\":1457:1469  history[i+1] */\n      0x00\n        /* \"contracts/Lottery.sol\":1467:1468  1 */\n      0x01\n        /* \"contracts/Lottery.sol\":1465:1466  i */\n      dup5\n        /* \"contracts/Lottery.sol\":1465:1468  i+1 */\n      tag_80\n      swap2\n      swap1\n      tag_62\n      jump\t// in\n    tag_80:\n        /* \"contracts/Lottery.sol\":1457:1469  history[i+1] */\n      dup2\n      mstore\n      0x20\n      add\n      swap1\n      dup2\n      mstore\n      0x20\n      add\n      0x00\n      keccak256\n        /* \"contracts/Lottery.sol\":1427:1469  LotteryRecord memory record = history[i+1] */\n      mload(0x40)\n      dup1\n      0x60\n      add\n      0x40\n      mstore\n      swap1\n      dup2\n      0x00\n      dup3\n      add\n      0x00\n      swap1\n      sload\n      swap1\n      0x0100\n      exp\n      swap1\n      div\n      0xffffffffffffffffffffffffffffffffffffffff\n      and\n      0xffffffffffffffffffffffffffffffffffffffff\n      and\n      0xffffffffffffffffffffffffffffffffffffffff\n      and\n      dup2\n      mstore\n      0x20\n      add\n      0x01\n      dup3\n      add\n      sload\n      dup2\n      mstore\n      0x20\n      add\n      0x02\n      dup3\n      add\n      dup1\n      sload\n      dup1\n      0x20\n      mul\n      0x20\n      add\n      mload(0x40)\n      swap1\n      dup2\n      add\n      0x40\n      mstore\n      dup1\n      swap3\n      swap2\n      swap1\n      dup2\n      dup2\n      mstore\n      0x20\n      add\n      dup3\n      dup1\n      sload\n      dup1\n      iszero\n      tag_81\n      jumpi\n      0x20\n      mul\n      dup3\n      add\n      swap2\n      swap1\n      0x00\n      mstore\n      keccak256(0x00, 0x20)\n      swap1\n    tag_82:\n      dup2\n      0x00\n      swap1\n      sload\n      swap1\n      0x0100\n      exp\n      swap1\n      div\n      0xffffffffffffffffffffffffffffffffffffffff\n      and\n      0xffffffffffffffffffffffffffffffffffffffff\n      and\n      dup2\n      mstore\n      0x20\n      add\n      swap1\n      0x01\n      add\n      swap1\n      dup1\n      dup4\n      gt\n      tag_82\n      jumpi\n    tag_81:\n      pop\n      pop\n      pop\n      pop\n      pop\n      dup2\n      mstore\n      pop\n      pop\n      swap1\n      pop\n        /* \"contracts/Lottery.sol\":1489:1495  record */\n      dup1\n        /* \"contracts/Lottery.sol\":1477:1483  result */\n      dup4\n        /* \"contracts/Lottery.sol\":1484:1485  i */\n      dup4\n        /* \"contracts/Lottery.sol\":1477:1486  result[i] */\n      dup2\n      mload\n      dup2\n      lt\n      tag_83\n      jumpi\n      tag_84\n      tag_85\n      jump\t// in\n    tag_84:\n    tag_83:\n      0x20\n      mul\n      0x20\n      add\n      add\n        /* \"contracts/Lottery.sol\":1477:1495  result[i] = record */\n      dup2\n      swap1\n      mstore\n      pop\n        /* \"contracts/Lottery.sol\":1419:1502  {... */\n      pop\n        /* \"contracts/Lottery.sol\":1415:1418  i++ */\n      dup1\n      dup1\n      tag_86\n      swap1\n      tag_87\n      jump\t// in\n    tag_86:\n      swap2\n      pop\n      pop\n        /* \"contracts/Lottery.sol\":1380:1502  for(uint i = 0; i < lotteryId - 1; i++){... */\n      jump(tag_76)\n    tag_77:\n      pop\n        /* \"contracts/Lottery.sol\":1514:1520  result */\n      dup1\n        /* \"contracts/Lottery.sol\":1507:1520  return result */\n      swap2\n      pop\n      pop\n        /* \"contracts/Lottery.sol\":1224:1525  function getLotteryHistory() public view returns (LotteryRecord[] memory){... */\n      swap1\n      jump\t// out\n        /* \"contracts/Lottery.sol\":348:367  uint public endTime */\n    tag_25:\n      sload(0x05)\n      dup2\n      jump\t// out\n        /* \"contracts/Lottery.sol\":1984:2525  function pickWinner() public isOwner{... */\n    tag_29:\n        /* \"contracts/Lottery.sol\":886:891  owner */\n      0x00\n      dup1\n      sload\n      swap1\n      0x0100\n      exp\n      swap1\n      div\n      0xffffffffffffffffffffffffffffffffffffffff\n      and\n        /* \"contracts/Lottery.sol\":872:891  msg.sender == owner */\n      0xffffffffffffffffffffffffffffffffffffffff\n      and\n        /* \"contracts/Lottery.sol\":872:882  msg.sender */\n      caller\n        /* \"contracts/Lottery.sol\":872:891  msg.sender == owner */\n      0xffffffffffffffffffffffffffffffffffffffff\n      and\n      eq\n        /* \"contracts/Lottery.sol\":864:892  require(msg.sender == owner) */\n      tag_89\n      jumpi\n      0x00\n      dup1\n      revert\n    tag_89:\n        /* \"contracts/Lottery.sol\":2053:2060  endTime */\n      sload(0x05)\n        /* \"contracts/Lottery.sol\":2034:2049  block.timestamp */\n      timestamp\n        /* \"contracts/Lottery.sol\":2034:2060  block.timestamp >= endTime */\n      lt\n      iszero\n        /* \"contracts/Lottery.sol\":2026:2096  require(block.timestamp >= endTime, \"Lottery end time hasn't reached\") */\n      tag_91\n      jumpi\n      mload(0x40)\n      0x08c379a000000000000000000000000000000000000000000000000000000000\n      dup2\n      mstore\n      0x04\n      add\n      tag_92\n      swap1\n      tag_93\n      jump\t// in\n    tag_92:\n      mload(0x40)\n      dup1\n      swap2\n      sub\n      swap1\n      revert\n    tag_91:\n        /* \"contracts/Lottery.sol\":2103:2113  uint index */\n      0x00\n        /* \"contracts/Lottery.sol\":2153:2160  players */\n      0x01\n        /* \"contracts/Lottery.sol\":2153:2167  players.length */\n      dup1\n      sload\n      swap1\n      pop\n        /* \"contracts/Lottery.sol\":2116:2122  Helper */\n      linkerSymbol(\"94f2638c50c931a3cfe8bd2b41dc7eef46f409e7a1677e241cb95b6fd6d03f3a\")\n        /* \"contracts/Lottery.sol\":2116:2143  Helper.generateRandomNumber */\n      0xe8737436\n        /* \"contracts/Lottery.sol\":2144:2149  owner */\n      0x00\n      dup1\n      sload\n      swap1\n      0x0100\n      exp\n      swap1\n      div\n      0xffffffffffffffffffffffffffffffffffffffff\n      and\n        /* \"contracts/Lottery.sol\":2116:2150  Helper.generateRandomNumber(owner) */\n      mload(0x40)\n      dup3\n      0xffffffff\n      and\n      0xe0\n      shl\n      dup2\n      mstore\n      0x04\n      add\n      tag_94\n      swap2\n      swap1\n      tag_95\n      jump\t// in\n    tag_94:\n      0x20\n      mload(0x40)\n      dup1\n      dup4\n      sub\n      dup2\n      dup7\n      gas\n      delegatecall\n      iszero\n      dup1\n      iszero\n      tag_97\n      jumpi\n      returndatasize\n      0x00\n      dup1\n      returndatacopy\n      revert(0x00, returndatasize)\n    tag_97:\n      pop\n      pop\n      pop\n      pop\n      mload(0x40)\n      returndatasize\n      not(0x1f)\n      0x1f\n      dup3\n      add\n      and\n      dup3\n      add\n      dup1\n      0x40\n      mstore\n      pop\n      dup2\n      add\n      swap1\n      tag_98\n      swap2\n      swap1\n      tag_99\n      jump\t// in\n    tag_98:\n        /* \"contracts/Lottery.sol\":2116:2167  Helper.generateRandomNumber(owner) % players.length */\n      tag_100\n      swap2\n      swap1\n      tag_101\n      jump\t// in\n    tag_100:\n        /* \"contracts/Lottery.sol\":2103:2167  uint index = Helper.generateRandomNumber(owner) % players.length */\n      swap1\n      pop\n        /* \"contracts/Lottery.sol\":2173:2185  uint balance */\n      0x00\n        /* \"contracts/Lottery.sol\":2188:2192  this */\n      address\n        /* \"contracts/Lottery.sol\":2188:2203  this.getBalance */\n      0xffffffffffffffffffffffffffffffffffffffff\n      and\n      0x12065fe0\n        /* \"contracts/Lottery.sol\":2188:2205  this.getBalance() */\n      mload(0x40)\n      dup2\n      0xffffffff\n      and\n      0xe0\n      shl\n      dup2\n      mstore\n      0x04\n      add\n      0x20\n      mload(0x40)\n      dup1\n      dup4\n      sub\n      dup2\n      dup7\n      gas\n      staticcall\n      iszero\n      dup1\n      iszero\n      tag_103\n      jumpi\n      returndatasize\n      0x00\n      dup1\n      returndatacopy\n      revert(0x00, returndatasize)\n    tag_103:\n      pop\n      pop\n      pop\n      pop\n      mload(0x40)\n      returndatasize\n      not(0x1f)\n      0x1f\n      dup3\n      add\n      and\n      dup3\n      add\n      dup1\n      0x40\n      mstore\n      pop\n      dup2\n      add\n      swap1\n      tag_104\n      swap2\n      swap1\n      tag_99\n      jump\t// in\n    tag_104:\n        /* \"contracts/Lottery.sol\":2173:2205  uint balance = this.getBalance() */\n      swap1\n      pop\n        /* \"contracts/Lottery.sol\":2211:2218  players */\n      0x01\n        /* \"contracts/Lottery.sol\":2219:2224  index */\n      dup3\n        /* \"contracts/Lottery.sol\":2211:2225  players[index] */\n      dup2\n      sload\n      dup2\n      lt\n      tag_105\n      jumpi\n      tag_106\n      tag_85\n      jump\t// in\n    tag_106:\n    tag_105:\n      swap1\n      0x00\n      mstore\n      keccak256(0x00, 0x20)\n      add\n      0x00\n      swap1\n      sload\n      swap1\n      0x0100\n      exp\n      swap1\n      div\n      0xffffffffffffffffffffffffffffffffffffffff\n      and\n        /* \"contracts/Lottery.sol\":2211:2234  players[index].transfer */\n      0xffffffffffffffffffffffffffffffffffffffff\n      and\n        /* \"contracts/Lottery.sol\":2211:2243  players[index].transfer(balance) */\n      0x08fc\n        /* \"contracts/Lottery.sol\":2235:2242  balance */\n      dup3\n        /* \"contracts/Lottery.sol\":2211:2243  players[index].transfer(balance) */\n      swap1\n      dup2\n      iszero\n      mul\n      swap1\n      mload(0x40)\n      0x00\n      mload(0x40)\n      dup1\n      dup4\n      sub\n      dup2\n      dup6\n      dup9\n      dup9\n      call\n      swap4\n      pop\n      pop\n      pop\n      pop\n      iszero\n      dup1\n      iszero\n      tag_109\n      jumpi\n      returndatasize\n      0x00\n      dup1\n      returndatacopy\n      revert(0x00, returndatasize)\n    tag_109:\n      pop\n        /* \"contracts/Lottery.sol\":2326:2373  LotteryRecord(players[index], balance, players) */\n      mload(0x40)\n      dup1\n      0x60\n      add\n      0x40\n      mstore\n      dup1\n        /* \"contracts/Lottery.sol\":2340:2347  players */\n      0x01\n        /* \"contracts/Lottery.sol\":2348:2353  index */\n      dup5\n        /* \"contracts/Lottery.sol\":2340:2354  players[index] */\n      dup2\n      sload\n      dup2\n      lt\n      tag_110\n      jumpi\n      tag_111\n      tag_85\n      jump\t// in\n    tag_111:\n    tag_110:\n      swap1\n      0x00\n      mstore\n      keccak256(0x00, 0x20)\n      add\n      0x00\n      swap1\n      sload\n      swap1\n      0x0100\n      exp\n      swap1\n      div\n      0xffffffffffffffffffffffffffffffffffffffff\n      and\n        /* \"contracts/Lottery.sol\":2326:2373  LotteryRecord(players[index], balance, players) */\n      0xffffffffffffffffffffffffffffffffffffffff\n      and\n      dup2\n      mstore\n      0x20\n      add\n        /* \"contracts/Lottery.sol\":2356:2363  balance */\n      dup3\n        /* \"contracts/Lottery.sol\":2326:2373  LotteryRecord(players[index], balance, players) */\n      dup2\n      mstore\n      0x20\n      add\n        /* \"contracts/Lottery.sol\":2365:2372  players */\n      0x01\n        /* \"contracts/Lottery.sol\":2326:2373  LotteryRecord(players[index], balance, players) */\n      dup1\n      sload\n      dup1\n      0x20\n      mul\n      0x20\n      add\n      mload(0x40)\n      swap1\n      dup2\n      add\n      0x40\n      mstore\n      dup1\n      swap3\n      swap2\n      swap1\n      dup2\n      dup2\n      mstore\n      0x20\n      add\n      dup3\n      dup1\n      sload\n      dup1\n      iszero\n      tag_113\n      jumpi\n      0x20\n      mul\n      dup3\n      add\n      swap2\n      swap1\n      0x00\n      mstore\n      keccak256(0x00, 0x20)\n      swap1\n    tag_114:\n      dup2\n      0x00\n      swap1\n      sload\n      swap1\n      0x0100\n      exp\n      swap1\n      div\n      0xffffffffffffffffffffffffffffffffffffffff\n      and\n      0xffffffffffffffffffffffffffffffffffffffff\n      and\n      dup2\n      mstore\n      0x20\n      add\n      swap1\n      0x01\n      add\n      swap1\n      dup1\n      dup4\n      gt\n      tag_114\n      jumpi\n    tag_113:\n      pop\n      pop\n      pop\n      pop\n      pop\n      dup2\n      mstore\n      pop\n        /* \"contracts/Lottery.sol\":2303:2310  history */\n      0x06\n        /* \"contracts/Lottery.sol\":2303:2323  history[lotteryId++] */\n      0x00\n        /* \"contracts/Lottery.sol\":2311:2320  lotteryId */\n      0x02\n      0x00\n        /* \"contracts/Lottery.sol\":2311:2322  lotteryId++ */\n      dup2\n      sload\n      dup1\n      swap3\n      swap2\n      swap1\n      tag_115\n      swap1\n      tag_87\n      jump\t// in\n    tag_115:\n      swap2\n      swap1\n      pop\n      sstore\n        /* \"contracts/Lottery.sol\":2303:2323  history[lotteryId++] */\n      dup2\n      mstore\n      0x20\n      add\n      swap1\n      dup2\n      mstore\n      0x20\n      add\n      0x00\n      keccak256\n        /* \"contracts/Lottery.sol\":2303:2373  history[lotteryId++] = LotteryRecord(players[index], balance, players) */\n      0x00\n      dup3\n      add\n      mload\n      dup2\n      0x00\n      add\n      exp(0x0100, 0x00)\n      dup2\n      sload\n      dup2\n      0xffffffffffffffffffffffffffffffffffffffff\n      mul\n      not\n      and\n      swap1\n      dup4\n      0xffffffffffffffffffffffffffffffffffffffff\n      and\n      mul\n      or\n      swap1\n      sstore\n      pop\n      0x20\n      dup3\n      add\n      mload\n      dup2\n      0x01\n      add\n      sstore\n      0x40\n      dup3\n      add\n      mload\n      dup2\n      0x02\n      add\n      swap1\n      dup1\n      mload\n      swap1\n      0x20\n      add\n      swap1\n      tag_116\n      swap3\n      swap2\n      swap1\n      tag_117\n      jump\t// in\n    tag_116:\n      pop\n      swap1\n      pop\n      pop\n        /* \"contracts/Lottery.sol\":2435:2436  0 */\n      0x00\n        /* \"contracts/Lottery.sol\":2413:2437  new address payable[](0) */\n      0xffffffffffffffff\n      dup2\n      gt\n      iszero\n      tag_118\n      jumpi\n      tag_119\n      tag_71\n      jump\t// in\n    tag_119:\n    tag_118:\n      mload(0x40)\n      swap1\n      dup1\n      dup3\n      mstore\n      dup1\n      0x20\n      mul\n      0x20\n      add\n      dup3\n      add\n      0x40\n      mstore\n      dup1\n      iszero\n      tag_120\n      jumpi\n      dup2\n      0x20\n      add\n      0x20\n      dup3\n      mul\n      dup1\n      calldatasize\n      dup4\n      calldatacopy\n      dup1\n      dup3\n      add\n      swap2\n      pop\n      pop\n      swap1\n      pop\n    tag_120:\n      pop\n        /* \"contracts/Lottery.sol\":2403:2410  players */\n      0x01\n        /* \"contracts/Lottery.sol\":2403:2437  players = new address payable[](0) */\n      swap1\n      dup1\n      mload\n      swap1\n      0x20\n      add\n      swap1\n      tag_121\n      swap3\n      swap2\n      swap1\n      tag_117\n      jump\t// in\n    tag_121:\n      pop\n        /* \"contracts/Lottery.sol\":245:251  60 * 2 */\n      0x78\n        /* \"contracts/Lottery.sol\":2453:2468  block.timestamp */\n      timestamp\n        /* \"contracts/Lottery.sol\":2453:2483  block.timestamp + MIN_END_DATE */\n      tag_122\n      swap2\n      swap1\n      tag_62\n      jump\t// in\n    tag_122:\n        /* \"contracts/Lottery.sol\":2443:2450  endTime */\n      0x05\n        /* \"contracts/Lottery.sol\":2443:2483  endTime = block.timestamp + MIN_END_DATE */\n      dup2\n      swap1\n      sstore\n      pop\n        /* \"contracts/Lottery.sol\":283:284  3 */\n      0x03\n        /* \"contracts/Lottery.sol\":2489:2501  totalTickets */\n      dup1\n        /* \"contracts/Lottery.sol\":2489:2515  totalTickets = MIN_TICKETS */\n      dup2\n      swap1\n      sstore\n      pop\n        /* \"contracts/Lottery.sol\":2020:2525  {... */\n      pop\n      pop\n        /* \"contracts/Lottery.sol\":1984:2525  function pickWinner() public isOwner{... */\n      jump\t// out\n        /* \"contracts/Lottery.sol\":998:1090  function getPlayers() view public returns(address payable[] memory){... */\n    tag_32:\n        /* \"contracts/Lottery.sol\":1040:1064  address payable[] memory */\n      0x60\n        /* \"contracts/Lottery.sol\":1078:1085  players */\n      0x01\n        /* \"contracts/Lottery.sol\":1071:1085  return players */\n      dup1\n      sload\n      dup1\n      0x20\n      mul\n      0x20\n      add\n      mload(0x40)\n      swap1\n      dup2\n      add\n      0x40\n      mstore\n      dup1\n      swap3\n      swap2\n      swap1\n      dup2\n      dup2\n      mstore\n      0x20\n      add\n      dup3\n      dup1\n      sload\n      dup1\n      iszero\n      tag_124\n      jumpi\n      0x20\n      mul\n      dup3\n      add\n      swap2\n      swap1\n      0x00\n      mstore\n      keccak256(0x00, 0x20)\n      swap1\n    tag_125:\n      dup2\n      0x00\n      swap1\n      sload\n      swap1\n      0x0100\n      exp\n      swap1\n      div\n      0xffffffffffffffffffffffffffffffffffffffff\n      and\n      0xffffffffffffffffffffffffffffffffffffffff\n      and\n      dup2\n      mstore\n      0x20\n      add\n      swap1\n      0x01\n      add\n      swap1\n      dup1\n      dup4\n      gt\n      tag_125\n      jumpi\n    tag_124:\n      pop\n      pop\n      pop\n      pop\n      pop\n      swap1\n      pop\n        /* \"contracts/Lottery.sol\":998:1090  function getPlayers() view public returns(address payable[] memory){... */\n      swap1\n      jump\t// out\n        /* \"contracts/Lottery.sol\":163:183  address public owner */\n    tag_37:\n      0x00\n      dup1\n      sload\n      swap1\n      0x0100\n      exp\n      swap1\n      div\n      0xffffffffffffffffffffffffffffffffffffffff\n      and\n      dup2\n      jump\t// out\n        /* \"contracts/Lottery.sol\":1094:1220  function getWinnerByLotteryId(uint _lotteryId) public view returns (LotteryRecord memory){... */\n    tag_44:\n        /* \"contracts/Lottery.sol\":1162:1182  LotteryRecord memory */\n      tag_126\n      tag_75\n      jump\t// in\n    tag_126:\n        /* \"contracts/Lottery.sol\":1196:1203  history */\n      0x06\n        /* \"contracts/Lottery.sol\":1196:1215  history[_lotteryId] */\n      0x00\n        /* \"contracts/Lottery.sol\":1204:1214  _lotteryId */\n      dup4\n        /* \"contracts/Lottery.sol\":1196:1215  history[_lotteryId] */\n      dup2\n      mstore\n      0x20\n      add\n      swap1\n      dup2\n      mstore\n      0x20\n      add\n      0x00\n      keccak256\n        /* \"contracts/Lottery.sol\":1189:1215  return history[_lotteryId] */\n      mload(0x40)\n      dup1\n      0x60\n      add\n      0x40\n      mstore\n      swap1\n      dup2\n      0x00\n      dup3\n      add\n      0x00\n      swap1\n      sload\n      swap1\n      0x0100\n      exp\n      swap1\n      div\n      0xffffffffffffffffffffffffffffffffffffffff\n      and\n      0xffffffffffffffffffffffffffffffffffffffff\n      and\n      0xffffffffffffffffffffffffffffffffffffffff\n      and\n      dup2\n      mstore\n      0x20\n      add\n      0x01\n      dup3\n      add\n      sload\n      dup2\n      mstore\n      0x20\n      add\n      0x02\n      dup3\n      add\n      dup1\n      sload\n      dup1\n      0x20\n      mul\n      0x20\n      add\n      mload(0x40)\n      swap1\n      dup2\n      add\n      0x40\n      mstore\n      dup1\n      swap3\n      swap2\n      swap1\n      dup2\n      dup2\n      mstore\n      0x20\n      add\n      dup3\n      dup1\n      sload\n      dup1\n      iszero\n      tag_128\n      jumpi\n      0x20\n      mul\n      dup3\n      add\n      swap2\n      swap1\n      0x00\n      mstore\n      keccak256(0x00, 0x20)\n      swap1\n    tag_129:\n      dup2\n      0x00\n      swap1\n      sload\n      swap1\n      0x0100\n      exp\n      swap1\n      div\n      0xffffffffffffffffffffffffffffffffffffffff\n      and\n      0xffffffffffffffffffffffffffffffffffffffff\n      and\n      dup2\n      mstore\n      0x20\n      add\n      swap1\n      0x01\n      add\n      swap1\n      dup1\n      dup4\n      gt\n      tag_129\n      jumpi\n    tag_128:\n      pop\n      pop\n      pop\n      pop\n      pop\n      dup2\n      mstore\n      pop\n      pop\n      swap1\n      pop\n        /* \"contracts/Lottery.sol\":1094:1220  function getWinnerByLotteryId(uint _lotteryId) public view returns (LotteryRecord memory){... */\n      swap2\n      swap1\n      pop\n      jump\t// out\n    tag_75:\n      mload(0x40)\n      dup1\n      0x60\n      add\n      0x40\n      mstore\n      dup1\n      and(0xffffffffffffffffffffffffffffffffffffffff, 0x00)\n      dup2\n      mstore\n      0x20\n      add\n      0x00\n      dup2\n      mstore\n      0x20\n      add\n      0x60\n      dup2\n      mstore\n      pop\n      swap1\n      jump\t// out\n    tag_117:\n      dup3\n      dup1\n      sload\n      dup3\n      dup3\n      sstore\n      swap1\n      0x00\n      mstore\n      keccak256(0x00, 0x20)\n      swap1\n      dup2\n      add\n      swap3\n      dup3\n      iszero\n      tag_130\n      jumpi\n      swap2\n      0x20\n      mul\n      dup3\n      add\n    tag_131:\n      dup3\n      dup2\n      gt\n      iszero\n      tag_132\n      jumpi\n      dup3\n      mload\n      dup3\n      exp(0x0100, 0x00)\n      dup2\n      sload\n      dup2\n      0xffffffffffffffffffffffffffffffffffffffff\n      mul\n      not\n      and\n      swap1\n      dup4\n      0xffffffffffffffffffffffffffffffffffffffff\n      and\n      mul\n      or\n      swap1\n      sstore\n      pop\n      swap2\n      0x20\n      add\n      swap2\n      swap1\n      0x01\n      add\n      swap1\n      jump(tag_131)\n    tag_132:\n    tag_130:\n      pop\n      swap1\n      pop\n      tag_133\n      swap2\n      swap1\n      tag_134\n      jump\t// in\n    tag_133:\n      pop\n      swap1\n      jump\t// out\n    tag_134:\n    tag_135:\n      dup1\n      dup3\n      gt\n      iszero\n      tag_136\n      jumpi\n      0x00\n      dup2\n      0x00\n      swap1\n      sstore\n      pop\n      0x01\n      add\n      jump(tag_135)\n    tag_136:\n      pop\n      swap1\n      jump\t// out\n        /* \"#utility.yul\":7:84   */\n    tag_137:\n        /* \"#utility.yul\":44:51   */\n      0x00\n        /* \"#utility.yul\":73:78   */\n      dup2\n        /* \"#utility.yul\":62:78   */\n      swap1\n      pop\n        /* \"#utility.yul\":7:84   */\n      swap2\n      swap1\n      pop\n      jump\t// out\n        /* \"#utility.yul\":90:208   */\n    tag_138:\n        /* \"#utility.yul\":177:201   */\n      tag_180\n        /* \"#utility.yul\":195:200   */\n      dup2\n        /* \"#utility.yul\":177:201   */\n      tag_137\n      jump\t// in\n    tag_180:\n        /* \"#utility.yul\":172:175   */\n      dup3\n        /* \"#utility.yul\":165:202   */\n      mstore\n        /* \"#utility.yul\":90:208   */\n      pop\n      pop\n      jump\t// out\n        /* \"#utility.yul\":214:436   */\n    tag_15:\n        /* \"#utility.yul\":307:311   */\n      0x00\n        /* \"#utility.yul\":345:347   */\n      0x20\n        /* \"#utility.yul\":334:343   */\n      dup3\n        /* \"#utility.yul\":330:348   */\n      add\n        /* \"#utility.yul\":322:348   */\n      swap1\n      pop\n        /* \"#utility.yul\":358:429   */\n      tag_182\n        /* \"#utility.yul\":426:427   */\n      0x00\n        /* \"#utility.yul\":415:424   */\n      dup4\n        /* \"#utility.yul\":411:428   */\n      add\n        /* \"#utility.yul\":402:408   */\n      dup5\n        /* \"#utility.yul\":358:429   */\n      tag_138\n      jump\t// in\n    tag_182:\n        /* \"#utility.yul\":214:436   */\n      swap3\n      swap2\n      pop\n      pop\n      jump\t// out\n        /* \"#utility.yul\":442:586   */\n    tag_139:\n        /* \"#utility.yul\":539:545   */\n      0x00\n        /* \"#utility.yul\":573:578   */\n      dup2\n        /* \"#utility.yul\":567:579   */\n      mload\n        /* \"#utility.yul\":557:579   */\n      swap1\n      pop\n        /* \"#utility.yul\":442:586   */\n      swap2\n      swap1\n      pop\n      jump\t// out\n        /* \"#utility.yul\":592:806   */\n    tag_140:\n        /* \"#utility.yul\":721:732   */\n      0x00\n        /* \"#utility.yul\":755:761   */\n      dup3\n        /* \"#utility.yul\":750:753   */\n      dup3\n        /* \"#utility.yul\":743:762   */\n      mstore\n        /* \"#utility.yul\":795:799   */\n      0x20\n        /* \"#utility.yul\":790:793   */\n      dup3\n        /* \"#utility.yul\":786:800   */\n      add\n        /* \"#utility.yul\":771:800   */\n      swap1\n      pop\n        /* \"#utility.yul\":592:806   */\n      swap3\n      swap2\n      pop\n      pop\n      jump\t// out\n        /* \"#utility.yul\":812:974   */\n    tag_141:\n        /* \"#utility.yul\":909:913   */\n      0x00\n        /* \"#utility.yul\":932:935   */\n      dup2\n        /* \"#utility.yul\":924:935   */\n      swap1\n      pop\n        /* \"#utility.yul\":962:966   */\n      0x20\n        /* \"#utility.yul\":957:960   */\n      dup3\n        /* \"#utility.yul\":953:967   */\n      add\n        /* \"#utility.yul\":945:967   */\n      swap1\n      pop\n        /* \"#utility.yul\":812:974   */\n      swap2\n      swap1\n      pop\n      jump\t// out\n        /* \"#utility.yul\":980:1106   */\n    tag_142:\n        /* \"#utility.yul\":1017:1024   */\n      0x00\n        /* \"#utility.yul\":1057:1099   */\n      0xffffffffffffffffffffffffffffffffffffffff\n        /* \"#utility.yul\":1050:1055   */\n      dup3\n        /* \"#utility.yul\":1046:1100   */\n      and\n        /* \"#utility.yul\":1035:1100   */\n      swap1\n      pop\n        /* \"#utility.yul\":980:1106   */\n      swap2\n      swap1\n      pop\n      jump\t// out\n        /* \"#utility.yul\":1112:1216   */\n    tag_143:\n        /* \"#utility.yul\":1157:1164   */\n      0x00\n        /* \"#utility.yul\":1186:1210   */\n      tag_188\n        /* \"#utility.yul\":1204:1209   */\n      dup3\n        /* \"#utility.yul\":1186:1210   */\n      tag_142\n      jump\t// in\n    tag_188:\n        /* \"#utility.yul\":1175:1210   */\n      swap1\n      pop\n        /* \"#utility.yul\":1112:1216   */\n      swap2\n      swap1\n      pop\n      jump\t// out\n        /* \"#utility.yul\":1222:1354   */\n    tag_144:\n        /* \"#utility.yul\":1315:1347   */\n      tag_190\n        /* \"#utility.yul\":1341:1346   */\n      dup2\n        /* \"#utility.yul\":1315:1347   */\n      tag_143\n      jump\t// in\n    tag_190:\n        /* \"#utility.yul\":1310:1313   */\n      dup3\n        /* \"#utility.yul\":1303:1348   */\n      mstore\n        /* \"#utility.yul\":1222:1354   */\n      pop\n      pop\n      jump\t// out\n        /* \"#utility.yul\":1360:1468   */\n    tag_145:\n        /* \"#utility.yul\":1437:1461   */\n      tag_192\n        /* \"#utility.yul\":1455:1460   */\n      dup2\n        /* \"#utility.yul\":1437:1461   */\n      tag_137\n      jump\t// in\n    tag_192:\n        /* \"#utility.yul\":1432:1435   */\n      dup3\n        /* \"#utility.yul\":1425:1462   */\n      mstore\n        /* \"#utility.yul\":1360:1468   */\n      pop\n      pop\n      jump\t// out\n        /* \"#utility.yul\":1474:1596   */\n    tag_146:\n        /* \"#utility.yul\":1549:1555   */\n      0x00\n        /* \"#utility.yul\":1583:1588   */\n      dup2\n        /* \"#utility.yul\":1577:1589   */\n      mload\n        /* \"#utility.yul\":1567:1589   */\n      swap1\n      pop\n        /* \"#utility.yul\":1474:1596   */\n      swap2\n      swap1\n      pop\n      jump\t// out\n        /* \"#utility.yul\":1602:1784   */\n    tag_147:\n        /* \"#utility.yul\":1699:1710   */\n      0x00\n        /* \"#utility.yul\":1733:1739   */\n      dup3\n        /* \"#utility.yul\":1728:1731   */\n      dup3\n        /* \"#utility.yul\":1721:1740   */\n      mstore\n        /* \"#utility.yul\":1773:1777   */\n      0x20\n        /* \"#utility.yul\":1768:1771   */\n      dup3\n        /* \"#utility.yul\":1764:1778   */\n      add\n        /* \"#utility.yul\":1749:1778   */\n      swap1\n      pop\n        /* \"#utility.yul\":1602:1784   */\n      swap3\n      swap2\n      pop\n      pop\n      jump\t// out\n        /* \"#utility.yul\":1790:1930   */\n    tag_148:\n        /* \"#utility.yul\":1865:1869   */\n      0x00\n        /* \"#utility.yul\":1888:1891   */\n      dup2\n        /* \"#utility.yul\":1880:1891   */\n      swap1\n      pop\n        /* \"#utility.yul\":1918:1922   */\n      0x20\n        /* \"#utility.yul\":1913:1916   */\n      dup3\n        /* \"#utility.yul\":1909:1923   */\n      add\n        /* \"#utility.yul\":1901:1923   */\n      swap1\n      pop\n        /* \"#utility.yul\":1790:1930   */\n      swap2\n      swap1\n      pop\n      jump\t// out\n        /* \"#utility.yul\":1936:2147   */\n    tag_149:\n        /* \"#utility.yul\":2021:2031   */\n      0x00\n        /* \"#utility.yul\":2042:2104   */\n      tag_197\n        /* \"#utility.yul\":2100:2103   */\n      dup4\n        /* \"#utility.yul\":2092:2098   */\n      dup4\n        /* \"#utility.yul\":2042:2104   */\n      tag_144\n      jump\t// in\n    tag_197:\n        /* \"#utility.yul\":2136:2140   */\n      0x20\n        /* \"#utility.yul\":2131:2134   */\n      dup4\n        /* \"#utility.yul\":2127:2141   */\n      add\n        /* \"#utility.yul\":2113:2141   */\n      swap1\n      pop\n        /* \"#utility.yul\":1936:2147   */\n      swap3\n      swap2\n      pop\n      pop\n      jump\t// out\n        /* \"#utility.yul\":2153:2274   */\n    tag_150:\n        /* \"#utility.yul\":2231:2235   */\n      0x00\n        /* \"#utility.yul\":2263:2267   */\n      0x20\n        /* \"#utility.yul\":2258:2261   */\n      dup3\n        /* \"#utility.yul\":2254:2268   */\n      add\n        /* \"#utility.yul\":2246:2268   */\n      swap1\n      pop\n        /* \"#utility.yul\":2153:2274   */\n      swap2\n      swap1\n      pop\n      jump\t// out\n        /* \"#utility.yul\":2326:3102   */\n    tag_151:\n        /* \"#utility.yul\":2451:2454   */\n      0x00\n        /* \"#utility.yul\":2480:2542   */\n      tag_200\n        /* \"#utility.yul\":2536:2541   */\n      dup3\n        /* \"#utility.yul\":2480:2542   */\n      tag_146\n      jump\t// in\n    tag_200:\n        /* \"#utility.yul\":2558:2642   */\n      tag_201\n        /* \"#utility.yul\":2635:2641   */\n      dup2\n        /* \"#utility.yul\":2630:2633   */\n      dup6\n        /* \"#utility.yul\":2558:2642   */\n      tag_147\n      jump\t// in\n    tag_201:\n        /* \"#utility.yul\":2551:2642   */\n      swap4\n      pop\n        /* \"#utility.yul\":2666:2730   */\n      tag_202\n        /* \"#utility.yul\":2724:2729   */\n      dup4\n        /* \"#utility.yul\":2666:2730   */\n      tag_148\n      jump\t// in\n    tag_202:\n        /* \"#utility.yul\":2753:2760   */\n      dup1\n        /* \"#utility.yul\":2784:2785   */\n      0x00\n        /* \"#utility.yul\":2769:3077   */\n    tag_203:\n        /* \"#utility.yul\":2794:2800   */\n      dup4\n        /* \"#utility.yul\":2791:2792   */\n      dup2\n        /* \"#utility.yul\":2788:2801   */\n      lt\n        /* \"#utility.yul\":2769:3077   */\n      iszero\n      tag_205\n      jumpi\n        /* \"#utility.yul\":2870:2876   */\n      dup2\n        /* \"#utility.yul\":2864:2877   */\n      mload\n        /* \"#utility.yul\":2897:2976   */\n      tag_206\n        /* \"#utility.yul\":2972:2975   */\n      dup9\n        /* \"#utility.yul\":2957:2970   */\n      dup3\n        /* \"#utility.yul\":2897:2976   */\n      tag_149\n      jump\t// in\n    tag_206:\n        /* \"#utility.yul\":2890:2976   */\n      swap8\n      pop\n        /* \"#utility.yul\":2999:3067   */\n      tag_207\n        /* \"#utility.yul\":3060:3066   */\n      dup4\n        /* \"#utility.yul\":2999:3067   */\n      tag_150\n      jump\t// in\n    tag_207:\n        /* \"#utility.yul\":2989:3067   */\n      swap3\n      pop\n        /* \"#utility.yul\":2829:3077   */\n      pop\n        /* \"#utility.yul\":2816:2817   */\n      0x01\n        /* \"#utility.yul\":2813:2814   */\n      dup2\n        /* \"#utility.yul\":2809:2818   */\n      add\n        /* \"#utility.yul\":2804:2818   */\n      swap1\n      pop\n        /* \"#utility.yul\":2769:3077   */\n      jump(tag_203)\n    tag_205:\n        /* \"#utility.yul\":2773:2787   */\n      pop\n        /* \"#utility.yul\":3093:3096   */\n      dup6\n        /* \"#utility.yul\":3086:3096   */\n      swap4\n      pop\n        /* \"#utility.yul\":2456:3102   */\n      pop\n      pop\n      pop\n        /* \"#utility.yul\":2326:3102   */\n      swap3\n      swap2\n      pop\n      pop\n      jump\t// out\n        /* \"#utility.yul\":3176:4028   */\n    tag_152:\n        /* \"#utility.yul\":3295:3298   */\n      0x00\n        /* \"#utility.yul\":3331:3335   */\n      0x60\n        /* \"#utility.yul\":3326:3329   */\n      dup4\n        /* \"#utility.yul\":3322:3336   */\n      add\n        /* \"#utility.yul\":3420:3424   */\n      0x00\n        /* \"#utility.yul\":3413:3418   */\n      dup4\n        /* \"#utility.yul\":3409:3425   */\n      add\n        /* \"#utility.yul\":3403:3426   */\n      mload\n        /* \"#utility.yul\":3439:3518   */\n      tag_209\n        /* \"#utility.yul\":3512:3516   */\n      0x00\n        /* \"#utility.yul\":3507:3510   */\n      dup7\n        /* \"#utility.yul\":3503:3517   */\n      add\n        /* \"#utility.yul\":3489:3501   */\n      dup3\n        /* \"#utility.yul\":3439:3518   */\n      tag_144\n      jump\t// in\n    tag_209:\n        /* \"#utility.yul\":3346:3528   */\n      pop\n        /* \"#utility.yul\":3615:3619   */\n      0x20\n        /* \"#utility.yul\":3608:3613   */\n      dup4\n        /* \"#utility.yul\":3604:3620   */\n      add\n        /* \"#utility.yul\":3598:3621   */\n      mload\n        /* \"#utility.yul\":3634:3697   */\n      tag_210\n        /* \"#utility.yul\":3691:3695   */\n      0x20\n        /* \"#utility.yul\":3686:3689   */\n      dup7\n        /* \"#utility.yul\":3682:3696   */\n      add\n        /* \"#utility.yul\":3668:3680   */\n      dup3\n        /* \"#utility.yul\":3634:3697   */\n      tag_145\n      jump\t// in\n    tag_210:\n        /* \"#utility.yul\":3538:3707   */\n      pop\n        /* \"#utility.yul\":3792:3796   */\n      0x40\n        /* \"#utility.yul\":3785:3790   */\n      dup4\n        /* \"#utility.yul\":3781:3797   */\n      add\n        /* \"#utility.yul\":3775:3798   */\n      mload\n        /* \"#utility.yul\":3845:3848   */\n      dup5\n        /* \"#utility.yul\":3839:3843   */\n      dup3\n        /* \"#utility.yul\":3835:3849   */\n      sub\n        /* \"#utility.yul\":3828:3832   */\n      0x40\n        /* \"#utility.yul\":3823:3826   */\n      dup7\n        /* \"#utility.yul\":3819:3833   */\n      add\n        /* \"#utility.yul\":3812:3850   */\n      mstore\n        /* \"#utility.yul\":3871:3990   */\n      tag_211\n        /* \"#utility.yul\":3985:3989   */\n      dup3\n        /* \"#utility.yul\":3971:3983   */\n      dup3\n        /* \"#utility.yul\":3871:3990   */\n      tag_151\n      jump\t// in\n    tag_211:\n        /* \"#utility.yul\":3863:3990   */\n      swap2\n      pop\n        /* \"#utility.yul\":3717:4001   */\n      pop\n        /* \"#utility.yul\":4018:4022   */\n      dup1\n        /* \"#utility.yul\":4011:4022   */\n      swap2\n      pop\n        /* \"#utility.yul\":3300:4028   */\n      pop\n        /* \"#utility.yul\":3176:4028   */\n      swap3\n      swap2\n      pop\n      pop\n      jump\t// out\n        /* \"#utility.yul\":4034:4310   */\n    tag_153:\n        /* \"#utility.yul\":4163:4173   */\n      0x00\n        /* \"#utility.yul\":4198:4304   */\n      tag_213\n        /* \"#utility.yul\":4300:4303   */\n      dup4\n        /* \"#utility.yul\":4292:4298   */\n      dup4\n        /* \"#utility.yul\":4198:4304   */\n      tag_152\n      jump\t// in\n    tag_213:\n        /* \"#utility.yul\":4184:4304   */\n      swap1\n      pop\n        /* \"#utility.yul\":4034:4310   */\n      swap3\n      swap2\n      pop\n      pop\n      jump\t// out\n        /* \"#utility.yul\":4316:4459   */\n    tag_154:\n        /* \"#utility.yul\":4416:4420   */\n      0x00\n        /* \"#utility.yul\":4448:4452   */\n      0x20\n        /* \"#utility.yul\":4443:4446   */\n      dup3\n        /* \"#utility.yul\":4439:4453   */\n      add\n        /* \"#utility.yul\":4431:4453   */\n      swap1\n      pop\n        /* \"#utility.yul\":4316:4459   */\n      swap2\n      swap1\n      pop\n      jump\t// out\n        /* \"#utility.yul\":4537:5688   */\n    tag_155:\n        /* \"#utility.yul\":4716:4719   */\n      0x00\n        /* \"#utility.yul\":4745:4829   */\n      tag_216\n        /* \"#utility.yul\":4823:4828   */\n      dup3\n        /* \"#utility.yul\":4745:4829   */\n      tag_139\n      jump\t// in\n    tag_216:\n        /* \"#utility.yul\":4845:4961   */\n      tag_217\n        /* \"#utility.yul\":4954:4960   */\n      dup2\n        /* \"#utility.yul\":4949:4952   */\n      dup6\n        /* \"#utility.yul\":4845:4961   */\n      tag_140\n      jump\t// in\n    tag_217:\n        /* \"#utility.yul\":4838:4961   */\n      swap4\n      pop\n        /* \"#utility.yul\":4987:4990   */\n      dup4\n        /* \"#utility.yul\":5032:5036   */\n      0x20\n        /* \"#utility.yul\":5024:5030   */\n      dup3\n        /* \"#utility.yul\":5020:5037   */\n      mul\n        /* \"#utility.yul\":5015:5018   */\n      dup6\n        /* \"#utility.yul\":5011:5038   */\n      add\n        /* \"#utility.yul\":5062:5148   */\n      tag_218\n        /* \"#utility.yul\":5142:5147   */\n      dup6\n        /* \"#utility.yul\":5062:5148   */\n      tag_141\n      jump\t// in\n    tag_218:\n        /* \"#utility.yul\":5171:5178   */\n      dup1\n        /* \"#utility.yul\":5202:5203   */\n      0x00\n        /* \"#utility.yul\":5187:5643   */\n    tag_219:\n        /* \"#utility.yul\":5212:5218   */\n      dup6\n        /* \"#utility.yul\":5209:5210   */\n      dup2\n        /* \"#utility.yul\":5206:5219   */\n      lt\n        /* \"#utility.yul\":5187:5643   */\n      iszero\n      tag_221\n      jumpi\n        /* \"#utility.yul\":5283:5292   */\n      dup5\n        /* \"#utility.yul\":5277:5281   */\n      dup5\n        /* \"#utility.yul\":5273:5293   */\n      sub\n        /* \"#utility.yul\":5268:5271   */\n      dup10\n        /* \"#utility.yul\":5261:5294   */\n      mstore\n        /* \"#utility.yul\":5334:5340   */\n      dup2\n        /* \"#utility.yul\":5328:5341   */\n      mload\n        /* \"#utility.yul\":5362:5486   */\n      tag_222\n        /* \"#utility.yul\":5481:5485   */\n      dup6\n        /* \"#utility.yul\":5466:5479   */\n      dup3\n        /* \"#utility.yul\":5362:5486   */\n      tag_153\n      jump\t// in\n    tag_222:\n        /* \"#utility.yul\":5354:5486   */\n      swap5\n      pop\n        /* \"#utility.yul\":5509:5599   */\n      tag_223\n        /* \"#utility.yul\":5592:5598   */\n      dup4\n        /* \"#utility.yul\":5509:5599   */\n      tag_154\n      jump\t// in\n    tag_223:\n        /* \"#utility.yul\":5499:5599   */\n      swap3\n      pop\n        /* \"#utility.yul\":5628:5632   */\n      0x20\n        /* \"#utility.yul\":5623:5626   */\n      dup11\n        /* \"#utility.yul\":5619:5633   */\n      add\n        /* \"#utility.yul\":5612:5633   */\n      swap10\n      pop\n        /* \"#utility.yul\":5247:5643   */\n      pop\n        /* \"#utility.yul\":5234:5235   */\n      0x01\n        /* \"#utility.yul\":5231:5232   */\n      dup2\n        /* \"#utility.yul\":5227:5236   */\n      add\n        /* \"#utility.yul\":5222:5236   */\n      swap1\n      pop\n        /* \"#utility.yul\":5187:5643   */\n      jump(tag_219)\n    tag_221:\n        /* \"#utility.yul\":5191:5205   */\n      pop\n        /* \"#utility.yul\":5659:5663   */\n      dup3\n        /* \"#utility.yul\":5652:5663   */\n      swap8\n      pop\n        /* \"#utility.yul\":5679:5682   */\n      dup8\n        /* \"#utility.yul\":5672:5682   */\n      swap6\n      pop\n        /* \"#utility.yul\":4721:5688   */\n      pop\n      pop\n      pop\n      pop\n      pop\n        /* \"#utility.yul\":4537:5688   */\n      swap3\n      swap2\n      pop\n      pop\n      jump\t// out\n        /* \"#utility.yul\":5694:6187   */\n    tag_22:\n        /* \"#utility.yul\":5897:5901   */\n      0x00\n        /* \"#utility.yul\":5935:5937   */\n      0x20\n        /* \"#utility.yul\":5924:5933   */\n      dup3\n        /* \"#utility.yul\":5920:5938   */\n      add\n        /* \"#utility.yul\":5912:5938   */\n      swap1\n      pop\n        /* \"#utility.yul\":5984:5993   */\n      dup2\n        /* \"#utility.yul\":5978:5982   */\n      dup2\n        /* \"#utility.yul\":5974:5994   */\n      sub\n        /* \"#utility.yul\":5970:5971   */\n      0x00\n        /* \"#utility.yul\":5959:5968   */\n      dup4\n        /* \"#utility.yul\":5955:5972   */\n      add\n        /* \"#utility.yul\":5948:5995   */\n      mstore\n        /* \"#utility.yul\":6012:6180   */\n      tag_225\n        /* \"#utility.yul\":6175:6179   */\n      dup2\n        /* \"#utility.yul\":6166:6172   */\n      dup5\n        /* \"#utility.yul\":6012:6180   */\n      tag_155\n      jump\t// in\n    tag_225:\n        /* \"#utility.yul\":6004:6180   */\n      swap1\n      pop\n        /* \"#utility.yul\":5694:6187   */\n      swap3\n      swap2\n      pop\n      pop\n      jump\t// out\n        /* \"#utility.yul\":6193:6385   */\n    tag_156:\n        /* \"#utility.yul\":6300:6311   */\n      0x00\n        /* \"#utility.yul\":6334:6340   */\n      dup3\n        /* \"#utility.yul\":6329:6332   */\n      dup3\n        /* \"#utility.yul\":6322:6341   */\n      mstore\n        /* \"#utility.yul\":6374:6378   */\n      0x20\n        /* \"#utility.yul\":6369:6372   */\n      dup3\n        /* \"#utility.yul\":6365:6379   */\n      add\n        /* \"#utility.yul\":6350:6379   */\n      swap1\n      pop\n        /* \"#utility.yul\":6193:6385   */\n      swap3\n      swap2\n      pop\n      pop\n      jump\t// out\n        /* \"#utility.yul\":6437:7233   */\n    tag_157:\n        /* \"#utility.yul\":6572:6575   */\n      0x00\n        /* \"#utility.yul\":6601:6663   */\n      tag_228\n        /* \"#utility.yul\":6657:6662   */\n      dup3\n        /* \"#utility.yul\":6601:6663   */\n      tag_146\n      jump\t// in\n    tag_228:\n        /* \"#utility.yul\":6679:6773   */\n      tag_229\n        /* \"#utility.yul\":6766:6772   */\n      dup2\n        /* \"#utility.yul\":6761:6764   */\n      dup6\n        /* \"#utility.yul\":6679:6773   */\n      tag_156\n      jump\t// in\n    tag_229:\n        /* \"#utility.yul\":6672:6773   */\n      swap4\n      pop\n        /* \"#utility.yul\":6797:6861   */\n      tag_230\n        /* \"#utility.yul\":6855:6860   */\n      dup4\n        /* \"#utility.yul\":6797:6861   */\n      tag_148\n      jump\t// in\n    tag_230:\n        /* \"#utility.yul\":6884:6891   */\n      dup1\n        /* \"#utility.yul\":6915:6916   */\n      0x00\n        /* \"#utility.yul\":6900:7208   */\n    tag_231:\n        /* \"#utility.yul\":6925:6931   */\n      dup4\n        /* \"#utility.yul\":6922:6923   */\n      dup2\n        /* \"#utility.yul\":6919:6932   */\n      lt\n        /* \"#utility.yul\":6900:7208   */\n      iszero\n      tag_233\n      jumpi\n        /* \"#utility.yul\":7001:7007   */\n      dup2\n        /* \"#utility.yul\":6995:7008   */\n      mload\n        /* \"#utility.yul\":7028:7107   */\n      tag_234\n        /* \"#utility.yul\":7103:7106   */\n      dup9\n        /* \"#utility.yul\":7088:7101   */\n      dup3\n        /* \"#utility.yul\":7028:7107   */\n      tag_149\n      jump\t// in\n    tag_234:\n        /* \"#utility.yul\":7021:7107   */\n      swap8\n      pop\n        /* \"#utility.yul\":7130:7198   */\n      tag_235\n        /* \"#utility.yul\":7191:7197   */\n      dup4\n        /* \"#utility.yul\":7130:7198   */\n      tag_150\n      jump\t// in\n    tag_235:\n        /* \"#utility.yul\":7120:7198   */\n      swap3\n      pop\n        /* \"#utility.yul\":6960:7208   */\n      pop\n        /* \"#utility.yul\":6947:6948   */\n      0x01\n        /* \"#utility.yul\":6944:6945   */\n      dup2\n        /* \"#utility.yul\":6940:6949   */\n      add\n        /* \"#utility.yul\":6935:6949   */\n      swap1\n      pop\n        /* \"#utility.yul\":6900:7208   */\n      jump(tag_231)\n    tag_233:\n        /* \"#utility.yul\":6904:6918   */\n      pop\n        /* \"#utility.yul\":7224:7227   */\n      dup6\n        /* \"#utility.yul\":7217:7227   */\n      swap4\n      pop\n        /* \"#utility.yul\":6577:7233   */\n      pop\n      pop\n      pop\n        /* \"#utility.yul\":6437:7233   */\n      swap3\n      swap2\n      pop\n      pop\n      jump\t// out\n        /* \"#utility.yul\":7239:7644   */\n    tag_34:\n        /* \"#utility.yul\":7398:7402   */\n      0x00\n        /* \"#utility.yul\":7436:7438   */\n      0x20\n        /* \"#utility.yul\":7425:7434   */\n      dup3\n        /* \"#utility.yul\":7421:7439   */\n      add\n        /* \"#utility.yul\":7413:7439   */\n      swap1\n      pop\n        /* \"#utility.yul\":7485:7494   */\n      dup2\n        /* \"#utility.yul\":7479:7483   */\n      dup2\n        /* \"#utility.yul\":7475:7495   */\n      sub\n        /* \"#utility.yul\":7471:7472   */\n      0x00\n        /* \"#utility.yul\":7460:7469   */\n      dup4\n        /* \"#utility.yul\":7456:7473   */\n      add\n        /* \"#utility.yul\":7449:7496   */\n      mstore\n        /* \"#utility.yul\":7513:7637   */\n      tag_237\n        /* \"#utility.yul\":7632:7636   */\n      dup2\n        /* \"#utility.yul\":7623:7629   */\n      dup5\n        /* \"#utility.yul\":7513:7637   */\n      tag_157\n      jump\t// in\n    tag_237:\n        /* \"#utility.yul\":7505:7637   */\n      swap1\n      pop\n        /* \"#utility.yul\":7239:7644   */\n      swap3\n      swap2\n      pop\n      pop\n      jump\t// out\n        /* \"#utility.yul\":7650:7746   */\n    tag_158:\n        /* \"#utility.yul\":7687:7694   */\n      0x00\n        /* \"#utility.yul\":7716:7740   */\n      tag_239\n        /* \"#utility.yul\":7734:7739   */\n      dup3\n        /* \"#utility.yul\":7716:7740   */\n      tag_142\n      jump\t// in\n    tag_239:\n        /* \"#utility.yul\":7705:7740   */\n      swap1\n      pop\n        /* \"#utility.yul\":7650:7746   */\n      swap2\n      swap1\n      pop\n      jump\t// out\n        /* \"#utility.yul\":7752:7870   */\n    tag_159:\n        /* \"#utility.yul\":7839:7863   */\n      tag_241\n        /* \"#utility.yul\":7857:7862   */\n      dup2\n        /* \"#utility.yul\":7839:7863   */\n      tag_158\n      jump\t// in\n    tag_241:\n        /* \"#utility.yul\":7834:7837   */\n      dup3\n        /* \"#utility.yul\":7827:7864   */\n      mstore\n        /* \"#utility.yul\":7752:7870   */\n      pop\n      pop\n      jump\t// out\n        /* \"#utility.yul\":7876:8098   */\n    tag_39:\n        /* \"#utility.yul\":7969:7973   */\n      0x00\n        /* \"#utility.yul\":8007:8009   */\n      0x20\n        /* \"#utility.yul\":7996:8005   */\n      dup3\n        /* \"#utility.yul\":7992:8010   */\n      add\n        /* \"#utility.yul\":7984:8010   */\n      swap1\n      pop\n        /* \"#utility.yul\":8020:8091   */\n      tag_243\n        /* \"#utility.yul\":8088:8089   */\n      0x00\n        /* \"#utility.yul\":8077:8086   */\n      dup4\n        /* \"#utility.yul\":8073:8090   */\n      add\n        /* \"#utility.yul\":8064:8070   */\n      dup5\n        /* \"#utility.yul\":8020:8091   */\n      tag_159\n      jump\t// in\n    tag_243:\n        /* \"#utility.yul\":7876:8098   */\n      swap3\n      swap2\n      pop\n      pop\n      jump\t// out\n        /* \"#utility.yul\":8185:8302   */\n    tag_161:\n        /* \"#utility.yul\":8294:8295   */\n      0x00\n        /* \"#utility.yul\":8291:8292   */\n      dup1\n        /* \"#utility.yul\":8284:8296   */\n      revert\n        /* \"#utility.yul\":8431:8553   */\n    tag_163:\n        /* \"#utility.yul\":8504:8528   */\n      tag_248\n        /* \"#utility.yul\":8522:8527   */\n      dup2\n        /* \"#utility.yul\":8504:8528   */\n      tag_137\n      jump\t// in\n    tag_248:\n        /* \"#utility.yul\":8497:8502   */\n      dup2\n        /* \"#utility.yul\":8494:8529   */\n      eq\n        /* \"#utility.yul\":8484:8547   */\n      tag_249\n      jumpi\n        /* \"#utility.yul\":8543:8544   */\n      0x00\n        /* \"#utility.yul\":8540:8541   */\n      dup1\n        /* \"#utility.yul\":8533:8545   */\n      revert\n        /* \"#utility.yul\":8484:8547   */\n    tag_249:\n        /* \"#utility.yul\":8431:8553   */\n      pop\n      jump\t// out\n        /* \"#utility.yul\":8559:8698   */\n    tag_164:\n        /* \"#utility.yul\":8605:8610   */\n      0x00\n        /* \"#utility.yul\":8643:8649   */\n      dup2\n        /* \"#utility.yul\":8630:8650   */\n      calldataload\n        /* \"#utility.yul\":8621:8650   */\n      swap1\n      pop\n        /* \"#utility.yul\":8659:8692   */\n      tag_251\n        /* \"#utility.yul\":8686:8691   */\n      dup2\n        /* \"#utility.yul\":8659:8692   */\n      tag_163\n      jump\t// in\n    tag_251:\n        /* \"#utility.yul\":8559:8698   */\n      swap3\n      swap2\n      pop\n      pop\n      jump\t// out\n        /* \"#utility.yul\":8704:9033   */\n    tag_43:\n        /* \"#utility.yul\":8763:8769   */\n      0x00\n        /* \"#utility.yul\":8812:8814   */\n      0x20\n        /* \"#utility.yul\":8800:8809   */\n      dup3\n        /* \"#utility.yul\":8791:8798   */\n      dup5\n        /* \"#utility.yul\":8787:8810   */\n      sub\n        /* \"#utility.yul\":8783:8815   */\n      slt\n        /* \"#utility.yul\":8780:8899   */\n      iszero\n      tag_253\n      jumpi\n        /* \"#utility.yul\":8818:8897   */\n      tag_254\n      tag_161\n      jump\t// in\n    tag_254:\n        /* \"#utility.yul\":8780:8899   */\n    tag_253:\n        /* \"#utility.yul\":8938:8939   */\n      0x00\n        /* \"#utility.yul\":8963:9016   */\n      tag_255\n        /* \"#utility.yul\":9008:9015   */\n      dup5\n        /* \"#utility.yul\":8999:9005   */\n      dup3\n        /* \"#utility.yul\":8988:8997   */\n      dup6\n        /* \"#utility.yul\":8984:9006   */\n      add\n        /* \"#utility.yul\":8963:9016   */\n      tag_164\n      jump\t// in\n    tag_255:\n        /* \"#utility.yul\":8953:9016   */\n      swap2\n      pop\n        /* \"#utility.yul\":8909:9026   */\n      pop\n        /* \"#utility.yul\":8704:9033   */\n      swap3\n      swap2\n      pop\n      pop\n      jump\t// out\n        /* \"#utility.yul\":9107:9969   */\n    tag_165:\n        /* \"#utility.yul\":9236:9239   */\n      0x00\n        /* \"#utility.yul\":9272:9276   */\n      0x60\n        /* \"#utility.yul\":9267:9270   */\n      dup4\n        /* \"#utility.yul\":9263:9277   */\n      add\n        /* \"#utility.yul\":9361:9365   */\n      0x00\n        /* \"#utility.yul\":9354:9359   */\n      dup4\n        /* \"#utility.yul\":9350:9366   */\n      add\n        /* \"#utility.yul\":9344:9367   */\n      mload\n        /* \"#utility.yul\":9380:9459   */\n      tag_257\n        /* \"#utility.yul\":9453:9457   */\n      0x00\n        /* \"#utility.yul\":9448:9451   */\n      dup7\n        /* \"#utility.yul\":9444:9458   */\n      add\n        /* \"#utility.yul\":9430:9442   */\n      dup3\n        /* \"#utility.yul\":9380:9459   */\n      tag_144\n      jump\t// in\n    tag_257:\n        /* \"#utility.yul\":9287:9469   */\n      pop\n        /* \"#utility.yul\":9556:9560   */\n      0x20\n        /* \"#utility.yul\":9549:9554   */\n      dup4\n        /* \"#utility.yul\":9545:9561   */\n      add\n        /* \"#utility.yul\":9539:9562   */\n      mload\n        /* \"#utility.yul\":9575:9638   */\n      tag_258\n        /* \"#utility.yul\":9632:9636   */\n      0x20\n        /* \"#utility.yul\":9627:9630   */\n      dup7\n        /* \"#utility.yul\":9623:9637   */\n      add\n        /* \"#utility.yul\":9609:9621   */\n      dup3\n        /* \"#utility.yul\":9575:9638   */\n      tag_145\n      jump\t// in\n    tag_258:\n        /* \"#utility.yul\":9479:9648   */\n      pop\n        /* \"#utility.yul\":9733:9737   */\n      0x40\n        /* \"#utility.yul\":9726:9731   */\n      dup4\n        /* \"#utility.yul\":9722:9738   */\n      add\n        /* \"#utility.yul\":9716:9739   */\n      mload\n        /* \"#utility.yul\":9786:9789   */\n      dup5\n        /* \"#utility.yul\":9780:9784   */\n      dup3\n        /* \"#utility.yul\":9776:9790   */\n      sub\n        /* \"#utility.yul\":9769:9773   */\n      0x40\n        /* \"#utility.yul\":9764:9767   */\n      dup7\n        /* \"#utility.yul\":9760:9774   */\n      add\n        /* \"#utility.yul\":9753:9791   */\n      mstore\n        /* \"#utility.yul\":9812:9931   */\n      tag_259\n        /* \"#utility.yul\":9926:9930   */\n      dup3\n        /* \"#utility.yul\":9912:9924   */\n      dup3\n        /* \"#utility.yul\":9812:9931   */\n      tag_151\n      jump\t// in\n    tag_259:\n        /* \"#utility.yul\":9804:9931   */\n      swap2\n      pop\n        /* \"#utility.yul\":9658:9942   */\n      pop\n        /* \"#utility.yul\":9959:9963   */\n      dup1\n        /* \"#utility.yul\":9952:9963   */\n      swap2\n      pop\n        /* \"#utility.yul\":9241:9969   */\n      pop\n        /* \"#utility.yul\":9107:9969   */\n      swap3\n      swap2\n      pop\n      pop\n      jump\t// out\n        /* \"#utility.yul\":9975:10368   */\n    tag_46:\n        /* \"#utility.yul\":10128:10132   */\n      0x00\n        /* \"#utility.yul\":10166:10168   */\n      0x20\n        /* \"#utility.yul\":10155:10164   */\n      dup3\n        /* \"#utility.yul\":10151:10169   */\n      add\n        /* \"#utility.yul\":10143:10169   */\n      swap1\n      pop\n        /* \"#utility.yul\":10215:10224   */\n      dup2\n        /* \"#utility.yul\":10209:10213   */\n      dup2\n        /* \"#utility.yul\":10205:10225   */\n      sub\n        /* \"#utility.yul\":10201:10202   */\n      0x00\n        /* \"#utility.yul\":10190:10199   */\n      dup4\n        /* \"#utility.yul\":10186:10203   */\n      add\n        /* \"#utility.yul\":10179:10226   */\n      mstore\n        /* \"#utility.yul\":10243:10361   */\n      tag_261\n        /* \"#utility.yul\":10356:10360   */\n      dup2\n        /* \"#utility.yul\":10347:10353   */\n      dup5\n        /* \"#utility.yul\":10243:10361   */\n      tag_165\n      jump\t// in\n    tag_261:\n        /* \"#utility.yul\":10235:10361   */\n      swap1\n      pop\n        /* \"#utility.yul\":9975:10368   */\n      swap3\n      swap2\n      pop\n      pop\n      jump\t// out\n        /* \"#utility.yul\":10374:10543   */\n    tag_166:\n        /* \"#utility.yul\":10458:10469   */\n      0x00\n        /* \"#utility.yul\":10492:10498   */\n      dup3\n        /* \"#utility.yul\":10487:10490   */\n      dup3\n        /* \"#utility.yul\":10480:10499   */\n      mstore\n        /* \"#utility.yul\":10532:10536   */\n      0x20\n        /* \"#utility.yul\":10527:10530   */\n      dup3\n        /* \"#utility.yul\":10523:10537   */\n      add\n        /* \"#utility.yul\":10508:10537   */\n      swap1\n      pop\n        /* \"#utility.yul\":10374:10543   */\n      swap3\n      swap2\n      pop\n      pop\n      jump\t// out\n        /* \"#utility.yul\":10549:10769   */\n    tag_167:\n        /* \"#utility.yul\":10689:10723   */\n      0x416d6f756e7420746f6f206c6f7720746f207075726368617365207469636b65\n        /* \"#utility.yul\":10685:10686   */\n      0x00\n        /* \"#utility.yul\":10677:10683   */\n      dup3\n        /* \"#utility.yul\":10673:10687   */\n      add\n        /* \"#utility.yul\":10666:10724   */\n      mstore\n        /* \"#utility.yul\":10758:10761   */\n      0x7400000000000000000000000000000000000000000000000000000000000000\n        /* \"#utility.yul\":10753:10755   */\n      0x20\n        /* \"#utility.yul\":10745:10751   */\n      dup3\n        /* \"#utility.yul\":10741:10756   */\n      add\n        /* \"#utility.yul\":10734:10762   */\n      mstore\n        /* \"#utility.yul\":10549:10769   */\n      pop\n      jump\t// out\n        /* \"#utility.yul\":10775:11141   */\n    tag_168:\n        /* \"#utility.yul\":10917:10920   */\n      0x00\n        /* \"#utility.yul\":10938:11005   */\n      tag_265\n        /* \"#utility.yul\":11002:11004   */\n      0x21\n        /* \"#utility.yul\":10997:11000   */\n      dup4\n        /* \"#utility.yul\":10938:11005   */\n      tag_166\n      jump\t// in\n    tag_265:\n        /* \"#utility.yul\":10931:11005   */\n      swap2\n      pop\n        /* \"#utility.yul\":11014:11107   */\n      tag_266\n        /* \"#utility.yul\":11103:11106   */\n      dup3\n        /* \"#utility.yul\":11014:11107   */\n      tag_167\n      jump\t// in\n    tag_266:\n        /* \"#utility.yul\":11132:11134   */\n      0x40\n        /* \"#utility.yul\":11127:11130   */\n      dup3\n        /* \"#utility.yul\":11123:11135   */\n      add\n        /* \"#utility.yul\":11116:11135   */\n      swap1\n      pop\n        /* \"#utility.yul\":10775:11141   */\n      swap2\n      swap1\n      pop\n      jump\t// out\n        /* \"#utility.yul\":11147:11566   */\n    tag_51:\n        /* \"#utility.yul\":11313:11317   */\n      0x00\n        /* \"#utility.yul\":11351:11353   */\n      0x20\n        /* \"#utility.yul\":11340:11349   */\n      dup3\n        /* \"#utility.yul\":11336:11354   */\n      add\n        /* \"#utility.yul\":11328:11354   */\n      swap1\n      pop\n        /* \"#utility.yul\":11400:11409   */\n      dup2\n        /* \"#utility.yul\":11394:11398   */\n      dup2\n        /* \"#utility.yul\":11390:11410   */\n      sub\n        /* \"#utility.yul\":11386:11387   */\n      0x00\n        /* \"#utility.yul\":11375:11384   */\n      dup4\n        /* \"#utility.yul\":11371:11388   */\n      add\n        /* \"#utility.yul\":11364:11411   */\n      mstore\n        /* \"#utility.yul\":11428:11559   */\n      tag_268\n        /* \"#utility.yul\":11554:11558   */\n      dup2\n        /* \"#utility.yul\":11428:11559   */\n      tag_168\n      jump\t// in\n    tag_268:\n        /* \"#utility.yul\":11420:11559   */\n      swap1\n      pop\n        /* \"#utility.yul\":11147:11566   */\n      swap2\n      swap1\n      pop\n      jump\t// out\n        /* \"#utility.yul\":11572:11742   */\n    tag_169:\n        /* \"#utility.yul\":11712:11734   */\n      0x5469636b6574732061726520736f6c64206f7574000000000000000000000000\n        /* \"#utility.yul\":11708:11709   */\n      0x00\n        /* \"#utility.yul\":11700:11706   */\n      dup3\n        /* \"#utility.yul\":11696:11710   */\n      add\n        /* \"#utility.yul\":11689:11735   */\n      mstore\n        /* \"#utility.yul\":11572:11742   */\n      pop\n      jump\t// out\n        /* \"#utility.yul\":11748:12114   */\n    tag_170:\n        /* \"#utility.yul\":11890:11893   */\n      0x00\n        /* \"#utility.yul\":11911:11978   */\n      tag_271\n        /* \"#utility.yul\":11975:11977   */\n      0x14\n        /* \"#utility.yul\":11970:11973   */\n      dup4\n        /* \"#utility.yul\":11911:11978   */\n      tag_166\n      jump\t// in\n    tag_271:\n        /* \"#utility.yul\":11904:11978   */\n      swap2\n      pop\n        /* \"#utility.yul\":11987:12080   */\n      tag_272\n        /* \"#utility.yul\":12076:12079   */\n      dup3\n        /* \"#utility.yul\":11987:12080   */\n      tag_169\n      jump\t// in\n    tag_272:\n        /* \"#utility.yul\":12105:12107   */\n      0x20\n        /* \"#utility.yul\":12100:12103   */\n      dup3\n        /* \"#utility.yul\":12096:12108   */\n      add\n        /* \"#utility.yul\":12089:12108   */\n      swap1\n      pop\n        /* \"#utility.yul\":11748:12114   */\n      swap2\n      swap1\n      pop\n      jump\t// out\n        /* \"#utility.yul\":12120:12539   */\n    tag_54:\n        /* \"#utility.yul\":12286:12290   */\n      0x00\n        /* \"#utility.yul\":12324:12326   */\n      0x20\n        /* \"#utility.yul\":12313:12322   */\n      dup3\n        /* \"#utility.yul\":12309:12327   */\n      add\n        /* \"#utility.yul\":12301:12327   */\n      swap1\n      pop\n        /* \"#utility.yul\":12373:12382   */\n      dup2\n        /* \"#utility.yul\":12367:12371   */\n      dup2\n        /* \"#utility.yul\":12363:12383   */\n      sub\n        /* \"#utility.yul\":12359:12360   */\n      0x00\n        /* \"#utility.yul\":12348:12357   */\n      dup4\n        /* \"#utility.yul\":12344:12361   */\n      add\n        /* \"#utility.yul\":12337:12384   */\n      mstore\n        /* \"#utility.yul\":12401:12532   */\n      tag_274\n        /* \"#utility.yul\":12527:12531   */\n      dup2\n        /* \"#utility.yul\":12401:12532   */\n      tag_170\n      jump\t// in\n    tag_274:\n        /* \"#utility.yul\":12393:12532   */\n      swap1\n      pop\n        /* \"#utility.yul\":12120:12539   */\n      swap2\n      swap1\n      pop\n      jump\t// out\n        /* \"#utility.yul\":12545:12877   */\n    tag_58:\n        /* \"#utility.yul\":12666:12670   */\n      0x00\n        /* \"#utility.yul\":12704:12706   */\n      0x40\n        /* \"#utility.yul\":12693:12702   */\n      dup3\n        /* \"#utility.yul\":12689:12707   */\n      add\n        /* \"#utility.yul\":12681:12707   */\n      swap1\n      pop\n        /* \"#utility.yul\":12717:12788   */\n      tag_276\n        /* \"#utility.yul\":12785:12786   */\n      0x00\n        /* \"#utility.yul\":12774:12783   */\n      dup4\n        /* \"#utility.yul\":12770:12787   */\n      add\n        /* \"#utility.yul\":12761:12767   */\n      dup6\n        /* \"#utility.yul\":12717:12788   */\n      tag_138\n      jump\t// in\n    tag_276:\n        /* \"#utility.yul\":12798:12870   */\n      tag_277\n        /* \"#utility.yul\":12866:12868   */\n      0x20\n        /* \"#utility.yul\":12855:12864   */\n      dup4\n        /* \"#utility.yul\":12851:12869   */\n      add\n        /* \"#utility.yul\":12842:12848   */\n      dup5\n        /* \"#utility.yul\":12798:12870   */\n      tag_138\n      jump\t// in\n    tag_277:\n        /* \"#utility.yul\":12545:12877   */\n      swap4\n      swap3\n      pop\n      pop\n      pop\n      jump\t// out\n        /* \"#utility.yul\":12883:13063   */\n    tag_171:\n        /* \"#utility.yul\":12931:13008   */\n      0x4e487b7100000000000000000000000000000000000000000000000000000000\n        /* \"#utility.yul\":12928:12929   */\n      0x00\n        /* \"#utility.yul\":12921:13009   */\n      mstore\n        /* \"#utility.yul\":13028:13032   */\n      0x11\n        /* \"#utility.yul\":13025:13026   */\n      0x04\n        /* \"#utility.yul\":13018:13033   */\n      mstore\n        /* \"#utility.yul\":13052:13056   */\n      0x24\n        /* \"#utility.yul\":13049:13050   */\n      0x00\n        /* \"#utility.yul\":13042:13057   */\n      revert\n        /* \"#utility.yul\":13069:13260   */\n    tag_62:\n        /* \"#utility.yul\":13109:13112   */\n      0x00\n        /* \"#utility.yul\":13128:13148   */\n      tag_280\n        /* \"#utility.yul\":13146:13147   */\n      dup3\n        /* \"#utility.yul\":13128:13148   */\n      tag_137\n      jump\t// in\n    tag_280:\n        /* \"#utility.yul\":13123:13148   */\n      swap2\n      pop\n        /* \"#utility.yul\":13162:13182   */\n      tag_281\n        /* \"#utility.yul\":13180:13181   */\n      dup4\n        /* \"#utility.yul\":13162:13182   */\n      tag_137\n      jump\t// in\n    tag_281:\n        /* \"#utility.yul\":13157:13182   */\n      swap3\n      pop\n        /* \"#utility.yul\":13205:13206   */\n      dup3\n        /* \"#utility.yul\":13202:13203   */\n      dup3\n        /* \"#utility.yul\":13198:13207   */\n      add\n        /* \"#utility.yul\":13191:13207   */\n      swap1\n      pop\n        /* \"#utility.yul\":13226:13229   */\n      dup1\n        /* \"#utility.yul\":13223:13224   */\n      dup3\n        /* \"#utility.yul\":13220:13230   */\n      gt\n        /* \"#utility.yul\":13217:13253   */\n      iszero\n      tag_282\n      jumpi\n        /* \"#utility.yul\":13233:13251   */\n      tag_283\n      tag_171\n      jump\t// in\n    tag_283:\n        /* \"#utility.yul\":13217:13253   */\n    tag_282:\n        /* \"#utility.yul\":13069:13260   */\n      swap3\n      swap2\n      pop\n      pop\n      jump\t// out\n        /* \"#utility.yul\":13266:13437   */\n    tag_65:\n        /* \"#utility.yul\":13305:13308   */\n      0x00\n        /* \"#utility.yul\":13328:13352   */\n      tag_285\n        /* \"#utility.yul\":13346:13351   */\n      dup3\n        /* \"#utility.yul\":13328:13352   */\n      tag_137\n      jump\t// in\n    tag_285:\n        /* \"#utility.yul\":13319:13352   */\n      swap2\n      pop\n        /* \"#utility.yul\":13374:13378   */\n      0x00\n        /* \"#utility.yul\":13367:13372   */\n      dup3\n        /* \"#utility.yul\":13364:13379   */\n      sub\n        /* \"#utility.yul\":13361:13402   */\n      tag_286\n      jumpi\n        /* \"#utility.yul\":13382:13400   */\n      tag_287\n      tag_171\n      jump\t// in\n    tag_287:\n        /* \"#utility.yul\":13361:13402   */\n    tag_286:\n        /* \"#utility.yul\":13429:13430   */\n      0x01\n        /* \"#utility.yul\":13422:13427   */\n      dup3\n        /* \"#utility.yul\":13418:13431   */\n      sub\n        /* \"#utility.yul\":13411:13431   */\n      swap1\n      pop\n        /* \"#utility.yul\":13266:13437   */\n      swap2\n      swap1\n      pop\n      jump\t// out\n        /* \"#utility.yul\":13443:13637   */\n    tag_68:\n        /* \"#utility.yul\":13483:13487   */\n      0x00\n        /* \"#utility.yul\":13503:13523   */\n      tag_289\n        /* \"#utility.yul\":13521:13522   */\n      dup3\n        /* \"#utility.yul\":13503:13523   */\n      tag_137\n      jump\t// in\n    tag_289:\n        /* \"#utility.yul\":13498:13523   */\n      swap2\n      pop\n        /* \"#utility.yul\":13537:13557   */\n      tag_290\n        /* \"#utility.yul\":13555:13556   */\n      dup4\n        /* \"#utility.yul\":13537:13557   */\n      tag_137\n      jump\t// in\n    tag_290:\n        /* \"#utility.yul\":13532:13557   */\n      swap3\n      pop\n        /* \"#utility.yul\":13581:13582   */\n      dup3\n        /* \"#utility.yul\":13578:13579   */\n      dup3\n        /* \"#utility.yul\":13574:13583   */\n      sub\n        /* \"#utility.yul\":13566:13583   */\n      swap1\n      pop\n        /* \"#utility.yul\":13605:13606   */\n      dup2\n        /* \"#utility.yul\":13599:13603   */\n      dup2\n        /* \"#utility.yul\":13596:13607   */\n      gt\n        /* \"#utility.yul\":13593:13630   */\n      iszero\n      tag_291\n      jumpi\n        /* \"#utility.yul\":13610:13628   */\n      tag_292\n      tag_171\n      jump\t// in\n    tag_292:\n        /* \"#utility.yul\":13593:13630   */\n    tag_291:\n        /* \"#utility.yul\":13443:13637   */\n      swap3\n      swap2\n      pop\n      pop\n      jump\t// out\n        /* \"#utility.yul\":13643:13823   */\n    tag_71:\n        /* \"#utility.yul\":13691:13768   */\n      0x4e487b7100000000000000000000000000000000000000000000000000000000\n        /* \"#utility.yul\":13688:13689   */\n      0x00\n        /* \"#utility.yul\":13681:13769   */\n      mstore\n        /* \"#utility.yul\":13788:13792   */\n      0x41\n        /* \"#utility.yul\":13785:13786   */\n      0x04\n        /* \"#utility.yul\":13778:13793   */\n      mstore\n        /* \"#utility.yul\":13812:13816   */\n      0x24\n        /* \"#utility.yul\":13809:13810   */\n      0x00\n        /* \"#utility.yul\":13802:13817   */\n      revert\n        /* \"#utility.yul\":13829:14009   */\n    tag_85:\n        /* \"#utility.yul\":13877:13954   */\n      0x4e487b7100000000000000000000000000000000000000000000000000000000\n        /* \"#utility.yul\":13874:13875   */\n      0x00\n        /* \"#utility.yul\":13867:13955   */\n      mstore\n        /* \"#utility.yul\":13974:13978   */\n      0x32\n        /* \"#utility.yul\":13971:13972   */\n      0x04\n        /* \"#utility.yul\":13964:13979   */\n      mstore\n        /* \"#utility.yul\":13998:14002   */\n      0x24\n        /* \"#utility.yul\":13995:13996   */\n      0x00\n        /* \"#utility.yul\":13988:14003   */\n      revert\n        /* \"#utility.yul\":14015:14248   */\n    tag_87:\n        /* \"#utility.yul\":14054:14057   */\n      0x00\n        /* \"#utility.yul\":14077:14101   */\n      tag_296\n        /* \"#utility.yul\":14095:14100   */\n      dup3\n        /* \"#utility.yul\":14077:14101   */\n      tag_137\n      jump\t// in\n    tag_296:\n        /* \"#utility.yul\":14068:14101   */\n      swap2\n      pop\n        /* \"#utility.yul\":14123:14189   */\n      0xffffffffffffffffffffffffffffffffffffffffffffffffffffffffffffffff\n        /* \"#utility.yul\":14116:14121   */\n      dup3\n        /* \"#utility.yul\":14113:14190   */\n      sub\n        /* \"#utility.yul\":14110:14213   */\n      tag_297\n      jumpi\n        /* \"#utility.yul\":14193:14211   */\n      tag_298\n      tag_171\n      jump\t// in\n    tag_298:\n        /* \"#utility.yul\":14110:14213   */\n    tag_297:\n        /* \"#utility.yul\":14240:14241   */\n      0x01\n        /* \"#utility.yul\":14233:14238   */\n      dup3\n        /* \"#utility.yul\":14229:14242   */\n      add\n        /* \"#utility.yul\":14222:14242   */\n      swap1\n      pop\n        /* \"#utility.yul\":14015:14248   */\n      swap2\n      swap1\n      pop\n      jump\t// out\n        /* \"#utility.yul\":14254:14435   */\n    tag_172:\n        /* \"#utility.yul\":14394:14427   */\n      0x4c6f747465727920656e642074696d65206861736e2774207265616368656400\n        /* \"#utility.yul\":14390:14391   */\n      0x00\n        /* \"#utility.yul\":14382:14388   */\n      dup3\n        /* \"#utility.yul\":14378:14392   */\n      add\n        /* \"#utility.yul\":14371:14428   */\n      mstore\n        /* \"#utility.yul\":14254:14435   */\n      pop\n      jump\t// out\n        /* \"#utility.yul\":14441:14807   */\n    tag_173:\n        /* \"#utility.yul\":14583:14586   */\n      0x00\n        /* \"#utility.yul\":14604:14671   */\n      tag_301\n        /* \"#utility.yul\":14668:14670   */\n      0x1f\n        /* \"#utility.yul\":14663:14666   */\n      dup4\n        /* \"#utility.yul\":14604:14671   */\n      tag_166\n      jump\t// in\n    tag_301:\n        /* \"#utility.yul\":14597:14671   */\n      swap2\n      pop\n        /* \"#utility.yul\":14680:14773   */\n      tag_302\n        /* \"#utility.yul\":14769:14772   */\n      dup3\n        /* \"#utility.yul\":14680:14773   */\n      tag_172\n      jump\t// in\n    tag_302:\n        /* \"#utility.yul\":14798:14800   */\n      0x20\n        /* \"#utility.yul\":14793:14796   */\n      dup3\n        /* \"#utility.yul\":14789:14801   */\n      add\n        /* \"#utility.yul\":14782:14801   */\n      swap1\n      pop\n        /* \"#utility.yul\":14441:14807   */\n      swap2\n      swap1\n      pop\n      jump\t// out\n        /* \"#utility.yul\":14813:15232   */\n    tag_93:\n        /* \"#utility.yul\":14979:14983   */\n      0x00\n        /* \"#utility.yul\":15017:15019   */\n      0x20\n        /* \"#utility.yul\":15006:15015   */\n      dup3\n        /* \"#utility.yul\":15002:15020   */\n      add\n        /* \"#utility.yul\":14994:15020   */\n      swap1\n      pop\n        /* \"#utility.yul\":15066:15075   */\n      dup2\n        /* \"#utility.yul\":15060:15064   */\n      dup2\n        /* \"#utility.yul\":15056:15076   */\n      sub\n        /* \"#utility.yul\":15052:15053   */\n      0x00\n        /* \"#utility.yul\":15041:15050   */\n      dup4\n        /* \"#utility.yul\":15037:15054   */\n      add\n        /* \"#utility.yul\":15030:15077   */\n      mstore\n        /* \"#utility.yul\":15094:15225   */\n      tag_304\n        /* \"#utility.yul\":15220:15224   */\n      dup2\n        /* \"#utility.yul\":15094:15225   */\n      tag_173\n      jump\t// in\n    tag_304:\n        /* \"#utility.yul\":15086:15225   */\n      swap1\n      pop\n        /* \"#utility.yul\":14813:15232   */\n      swap2\n      swap1\n      pop\n      jump\t// out\n        /* \"#utility.yul\":15238:15364   */\n    tag_174:\n        /* \"#utility.yul\":15333:15357   */\n      tag_306\n        /* \"#utility.yul\":15351:15356   */\n      dup2\n        /* \"#utility.yul\":15333:15357   */\n      tag_158\n      jump\t// in\n    tag_306:\n        /* \"#utility.yul\":15328:15331   */\n      dup3\n        /* \"#utility.yul\":15321:15358   */\n      mstore\n        /* \"#utility.yul\":15238:15364   */\n      pop\n      pop\n      jump\t// out\n        /* \"#utility.yul\":15370:15608   */\n    tag_95:\n        /* \"#utility.yul\":15471:15475   */\n      0x00\n        /* \"#utility.yul\":15509:15511   */\n      0x20\n        /* \"#utility.yul\":15498:15507   */\n      dup3\n        /* \"#utility.yul\":15494:15512   */\n      add\n        /* \"#utility.yul\":15486:15512   */\n      swap1\n      pop\n        /* \"#utility.yul\":15522:15601   */\n      tag_308\n        /* \"#utility.yul\":15598:15599   */\n      0x00\n        /* \"#utility.yul\":15587:15596   */\n      dup4\n        /* \"#utility.yul\":15583:15600   */\n      add\n        /* \"#utility.yul\":15574:15580   */\n      dup5\n        /* \"#utility.yul\":15522:15601   */\n      tag_174\n      jump\t// in\n    tag_308:\n        /* \"#utility.yul\":15370:15608   */\n      swap3\n      swap2\n      pop\n      pop\n      jump\t// out\n        /* \"#utility.yul\":15614:15757   */\n    tag_175:\n        /* \"#utility.yul\":15671:15676   */\n      0x00\n        /* \"#utility.yul\":15702:15708   */\n      dup2\n        /* \"#utility.yul\":15696:15709   */\n      mload\n        /* \"#utility.yul\":15687:15709   */\n      swap1\n      pop\n        /* \"#utility.yul\":15718:15751   */\n      tag_310\n        /* \"#utility.yul\":15745:15750   */\n      dup2\n        /* \"#utility.yul\":15718:15751   */\n      tag_163\n      jump\t// in\n    tag_310:\n        /* \"#utility.yul\":15614:15757   */\n      swap3\n      swap2\n      pop\n      pop\n      jump\t// out\n        /* \"#utility.yul\":15763:16114   */\n    tag_99:\n        /* \"#utility.yul\":15833:15839   */\n      0x00\n        /* \"#utility.yul\":15882:15884   */\n      0x20\n        /* \"#utility.yul\":15870:15879   */\n      dup3\n        /* \"#utility.yul\":15861:15868   */\n      dup5\n        /* \"#utility.yul\":15857:15880   */\n      sub\n        /* \"#utility.yul\":15853:15885   */\n      slt\n        /* \"#utility.yul\":15850:15969   */\n      iszero\n      tag_312\n      jumpi\n        /* \"#utility.yul\":15888:15967   */\n      tag_313\n      tag_161\n      jump\t// in\n    tag_313:\n        /* \"#utility.yul\":15850:15969   */\n    tag_312:\n        /* \"#utility.yul\":16008:16009   */\n      0x00\n        /* \"#utility.yul\":16033:16097   */\n      tag_314\n        /* \"#utility.yul\":16089:16096   */\n      dup5\n        /* \"#utility.yul\":16080:16086   */\n      dup3\n        /* \"#utility.yul\":16069:16078   */\n      dup6\n        /* \"#utility.yul\":16065:16087   */\n      add\n        /* \"#utility.yul\":16033:16097   */\n      tag_175\n      jump\t// in\n    tag_314:\n        /* \"#utility.yul\":16023:16097   */\n      swap2\n      pop\n        /* \"#utility.yul\":15979:16107   */\n      pop\n        /* \"#utility.yul\":15763:16114   */\n      swap3\n      swap2\n      pop\n      pop\n      jump\t// out\n        /* \"#utility.yul\":16120:16300   */\n    tag_176:\n        /* \"#utility.yul\":16168:16245   */\n      0x4e487b7100000000000000000000000000000000000000000000000000000000\n        /* \"#utility.yul\":16165:16166   */\n      0x00\n        /* \"#utility.yul\":16158:16246   */\n      mstore\n        /* \"#utility.yul\":16265:16269   */\n      0x12\n        /* \"#utility.yul\":16262:16263   */\n      0x04\n        /* \"#utility.yul\":16255:16270   */\n      mstore\n        /* \"#utility.yul\":16289:16293   */\n      0x24\n        /* \"#utility.yul\":16286:16287   */\n      0x00\n        /* \"#utility.yul\":16279:16294   */\n      revert\n        /* \"#utility.yul\":16306:16482   */\n    tag_101:\n        /* \"#utility.yul\":16338:16339   */\n      0x00\n        /* \"#utility.yul\":16355:16375   */\n      tag_317\n        /* \"#utility.yul\":16373:16374   */\n      dup3\n        /* \"#utility.yul\":16355:16375   */\n      tag_137\n      jump\t// in\n    tag_317:\n        /* \"#utility.yul\":16350:16375   */\n      swap2\n      pop\n        /* \"#utility.yul\":16389:16409   */\n      tag_318\n        /* \"#utility.yul\":16407:16408   */\n      dup4\n        /* \"#utility.yul\":16389:16409   */\n      tag_137\n      jump\t// in\n    tag_318:\n        /* \"#utility.yul\":16384:16409   */\n      swap3\n      pop\n        /* \"#utility.yul\":16428:16429   */\n      dup3\n        /* \"#utility.yul\":16418:16453   */\n      tag_319\n      jumpi\n        /* \"#utility.yul\":16433:16451   */\n      tag_320\n      tag_176\n      jump\t// in\n    tag_320:\n        /* \"#utility.yul\":16418:16453   */\n    tag_319:\n        /* \"#utility.yul\":16474:16475   */\n      dup3\n        /* \"#utility.yul\":16471:16472   */\n      dup3\n        /* \"#utility.yul\":16467:16476   */\n      mod\n        /* \"#utility.yul\":16462:16476   */\n      swap1\n      pop\n        /* \"#utility.yul\":16306:16482   */\n      swap3\n      swap2\n      pop\n      pop\n      jump\t// out\n\n    auxdata: 0xa2646970667358221220926d77f18c7a9271c66edd8a7ac0b69aaed8cafea4b80403e07baaf21084c03a64736f6c63430008120033\n}\n",
				"bytecode": {
					"linkReferences": {
						"contracts/Helper.sol": {
							"Helper": [
								{
									"length": 20,
									"start": 2161
								}
							]
						}
					},
					"object": "60806040523480156200001157600080fd5b50604051620016d3380380620016d3833981810160405281019062000037919062000131565b60788110156200007e576040517f08c379a0000000000000000000000000000000000000000000000000000000008152600401620000759062000214565b60405180910390fd5b336000806101000a81548173ffffffffffffffffffffffffffffffffffffffff021916908373ffffffffffffffffffffffffffffffffffffffff16021790555082600381905550816004819055508042620000da919062000265565b6005819055506001600281905550505050620002a0565b600080fd5b6000819050919050565b6200010b81620000f6565b81146200011757600080fd5b50565b6000815190506200012b8162000100565b92915050565b6000806000606084860312156200014d576200014c620000f1565b5b60006200015d868287016200011a565b935050602062000170868287016200011a565b925050604062000183868287016200011a565b9150509250925092565b600082825260208201905092915050565b7f456e6420446174652073686f756c6420626520657175616c20746f206f72206d60008201527f6f7265207468616e2032206d696e000000000000000000000000000000000000602082015250565b6000620001fc602e836200018d565b915062000209826200019e565b604082019050919050565b600060208201905081810360008301526200022f81620001ed565b9050919050565b7f4e487b7100000000000000000000000000000000000000000000000000000000600052601160045260246000fd5b60006200027282620000f6565b91506200027f83620000f6565b92508282019050808211156200029a576200029962000236565b5b92915050565b61142380620002b06000396000f3fe60806040526004361061007b5760003560e01c80635d495aea1161004e5780635d495aea1461010b5780638b5b9ccc146101225780638da5cb5b1461014d578063992f7db3146101785761007b565b806312065fe0146100805780631aa3a008146100ab5780633149c427146100b55780633197cbb6146100e0575b600080fd5b34801561008c57600080fd5b506100956101b5565b6040516100a29190610c2c565b60405180910390f35b6100b36101bd565b005b3480156100c157600080fd5b506100ca61033c565b6040516100d79190610e58565b60405180910390f35b3480156100ec57600080fd5b506100f5610514565b6040516101029190610c2c565b60405180910390f35b34801561011757600080fd5b5061012061051a565b005b34801561012e57600080fd5b50610137610968565b6040516101449190610ee9565b60405180910390f35b34801561015957600080fd5b506101626109f6565b60405161016f9190610f2c565b60405180910390f35b34801561018457600080fd5b5061019f600480360381019061019a9190610f78565b610a1a565b6040516101ac9190610ff5565b60405180910390f35b600047905090565b6004543411610201576040517f08c379a00000000000000000000000000000000000000000000000000000000081526004016101f89061109a565b60405180910390fd5b600060035411610246576040517f08c379a000000000000000000000000000000000000000000000000000000000815260040161023d90611106565b60405180910390fd5b6001808054905011801561025b575060055442115b156102a157426005546040517fc7d7c4cf000000000000000000000000000000000000000000000000000000008152600401610298929190611126565b60405180910390fd5b6005544211156102bf576078426102b8919061117e565b6005819055505b6001339080600181540180825580915050600190039060005260206000200160009091909190916101000a81548173ffffffffffffffffffffffffffffffffffffffff021916908373ffffffffffffffffffffffffffffffffffffffff16021790555060036000815480929190610335906111b2565b9190505550565b60606000600160025461034f91906111db565b67ffffffffffffffff8111156103685761036761120f565b5b6040519080825280602002602001820160405280156103a157816020015b61038e610b35565b8152602001906001900390816103865790505b50905060005b60016002546103b691906111db565b81101561050c576000600660006001846103d0919061117e565b81526020019081526020016000206040518060600160405290816000820160009054906101000a900473ffffffffffffffffffffffffffffffffffffffff1673ffffffffffffffffffffffffffffffffffffffff1673ffffffffffffffffffffffffffffffffffffffff16815260200160018201548152602001600282018054806020026020016040519081016040528092919081815260200182805480156104ce57602002820191906000526020600020905b8160009054906101000a900473ffffffffffffffffffffffffffffffffffffffff1673ffffffffffffffffffffffffffffffffffffffff1681526020019060010190808311610484575b5050505050815250509050808383815181106104ed576104ec61123e565b5b60200260200101819052505080806105049061126d565b9150506103a7565b508091505090565b60055481565b60008054906101000a900473ffffffffffffffffffffffffffffffffffffffff1673ffffffffffffffffffffffffffffffffffffffff163373ffffffffffffffffffffffffffffffffffffffff161461057257600080fd5b6005544210156105b7576040517f08c379a00000000000000000000000000000000000000000000000000000000081526004016105ae90611301565b60405180910390fd5b600060018054905073__$94f2638c50c931a3cfe8bd2b41dc7eef46$__63e873743660008054906101000a900473ffffffffffffffffffffffffffffffffffffffff166040518263ffffffff1660e01b81526004016106169190611330565b602060405180830381865af4158015610633573d6000803e3d6000fd5b505050506040513d601f19601f820116820180604052508101906106579190611360565b61066191906113bc565b905060003073ffffffffffffffffffffffffffffffffffffffff166312065fe06040518163ffffffff1660e01b8152600401602060405180830381865afa1580156106b0573d6000803e3d6000fd5b505050506040513d601f19601f820116820180604052508101906106d49190611360565b9050600182815481106106ea576106e961123e565b5b9060005260206000200160009054906101000a900473ffffffffffffffffffffffffffffffffffffffff1673ffffffffffffffffffffffffffffffffffffffff166108fc829081150290604051600060405180830381858888f1935050505015801561075a573d6000803e3d6000fd5b5060405180606001604052806001848154811061077a5761077961123e565b5b9060005260206000200160009054906101000a900473ffffffffffffffffffffffffffffffffffffffff1673ffffffffffffffffffffffffffffffffffffffff168152602001828152602001600180548060200260200160405190810160405280929190818152602001828054801561084857602002820191906000526020600020905b8160009054906101000a900473ffffffffffffffffffffffffffffffffffffffff1673ffffffffffffffffffffffffffffffffffffffff16815260200190600101908083116107fe575b505050505081525060066000600260008154809291906108679061126d565b91905055815260200190815260200160002060008201518160000160006101000a81548173ffffffffffffffffffffffffffffffffffffffff021916908373ffffffffffffffffffffffffffffffffffffffff1602179055506020820151816001015560408201518160020190805190602001906108e6929190610b6c565b50905050600067ffffffffffffffff8111156109055761090461120f565b5b6040519080825280602002602001820160405280156109335781602001602082028036833780820191505090505b5060019080519060200190610949929190610b6c565b50607842610957919061117e565b600581905550600380819055505050565b606060018054806020026020016040519081016040528092919081815260200182805480156109ec57602002820191906000526020600020905b8160009054906101000a900473ffffffffffffffffffffffffffffffffffffffff1673ffffffffffffffffffffffffffffffffffffffff16815260200190600101908083116109a2575b5050505050905090565b60008054906101000a900473ffffffffffffffffffffffffffffffffffffffff1681565b610a22610b35565b600660008381526020019081526020016000206040518060600160405290816000820160009054906101000a900473ffffffffffffffffffffffffffffffffffffffff1673ffffffffffffffffffffffffffffffffffffffff1673ffffffffffffffffffffffffffffffffffffffff1681526020016001820154815260200160028201805480602002602001604051908101604052809291908181526020018280548015610b2557602002820191906000526020600020905b8160009054906101000a900473ffffffffffffffffffffffffffffffffffffffff1673ffffffffffffffffffffffffffffffffffffffff1681526020019060010190808311610adb575b5050505050815250509050919050565b6040518060600160405280600073ffffffffffffffffffffffffffffffffffffffff16815260200160008152602001606081525090565b828054828255906000526020600020908101928215610be5579160200282015b82811115610be45782518260006101000a81548173ffffffffffffffffffffffffffffffffffffffff021916908373ffffffffffffffffffffffffffffffffffffffff16021790555091602001919060010190610b8c565b5b509050610bf29190610bf6565b5090565b5b80821115610c0f576000816000905550600101610bf7565b5090565b6000819050919050565b610c2681610c13565b82525050565b6000602082019050610c416000830184610c1d565b92915050565b600081519050919050565b600082825260208201905092915050565b6000819050602082019050919050565b600073ffffffffffffffffffffffffffffffffffffffff82169050919050565b6000610c9e82610c73565b9050919050565b610cae81610c93565b82525050565b610cbd81610c13565b82525050565b600081519050919050565b600082825260208201905092915050565b6000819050602082019050919050565b6000610cfb8383610ca5565b60208301905092915050565b6000602082019050919050565b6000610d1f82610cc3565b610d298185610cce565b9350610d3483610cdf565b8060005b83811015610d65578151610d4c8882610cef565b9750610d5783610d07565b925050600181019050610d38565b5085935050505092915050565b6000606083016000830151610d8a6000860182610ca5565b506020830151610d9d6020860182610cb4565b5060408301518482036040860152610db58282610d14565b9150508091505092915050565b6000610dce8383610d72565b905092915050565b6000602082019050919050565b6000610dee82610c47565b610df88185610c52565b935083602082028501610e0a85610c63565b8060005b85811015610e465784840389528151610e278582610dc2565b9450610e3283610dd6565b925060208a01995050600181019050610e0e565b50829750879550505050505092915050565b60006020820190508181036000830152610e728184610de3565b905092915050565b600082825260208201905092915050565b6000610e9682610cc3565b610ea08185610e7a565b9350610eab83610cdf565b8060005b83811015610edc578151610ec38882610cef565b9750610ece83610d07565b925050600181019050610eaf565b5085935050505092915050565b60006020820190508181036000830152610f038184610e8b565b905092915050565b6000610f1682610c73565b9050919050565b610f2681610f0b565b82525050565b6000602082019050610f416000830184610f1d565b92915050565b600080fd5b610f5581610c13565b8114610f6057600080fd5b50565b600081359050610f7281610f4c565b92915050565b600060208284031215610f8e57610f8d610f47565b5b6000610f9c84828501610f63565b91505092915050565b6000606083016000830151610fbd6000860182610ca5565b506020830151610fd06020860182610cb4565b5060408301518482036040860152610fe88282610d14565b9150508091505092915050565b6000602082019050818103600083015261100f8184610fa5565b905092915050565b600082825260208201905092915050565b7f416d6f756e7420746f6f206c6f7720746f207075726368617365207469636b6560008201527f7400000000000000000000000000000000000000000000000000000000000000602082015250565b6000611084602183611017565b915061108f82611028565b604082019050919050565b600060208201905081810360008301526110b381611077565b9050919050565b7f5469636b6574732061726520736f6c64206f7574000000000000000000000000600082015250565b60006110f0601483611017565b91506110fb826110ba565b602082019050919050565b6000602082019050818103600083015261111f816110e3565b9050919050565b600060408201905061113b6000830185610c1d565b6111486020830184610c1d565b9392505050565b7f4e487b7100000000000000000000000000000000000000000000000000000000600052601160045260246000fd5b600061118982610c13565b915061119483610c13565b92508282019050808211156111ac576111ab61114f565b5b92915050565b60006111bd82610c13565b9150600082036111d0576111cf61114f565b5b600182039050919050565b60006111e682610c13565b91506111f183610c13565b92508282039050818111156112095761120861114f565b5b92915050565b7f4e487b7100000000000000000000000000000000000000000000000000000000600052604160045260246000fd5b7f4e487b7100000000000000000000000000000000000000000000000000000000600052603260045260246000fd5b600061127882610c13565b91507fffffffffffffffffffffffffffffffffffffffffffffffffffffffffffffffff82036112aa576112a961114f565b5b600182019050919050565b7f4c6f747465727920656e642074696d65206861736e2774207265616368656400600082015250565b60006112eb601f83611017565b91506112f6826112b5565b602082019050919050565b6000602082019050818103600083015261131a816112de565b9050919050565b61132a81610f0b565b82525050565b60006020820190506113456000830184611321565b92915050565b60008151905061135a81610f4c565b92915050565b60006020828403121561137657611375610f47565b5b60006113848482850161134b565b91505092915050565b7f4e487b7100000000000000000000000000000000000000000000000000000000600052601260045260246000fd5b60006113c782610c13565b91506113d283610c13565b9250826113e2576113e161138d565b5b82820690509291505056fea2646970667358221220926d77f18c7a9271c66edd8a7ac0b69aaed8cafea4b80403e07baaf21084c03a64736f6c63430008120033",
					"opcodes": "PUSH1 0x80 PUSH1 0x40 MSTORE CALLVALUE DUP1 ISZERO PUSH3 0x11 JUMPI PUSH1 0x0 DUP1 REVERT JUMPDEST POP PUSH1 0x40 MLOAD PUSH3 0x16D3 CODESIZE SUB DUP1 PUSH3 0x16D3 DUP4 CODECOPY DUP2 DUP2 ADD PUSH1 0x40 MSTORE DUP2 ADD SWAP1 PUSH3 0x37 SWAP2 SWAP1 PUSH3 0x131 JUMP JUMPDEST PUSH1 0x78 DUP2 LT ISZERO PUSH3 0x7E JUMPI PUSH1 0x40 MLOAD PUSH32 0x8C379A000000000000000000000000000000000000000000000000000000000 DUP2 MSTORE PUSH1 0x4 ADD PUSH3 0x75 SWAP1 PUSH3 0x214 JUMP JUMPDEST PUSH1 0x40 MLOAD DUP1 SWAP2 SUB SWAP1 REVERT JUMPDEST CALLER PUSH1 0x0 DUP1 PUSH2 0x100 EXP DUP2 SLOAD DUP2 PUSH20 0xFFFFFFFFFFFFFFFFFFFFFFFFFFFFFFFFFFFFFFFF MUL NOT AND SWAP1 DUP4 PUSH20 0xFFFFFFFFFFFFFFFFFFFFFFFFFFFFFFFFFFFFFFFF AND MUL OR SWAP1 SSTORE POP DUP3 PUSH1 0x3 DUP2 SWAP1 SSTORE POP DUP2 PUSH1 0x4 DUP2 SWAP1 SSTORE POP DUP1 TIMESTAMP PUSH3 0xDA SWAP2 SWAP1 PUSH3 0x265 JUMP JUMPDEST PUSH1 0x5 DUP2 SWAP1 SSTORE POP PUSH1 0x1 PUSH1 0x2 DUP2 SWAP1 SSTORE POP POP POP POP PUSH3 0x2A0 JUMP JUMPDEST PUSH1 0x0 DUP1 REVERT JUMPDEST PUSH1 0x0 DUP2 SWAP1 POP SWAP2 SWAP1 POP JUMP JUMPDEST PUSH3 0x10B DUP2 PUSH3 0xF6 JUMP JUMPDEST DUP2 EQ PUSH3 0x117 JUMPI PUSH1 0x0 DUP1 REVERT JUMPDEST POP JUMP JUMPDEST PUSH1 0x0 DUP2 MLOAD SWAP1 POP PUSH3 0x12B DUP2 PUSH3 0x100 JUMP JUMPDEST SWAP3 SWAP2 POP POP JUMP JUMPDEST PUSH1 0x0 DUP1 PUSH1 0x0 PUSH1 0x60 DUP5 DUP7 SUB SLT ISZERO PUSH3 0x14D JUMPI PUSH3 0x14C PUSH3 0xF1 JUMP JUMPDEST JUMPDEST PUSH1 0x0 PUSH3 0x15D DUP7 DUP3 DUP8 ADD PUSH3 0x11A JUMP JUMPDEST SWAP4 POP POP PUSH1 0x20 PUSH3 0x170 DUP7 DUP3 DUP8 ADD PUSH3 0x11A JUMP JUMPDEST SWAP3 POP POP PUSH1 0x40 PUSH3 0x183 DUP7 DUP3 DUP8 ADD PUSH3 0x11A JUMP JUMPDEST SWAP2 POP POP SWAP3 POP SWAP3 POP SWAP3 JUMP JUMPDEST PUSH1 0x0 DUP3 DUP3 MSTORE PUSH1 0x20 DUP3 ADD SWAP1 POP SWAP3 SWAP2 POP POP JUMP JUMPDEST PUSH32 0x456E6420446174652073686F756C6420626520657175616C20746F206F72206D PUSH1 0x0 DUP3 ADD MSTORE PUSH32 0x6F7265207468616E2032206D696E000000000000000000000000000000000000 PUSH1 0x20 DUP3 ADD MSTORE POP JUMP JUMPDEST PUSH1 0x0 PUSH3 0x1FC PUSH1 0x2E DUP4 PUSH3 0x18D JUMP JUMPDEST SWAP2 POP PUSH3 0x209 DUP3 PUSH3 0x19E JUMP JUMPDEST PUSH1 0x40 DUP3 ADD SWAP1 POP SWAP2 SWAP1 POP JUMP JUMPDEST PUSH1 0x0 PUSH1 0x20 DUP3 ADD SWAP1 POP DUP2 DUP2 SUB PUSH1 0x0 DUP4 ADD MSTORE PUSH3 0x22F DUP2 PUSH3 0x1ED JUMP JUMPDEST SWAP1 POP SWAP2 SWAP1 POP JUMP JUMPDEST PUSH32 0x4E487B7100000000000000000000000000000000000000000000000000000000 PUSH1 0x0 MSTORE PUSH1 0x11 PUSH1 0x4 MSTORE PUSH1 0x24 PUSH1 0x0 REVERT JUMPDEST PUSH1 0x0 PUSH3 0x272 DUP3 PUSH3 0xF6 JUMP JUMPDEST SWAP2 POP PUSH3 0x27F DUP4 PUSH3 0xF6 JUMP JUMPDEST SWAP3 POP DUP3 DUP3 ADD SWAP1 POP DUP1 DUP3 GT ISZERO PUSH3 0x29A JUMPI PUSH3 0x299 PUSH3 0x236 JUMP JUMPDEST JUMPDEST SWAP3 SWAP2 POP POP JUMP JUMPDEST PUSH2 0x1423 DUP1 PUSH3 0x2B0 PUSH1 0x0 CODECOPY PUSH1 0x0 RETURN INVALID PUSH1 0x80 PUSH1 0x40 MSTORE PUSH1 0x4 CALLDATASIZE LT PUSH2 0x7B JUMPI PUSH1 0x0 CALLDATALOAD PUSH1 0xE0 SHR DUP1 PUSH4 0x5D495AEA GT PUSH2 0x4E JUMPI DUP1 PUSH4 0x5D495AEA EQ PUSH2 0x10B JUMPI DUP1 PUSH4 0x8B5B9CCC EQ PUSH2 0x122 JUMPI DUP1 PUSH4 0x8DA5CB5B EQ PUSH2 0x14D JUMPI DUP1 PUSH4 0x992F7DB3 EQ PUSH2 0x178 JUMPI PUSH2 0x7B JUMP JUMPDEST DUP1 PUSH4 0x12065FE0 EQ PUSH2 0x80 JUMPI DUP1 PUSH4 0x1AA3A008 EQ PUSH2 0xAB JUMPI DUP1 PUSH4 0x3149C427 EQ PUSH2 0xB5 JUMPI DUP1 PUSH4 0x3197CBB6 EQ PUSH2 0xE0 JUMPI JUMPDEST PUSH1 0x0 DUP1 REVERT JUMPDEST CALLVALUE DUP1 ISZERO PUSH2 0x8C JUMPI PUSH1 0x0 DUP1 REVERT JUMPDEST POP PUSH2 0x95 PUSH2 0x1B5 JUMP JUMPDEST PUSH1 0x40 MLOAD PUSH2 0xA2 SWAP2 SWAP1 PUSH2 0xC2C JUMP JUMPDEST PUSH1 0x40 MLOAD DUP1 SWAP2 SUB SWAP1 RETURN JUMPDEST PUSH2 0xB3 PUSH2 0x1BD JUMP JUMPDEST STOP JUMPDEST CALLVALUE DUP1 ISZERO PUSH2 0xC1 JUMPI PUSH1 0x0 DUP1 REVERT JUMPDEST POP PUSH2 0xCA PUSH2 0x33C JUMP JUMPDEST PUSH1 0x40 MLOAD PUSH2 0xD7 SWAP2 SWAP1 PUSH2 0xE58 JUMP JUMPDEST PUSH1 0x40 MLOAD DUP1 SWAP2 SUB SWAP1 RETURN JUMPDEST CALLVALUE DUP1 ISZERO PUSH2 0xEC JUMPI PUSH1 0x0 DUP1 REVERT JUMPDEST POP PUSH2 0xF5 PUSH2 0x514 JUMP JUMPDEST PUSH1 0x40 MLOAD PUSH2 0x102 SWAP2 SWAP1 PUSH2 0xC2C JUMP JUMPDEST PUSH1 0x40 MLOAD DUP1 SWAP2 SUB SWAP1 RETURN JUMPDEST CALLVALUE DUP1 ISZERO PUSH2 0x117 JUMPI PUSH1 0x0 DUP1 REVERT JUMPDEST POP PUSH2 0x120 PUSH2 0x51A JUMP JUMPDEST STOP JUMPDEST CALLVALUE DUP1 ISZERO PUSH2 0x12E JUMPI PUSH1 0x0 DUP1 REVERT JUMPDEST POP PUSH2 0x137 PUSH2 0x968 JUMP JUMPDEST PUSH1 0x40 MLOAD PUSH2 0x144 SWAP2 SWAP1 PUSH2 0xEE9 JUMP JUMPDEST PUSH1 0x40 MLOAD DUP1 SWAP2 SUB SWAP1 RETURN JUMPDEST CALLVALUE DUP1 ISZERO PUSH2 0x159 JUMPI PUSH1 0x0 DUP1 REVERT JUMPDEST POP PUSH2 0x162 PUSH2 0x9F6 JUMP JUMPDEST PUSH1 0x40 MLOAD PUSH2 0x16F SWAP2 SWAP1 PUSH2 0xF2C JUMP JUMPDEST PUSH1 0x40 MLOAD DUP1 SWAP2 SUB SWAP1 RETURN JUMPDEST CALLVALUE DUP1 ISZERO PUSH2 0x184 JUMPI PUSH1 0x0 DUP1 REVERT JUMPDEST POP PUSH2 0x19F PUSH1 0x4 DUP1 CALLDATASIZE SUB DUP2 ADD SWAP1 PUSH2 0x19A SWAP2 SWAP1 PUSH2 0xF78 JUMP JUMPDEST PUSH2 0xA1A JUMP JUMPDEST PUSH1 0x40 MLOAD PUSH2 0x1AC SWAP2 SWAP1 PUSH2 0xFF5 JUMP JUMPDEST PUSH1 0x40 MLOAD DUP1 SWAP2 SUB SWAP1 RETURN JUMPDEST PUSH1 0x0 SELFBALANCE SWAP1 POP SWAP1 JUMP JUMPDEST PUSH1 0x4 SLOAD CALLVALUE GT PUSH2 0x201 JUMPI PUSH1 0x40 MLOAD PUSH32 0x8C379A000000000000000000000000000000000000000000000000000000000 DUP2 MSTORE PUSH1 0x4 ADD PUSH2 0x1F8 SWAP1 PUSH2 0x109A JUMP JUMPDEST PUSH1 0x40 MLOAD DUP1 SWAP2 SUB SWAP1 REVERT JUMPDEST PUSH1 0x0 PUSH1 0x3 SLOAD GT PUSH2 0x246 JUMPI PUSH1 0x40 MLOAD PUSH32 0x8C379A000000000000000000000000000000000000000000000000000000000 DUP2 MSTORE PUSH1 0x4 ADD PUSH2 0x23D SWAP1 PUSH2 0x1106 JUMP JUMPDEST PUSH1 0x40 MLOAD DUP1 SWAP2 SUB SWAP1 REVERT JUMPDEST PUSH1 0x1 DUP1 DUP1 SLOAD SWAP1 POP GT DUP1 ISZERO PUSH2 0x25B JUMPI POP PUSH1 0x5 SLOAD TIMESTAMP GT JUMPDEST ISZERO PUSH2 0x2A1 JUMPI TIMESTAMP PUSH1 0x5 SLOAD PUSH1 0x40 MLOAD PUSH32 0xC7D7C4CF00000000000000000000000000000000000000000000000000000000 DUP2 MSTORE PUSH1 0x4 ADD PUSH2 0x298 SWAP3 SWAP2 SWAP1 PUSH2 0x1126 JUMP JUMPDEST PUSH1 0x40 MLOAD DUP1 SWAP2 SUB SWAP1 REVERT JUMPDEST PUSH1 0x5 SLOAD TIMESTAMP GT ISZERO PUSH2 0x2BF JUMPI PUSH1 0x78 TIMESTAMP PUSH2 0x2B8 SWAP2 SWAP1 PUSH2 0x117E JUMP JUMPDEST PUSH1 0x5 DUP2 SWAP1 SSTORE POP JUMPDEST PUSH1 0x1 CALLER SWAP1 DUP1 PUSH1 0x1 DUP2 SLOAD ADD DUP1 DUP3 SSTORE DUP1 SWAP2 POP POP PUSH1 0x1 SWAP1 SUB SWAP1 PUSH1 0x0 MSTORE PUSH1 0x20 PUSH1 0x0 KECCAK256 ADD PUSH1 0x0 SWAP1 SWAP2 SWAP1 SWAP2 SWAP1 SWAP2 PUSH2 0x100 EXP DUP2 SLOAD DUP2 PUSH20 0xFFFFFFFFFFFFFFFFFFFFFFFFFFFFFFFFFFFFFFFF MUL NOT AND SWAP1 DUP4 PUSH20 0xFFFFFFFFFFFFFFFFFFFFFFFFFFFFFFFFFFFFFFFF AND MUL OR SWAP1 SSTORE POP PUSH1 0x3 PUSH1 0x0 DUP2 SLOAD DUP1 SWAP3 SWAP2 SWAP1 PUSH2 0x335 SWAP1 PUSH2 0x11B2 JUMP JUMPDEST SWAP2 SWAP1 POP SSTORE POP JUMP JUMPDEST PUSH1 0x60 PUSH1 0x0 PUSH1 0x1 PUSH1 0x2 SLOAD PUSH2 0x34F SWAP2 SWAP1 PUSH2 0x11DB JUMP JUMPDEST PUSH8 0xFFFFFFFFFFFFFFFF DUP2 GT ISZERO PUSH2 0x368 JUMPI PUSH2 0x367 PUSH2 0x120F JUMP JUMPDEST JUMPDEST PUSH1 0x40 MLOAD SWAP1 DUP1 DUP3 MSTORE DUP1 PUSH1 0x20 MUL PUSH1 0x20 ADD DUP3 ADD PUSH1 0x40 MSTORE DUP1 ISZERO PUSH2 0x3A1 JUMPI DUP2 PUSH1 0x20 ADD JUMPDEST PUSH2 0x38E PUSH2 0xB35 JUMP JUMPDEST DUP2 MSTORE PUSH1 0x20 ADD SWAP1 PUSH1 0x1 SWAP1 SUB SWAP1 DUP2 PUSH2 0x386 JUMPI SWAP1 POP JUMPDEST POP SWAP1 POP PUSH1 0x0 JUMPDEST PUSH1 0x1 PUSH1 0x2 SLOAD PUSH2 0x3B6 SWAP2 SWAP1 PUSH2 0x11DB JUMP JUMPDEST DUP2 LT ISZERO PUSH2 0x50C JUMPI PUSH1 0x0 PUSH1 0x6 PUSH1 0x0 PUSH1 0x1 DUP5 PUSH2 0x3D0 SWAP2 SWAP1 PUSH2 0x117E JUMP JUMPDEST DUP2 MSTORE PUSH1 0x20 ADD SWAP1 DUP2 MSTORE PUSH1 0x20 ADD PUSH1 0x0 KECCAK256 PUSH1 0x40 MLOAD DUP1 PUSH1 0x60 ADD PUSH1 0x40 MSTORE SWAP1 DUP2 PUSH1 0x0 DUP3 ADD PUSH1 0x0 SWAP1 SLOAD SWAP1 PUSH2 0x100 EXP SWAP1 DIV PUSH20 0xFFFFFFFFFFFFFFFFFFFFFFFFFFFFFFFFFFFFFFFF AND PUSH20 0xFFFFFFFFFFFFFFFFFFFFFFFFFFFFFFFFFFFFFFFF AND PUSH20 0xFFFFFFFFFFFFFFFFFFFFFFFFFFFFFFFFFFFFFFFF AND DUP2 MSTORE PUSH1 0x20 ADD PUSH1 0x1 DUP3 ADD SLOAD DUP2 MSTORE PUSH1 0x20 ADD PUSH1 0x2 DUP3 ADD DUP1 SLOAD DUP1 PUSH1 0x20 MUL PUSH1 0x20 ADD PUSH1 0x40 MLOAD SWAP1 DUP2 ADD PUSH1 0x40 MSTORE DUP1 SWAP3 SWAP2 SWAP1 DUP2 DUP2 MSTORE PUSH1 0x20 ADD DUP3 DUP1 SLOAD DUP1 ISZERO PUSH2 0x4CE JUMPI PUSH1 0x20 MUL DUP3 ADD SWAP2 SWAP1 PUSH1 0x0 MSTORE PUSH1 0x20 PUSH1 0x0 KECCAK256 SWAP1 JUMPDEST DUP2 PUSH1 0x0 SWAP1 SLOAD SWAP1 PUSH2 0x100 EXP SWAP1 DIV PUSH20 0xFFFFFFFFFFFFFFFFFFFFFFFFFFFFFFFFFFFFFFFF AND PUSH20 0xFFFFFFFFFFFFFFFFFFFFFFFFFFFFFFFFFFFFFFFF AND DUP2 MSTORE PUSH1 0x20 ADD SWAP1 PUSH1 0x1 ADD SWAP1 DUP1 DUP4 GT PUSH2 0x484 JUMPI JUMPDEST POP POP POP POP POP DUP2 MSTORE POP POP SWAP1 POP DUP1 DUP4 DUP4 DUP2 MLOAD DUP2 LT PUSH2 0x4ED JUMPI PUSH2 0x4EC PUSH2 0x123E JUMP JUMPDEST JUMPDEST PUSH1 0x20 MUL PUSH1 0x20 ADD ADD DUP2 SWAP1 MSTORE POP POP DUP1 DUP1 PUSH2 0x504 SWAP1 PUSH2 0x126D JUMP JUMPDEST SWAP2 POP POP PUSH2 0x3A7 JUMP JUMPDEST POP DUP1 SWAP2 POP POP SWAP1 JUMP JUMPDEST PUSH1 0x5 SLOAD DUP2 JUMP JUMPDEST PUSH1 0x0 DUP1 SLOAD SWAP1 PUSH2 0x100 EXP SWAP1 DIV PUSH20 0xFFFFFFFFFFFFFFFFFFFFFFFFFFFFFFFFFFFFFFFF AND PUSH20 0xFFFFFFFFFFFFFFFFFFFFFFFFFFFFFFFFFFFFFFFF AND CALLER PUSH20 0xFFFFFFFFFFFFFFFFFFFFFFFFFFFFFFFFFFFFFFFF AND EQ PUSH2 0x572 JUMPI PUSH1 0x0 DUP1 REVERT JUMPDEST PUSH1 0x5 SLOAD TIMESTAMP LT ISZERO PUSH2 0x5B7 JUMPI PUSH1 0x40 MLOAD PUSH32 0x8C379A000000000000000000000000000000000000000000000000000000000 DUP2 MSTORE PUSH1 0x4 ADD PUSH2 0x5AE SWAP1 PUSH2 0x1301 JUMP JUMPDEST PUSH1 0x40 MLOAD DUP1 SWAP2 SUB SWAP1 REVERT JUMPDEST PUSH1 0x0 PUSH1 0x1 DUP1 SLOAD SWAP1 POP PUSH20 0x0 PUSH4 0xE8737436 PUSH1 0x0 DUP1 SLOAD SWAP1 PUSH2 0x100 EXP SWAP1 DIV PUSH20 0xFFFFFFFFFFFFFFFFFFFFFFFFFFFFFFFFFFFFFFFF AND PUSH1 0x40 MLOAD DUP3 PUSH4 0xFFFFFFFF AND PUSH1 0xE0 SHL DUP2 MSTORE PUSH1 0x4 ADD PUSH2 0x616 SWAP2 SWAP1 PUSH2 0x1330 JUMP JUMPDEST PUSH1 0x20 PUSH1 0x40 MLOAD DUP1 DUP4 SUB DUP2 DUP7 GAS DELEGATECALL ISZERO DUP1 ISZERO PUSH2 0x633 JUMPI RETURNDATASIZE PUSH1 0x0 DUP1 RETURNDATACOPY RETURNDATASIZE PUSH1 0x0 REVERT JUMPDEST POP POP POP POP PUSH1 0x40 MLOAD RETURNDATASIZE PUSH1 0x1F NOT PUSH1 0x1F DUP3 ADD AND DUP3 ADD DUP1 PUSH1 0x40 MSTORE POP DUP2 ADD SWAP1 PUSH2 0x657 SWAP2 SWAP1 PUSH2 0x1360 JUMP JUMPDEST PUSH2 0x661 SWAP2 SWAP1 PUSH2 0x13BC JUMP JUMPDEST SWAP1 POP PUSH1 0x0 ADDRESS PUSH20 0xFFFFFFFFFFFFFFFFFFFFFFFFFFFFFFFFFFFFFFFF AND PUSH4 0x12065FE0 PUSH1 0x40 MLOAD DUP2 PUSH4 0xFFFFFFFF AND PUSH1 0xE0 SHL DUP2 MSTORE PUSH1 0x4 ADD PUSH1 0x20 PUSH1 0x40 MLOAD DUP1 DUP4 SUB DUP2 DUP7 GAS STATICCALL ISZERO DUP1 ISZERO PUSH2 0x6B0 JUMPI RETURNDATASIZE PUSH1 0x0 DUP1 RETURNDATACOPY RETURNDATASIZE PUSH1 0x0 REVERT JUMPDEST POP POP POP POP PUSH1 0x40 MLOAD RETURNDATASIZE PUSH1 0x1F NOT PUSH1 0x1F DUP3 ADD AND DUP3 ADD DUP1 PUSH1 0x40 MSTORE POP DUP2 ADD SWAP1 PUSH2 0x6D4 SWAP2 SWAP1 PUSH2 0x1360 JUMP JUMPDEST SWAP1 POP PUSH1 0x1 DUP3 DUP2 SLOAD DUP2 LT PUSH2 0x6EA JUMPI PUSH2 0x6E9 PUSH2 0x123E JUMP JUMPDEST JUMPDEST SWAP1 PUSH1 0x0 MSTORE PUSH1 0x20 PUSH1 0x0 KECCAK256 ADD PUSH1 0x0 SWAP1 SLOAD SWAP1 PUSH2 0x100 EXP SWAP1 DIV PUSH20 0xFFFFFFFFFFFFFFFFFFFFFFFFFFFFFFFFFFFFFFFF AND PUSH20 0xFFFFFFFFFFFFFFFFFFFFFFFFFFFFFFFFFFFFFFFF AND PUSH2 0x8FC DUP3 SWAP1 DUP2 ISZERO MUL SWAP1 PUSH1 0x40 MLOAD PUSH1 0x0 PUSH1 0x40 MLOAD DUP1 DUP4 SUB DUP2 DUP6 DUP9 DUP9 CALL SWAP4 POP POP POP POP ISZERO DUP1 ISZERO PUSH2 0x75A JUMPI RETURNDATASIZE PUSH1 0x0 DUP1 RETURNDATACOPY RETURNDATASIZE PUSH1 0x0 REVERT JUMPDEST POP PUSH1 0x40 MLOAD DUP1 PUSH1 0x60 ADD PUSH1 0x40 MSTORE DUP1 PUSH1 0x1 DUP5 DUP2 SLOAD DUP2 LT PUSH2 0x77A JUMPI PUSH2 0x779 PUSH2 0x123E JUMP JUMPDEST JUMPDEST SWAP1 PUSH1 0x0 MSTORE PUSH1 0x20 PUSH1 0x0 KECCAK256 ADD PUSH1 0x0 SWAP1 SLOAD SWAP1 PUSH2 0x100 EXP SWAP1 DIV PUSH20 0xFFFFFFFFFFFFFFFFFFFFFFFFFFFFFFFFFFFFFFFF AND PUSH20 0xFFFFFFFFFFFFFFFFFFFFFFFFFFFFFFFFFFFFFFFF AND DUP2 MSTORE PUSH1 0x20 ADD DUP3 DUP2 MSTORE PUSH1 0x20 ADD PUSH1 0x1 DUP1 SLOAD DUP1 PUSH1 0x20 MUL PUSH1 0x20 ADD PUSH1 0x40 MLOAD SWAP1 DUP2 ADD PUSH1 0x40 MSTORE DUP1 SWAP3 SWAP2 SWAP1 DUP2 DUP2 MSTORE PUSH1 0x20 ADD DUP3 DUP1 SLOAD DUP1 ISZERO PUSH2 0x848 JUMPI PUSH1 0x20 MUL DUP3 ADD SWAP2 SWAP1 PUSH1 0x0 MSTORE PUSH1 0x20 PUSH1 0x0 KECCAK256 SWAP1 JUMPDEST DUP2 PUSH1 0x0 SWAP1 SLOAD SWAP1 PUSH2 0x100 EXP SWAP1 DIV PUSH20 0xFFFFFFFFFFFFFFFFFFFFFFFFFFFFFFFFFFFFFFFF AND PUSH20 0xFFFFFFFFFFFFFFFFFFFFFFFFFFFFFFFFFFFFFFFF AND DUP2 MSTORE PUSH1 0x20 ADD SWAP1 PUSH1 0x1 ADD SWAP1 DUP1 DUP4 GT PUSH2 0x7FE JUMPI JUMPDEST POP POP POP POP POP DUP2 MSTORE POP PUSH1 0x6 PUSH1 0x0 PUSH1 0x2 PUSH1 0x0 DUP2 SLOAD DUP1 SWAP3 SWAP2 SWAP1 PUSH2 0x867 SWAP1 PUSH2 0x126D JUMP JUMPDEST SWAP2 SWAP1 POP SSTORE DUP2 MSTORE PUSH1 0x20 ADD SWAP1 DUP2 MSTORE PUSH1 0x20 ADD PUSH1 0x0 KECCAK256 PUSH1 0x0 DUP3 ADD MLOAD DUP2 PUSH1 0x0 ADD PUSH1 0x0 PUSH2 0x100 EXP DUP2 SLOAD DUP2 PUSH20 0xFFFFFFFFFFFFFFFFFFFFFFFFFFFFFFFFFFFFFFFF MUL NOT AND SWAP1 DUP4 PUSH20 0xFFFFFFFFFFFFFFFFFFFFFFFFFFFFFFFFFFFFFFFF AND MUL OR SWAP1 SSTORE POP PUSH1 0x20 DUP3 ADD MLOAD DUP2 PUSH1 0x1 ADD SSTORE PUSH1 0x40 DUP3 ADD MLOAD DUP2 PUSH1 0x2 ADD SWAP1 DUP1 MLOAD SWAP1 PUSH1 0x20 ADD SWAP1 PUSH2 0x8E6 SWAP3 SWAP2 SWAP1 PUSH2 0xB6C JUMP JUMPDEST POP SWAP1 POP POP PUSH1 0x0 PUSH8 0xFFFFFFFFFFFFFFFF DUP2 GT ISZERO PUSH2 0x905 JUMPI PUSH2 0x904 PUSH2 0x120F JUMP JUMPDEST JUMPDEST PUSH1 0x40 MLOAD SWAP1 DUP1 DUP3 MSTORE DUP1 PUSH1 0x20 MUL PUSH1 0x20 ADD DUP3 ADD PUSH1 0x40 MSTORE DUP1 ISZERO PUSH2 0x933 JUMPI DUP2 PUSH1 0x20 ADD PUSH1 0x20 DUP3 MUL DUP1 CALLDATASIZE DUP4 CALLDATACOPY DUP1 DUP3 ADD SWAP2 POP POP SWAP1 POP JUMPDEST POP PUSH1 0x1 SWAP1 DUP1 MLOAD SWAP1 PUSH1 0x20 ADD SWAP1 PUSH2 0x949 SWAP3 SWAP2 SWAP1 PUSH2 0xB6C JUMP JUMPDEST POP PUSH1 0x78 TIMESTAMP PUSH2 0x957 SWAP2 SWAP1 PUSH2 0x117E JUMP JUMPDEST PUSH1 0x5 DUP2 SWAP1 SSTORE POP PUSH1 0x3 DUP1 DUP2 SWAP1 SSTORE POP POP POP JUMP JUMPDEST PUSH1 0x60 PUSH1 0x1 DUP1 SLOAD DUP1 PUSH1 0x20 MUL PUSH1 0x20 ADD PUSH1 0x40 MLOAD SWAP1 DUP2 ADD PUSH1 0x40 MSTORE DUP1 SWAP3 SWAP2 SWAP1 DUP2 DUP2 MSTORE PUSH1 0x20 ADD DUP3 DUP1 SLOAD DUP1 ISZERO PUSH2 0x9EC JUMPI PUSH1 0x20 MUL DUP3 ADD SWAP2 SWAP1 PUSH1 0x0 MSTORE PUSH1 0x20 PUSH1 0x0 KECCAK256 SWAP1 JUMPDEST DUP2 PUSH1 0x0 SWAP1 SLOAD SWAP1 PUSH2 0x100 EXP SWAP1 DIV PUSH20 0xFFFFFFFFFFFFFFFFFFFFFFFFFFFFFFFFFFFFFFFF AND PUSH20 0xFFFFFFFFFFFFFFFFFFFFFFFFFFFFFFFFFFFFFFFF AND DUP2 MSTORE PUSH1 0x20 ADD SWAP1 PUSH1 0x1 ADD SWAP1 DUP1 DUP4 GT PUSH2 0x9A2 JUMPI JUMPDEST POP POP POP POP POP SWAP1 POP SWAP1 JUMP JUMPDEST PUSH1 0x0 DUP1 SLOAD SWAP1 PUSH2 0x100 EXP SWAP1 DIV PUSH20 0xFFFFFFFFFFFFFFFFFFFFFFFFFFFFFFFFFFFFFFFF AND DUP2 JUMP JUMPDEST PUSH2 0xA22 PUSH2 0xB35 JUMP JUMPDEST PUSH1 0x6 PUSH1 0x0 DUP4 DUP2 MSTORE PUSH1 0x20 ADD SWAP1 DUP2 MSTORE PUSH1 0x20 ADD PUSH1 0x0 KECCAK256 PUSH1 0x40 MLOAD DUP1 PUSH1 0x60 ADD PUSH1 0x40 MSTORE SWAP1 DUP2 PUSH1 0x0 DUP3 ADD PUSH1 0x0 SWAP1 SLOAD SWAP1 PUSH2 0x100 EXP SWAP1 DIV PUSH20 0xFFFFFFFFFFFFFFFFFFFFFFFFFFFFFFFFFFFFFFFF AND PUSH20 0xFFFFFFFFFFFFFFFFFFFFFFFFFFFFFFFFFFFFFFFF AND PUSH20 0xFFFFFFFFFFFFFFFFFFFFFFFFFFFFFFFFFFFFFFFF AND DUP2 MSTORE PUSH1 0x20 ADD PUSH1 0x1 DUP3 ADD SLOAD DUP2 MSTORE PUSH1 0x20 ADD PUSH1 0x2 DUP3 ADD DUP1 SLOAD DUP1 PUSH1 0x20 MUL PUSH1 0x20 ADD PUSH1 0x40 MLOAD SWAP1 DUP2 ADD PUSH1 0x40 MSTORE DUP1 SWAP3 SWAP2 SWAP1 DUP2 DUP2 MSTORE PUSH1 0x20 ADD DUP3 DUP1 SLOAD DUP1 ISZERO PUSH2 0xB25 JUMPI PUSH1 0x20 MUL DUP3 ADD SWAP2 SWAP1 PUSH1 0x0 MSTORE PUSH1 0x20 PUSH1 0x0 KECCAK256 SWAP1 JUMPDEST DUP2 PUSH1 0x0 SWAP1 SLOAD SWAP1 PUSH2 0x100 EXP SWAP1 DIV PUSH20 0xFFFFFFFFFFFFFFFFFFFFFFFFFFFFFFFFFFFFFFFF AND PUSH20 0xFFFFFFFFFFFFFFFFFFFFFFFFFFFFFFFFFFFFFFFF AND DUP2 MSTORE PUSH1 0x20 ADD SWAP1 PUSH1 0x1 ADD SWAP1 DUP1 DUP4 GT PUSH2 0xADB JUMPI JUMPDEST POP POP POP POP POP DUP2 MSTORE POP POP SWAP1 POP SWAP2 SWAP1 POP JUMP JUMPDEST PUSH1 0x40 MLOAD DUP1 PUSH1 0x60 ADD PUSH1 0x40 MSTORE DUP1 PUSH1 0x0 PUSH20 0xFFFFFFFFFFFFFFFFFFFFFFFFFFFFFFFFFFFFFFFF AND DUP2 MSTORE PUSH1 0x20 ADD PUSH1 0x0 DUP2 MSTORE PUSH1 0x20 ADD PUSH1 0x60 DUP2 MSTORE POP SWAP1 JUMP JUMPDEST DUP3 DUP1 SLOAD DUP3 DUP3 SSTORE SWAP1 PUSH1 0x0 MSTORE PUSH1 0x20 PUSH1 0x0 KECCAK256 SWAP1 DUP2 ADD SWAP3 DUP3 ISZERO PUSH2 0xBE5 JUMPI SWAP2 PUSH1 0x20 MUL DUP3 ADD JUMPDEST DUP3 DUP2 GT ISZERO PUSH2 0xBE4 JUMPI DUP3 MLOAD DUP3 PUSH1 0x0 PUSH2 0x100 EXP DUP2 SLOAD DUP2 PUSH20 0xFFFFFFFFFFFFFFFFFFFFFFFFFFFFFFFFFFFFFFFF MUL NOT AND SWAP1 DUP4 PUSH20 0xFFFFFFFFFFFFFFFFFFFFFFFFFFFFFFFFFFFFFFFF AND MUL OR SWAP1 SSTORE POP SWAP2 PUSH1 0x20 ADD SWAP2 SWAP1 PUSH1 0x1 ADD SWAP1 PUSH2 0xB8C JUMP JUMPDEST JUMPDEST POP SWAP1 POP PUSH2 0xBF2 SWAP2 SWAP1 PUSH2 0xBF6 JUMP JUMPDEST POP SWAP1 JUMP JUMPDEST JUMPDEST DUP1 DUP3 GT ISZERO PUSH2 0xC0F JUMPI PUSH1 0x0 DUP2 PUSH1 0x0 SWAP1 SSTORE POP PUSH1 0x1 ADD PUSH2 0xBF7 JUMP JUMPDEST POP SWAP1 JUMP JUMPDEST PUSH1 0x0 DUP2 SWAP1 POP SWAP2 SWAP1 POP JUMP JUMPDEST PUSH2 0xC26 DUP2 PUSH2 0xC13 JUMP JUMPDEST DUP3 MSTORE POP POP JUMP JUMPDEST PUSH1 0x0 PUSH1 0x20 DUP3 ADD SWAP1 POP PUSH2 0xC41 PUSH1 0x0 DUP4 ADD DUP5 PUSH2 0xC1D JUMP JUMPDEST SWAP3 SWAP2 POP POP JUMP JUMPDEST PUSH1 0x0 DUP2 MLOAD SWAP1 POP SWAP2 SWAP1 POP JUMP JUMPDEST PUSH1 0x0 DUP3 DUP3 MSTORE PUSH1 0x20 DUP3 ADD SWAP1 POP SWAP3 SWAP2 POP POP JUMP JUMPDEST PUSH1 0x0 DUP2 SWAP1 POP PUSH1 0x20 DUP3 ADD SWAP1 POP SWAP2 SWAP1 POP JUMP JUMPDEST PUSH1 0x0 PUSH20 0xFFFFFFFFFFFFFFFFFFFFFFFFFFFFFFFFFFFFFFFF DUP3 AND SWAP1 POP SWAP2 SWAP1 POP JUMP JUMPDEST PUSH1 0x0 PUSH2 0xC9E DUP3 PUSH2 0xC73 JUMP JUMPDEST SWAP1 POP SWAP2 SWAP1 POP JUMP JUMPDEST PUSH2 0xCAE DUP2 PUSH2 0xC93 JUMP JUMPDEST DUP3 MSTORE POP POP JUMP JUMPDEST PUSH2 0xCBD DUP2 PUSH2 0xC13 JUMP JUMPDEST DUP3 MSTORE POP POP JUMP JUMPDEST PUSH1 0x0 DUP2 MLOAD SWAP1 POP SWAP2 SWAP1 POP JUMP JUMPDEST PUSH1 0x0 DUP3 DUP3 MSTORE PUSH1 0x20 DUP3 ADD SWAP1 POP SWAP3 SWAP2 POP POP JUMP JUMPDEST PUSH1 0x0 DUP2 SWAP1 POP PUSH1 0x20 DUP3 ADD SWAP1 POP SWAP2 SWAP1 POP JUMP JUMPDEST PUSH1 0x0 PUSH2 0xCFB DUP4 DUP4 PUSH2 0xCA5 JUMP JUMPDEST PUSH1 0x20 DUP4 ADD SWAP1 POP SWAP3 SWAP2 POP POP JUMP JUMPDEST PUSH1 0x0 PUSH1 0x20 DUP3 ADD SWAP1 POP SWAP2 SWAP1 POP JUMP JUMPDEST PUSH1 0x0 PUSH2 0xD1F DUP3 PUSH2 0xCC3 JUMP JUMPDEST PUSH2 0xD29 DUP2 DUP6 PUSH2 0xCCE JUMP JUMPDEST SWAP4 POP PUSH2 0xD34 DUP4 PUSH2 0xCDF JUMP JUMPDEST DUP1 PUSH1 0x0 JUMPDEST DUP4 DUP2 LT ISZERO PUSH2 0xD65 JUMPI DUP2 MLOAD PUSH2 0xD4C DUP9 DUP3 PUSH2 0xCEF JUMP JUMPDEST SWAP8 POP PUSH2 0xD57 DUP4 PUSH2 0xD07 JUMP JUMPDEST SWAP3 POP POP PUSH1 0x1 DUP2 ADD SWAP1 POP PUSH2 0xD38 JUMP JUMPDEST POP DUP6 SWAP4 POP POP POP POP SWAP3 SWAP2 POP POP JUMP JUMPDEST PUSH1 0x0 PUSH1 0x60 DUP4 ADD PUSH1 0x0 DUP4 ADD MLOAD PUSH2 0xD8A PUSH1 0x0 DUP7 ADD DUP3 PUSH2 0xCA5 JUMP JUMPDEST POP PUSH1 0x20 DUP4 ADD MLOAD PUSH2 0xD9D PUSH1 0x20 DUP7 ADD DUP3 PUSH2 0xCB4 JUMP JUMPDEST POP PUSH1 0x40 DUP4 ADD MLOAD DUP5 DUP3 SUB PUSH1 0x40 DUP7 ADD MSTORE PUSH2 0xDB5 DUP3 DUP3 PUSH2 0xD14 JUMP JUMPDEST SWAP2 POP POP DUP1 SWAP2 POP POP SWAP3 SWAP2 POP POP JUMP JUMPDEST PUSH1 0x0 PUSH2 0xDCE DUP4 DUP4 PUSH2 0xD72 JUMP JUMPDEST SWAP1 POP SWAP3 SWAP2 POP POP JUMP JUMPDEST PUSH1 0x0 PUSH1 0x20 DUP3 ADD SWAP1 POP SWAP2 SWAP1 POP JUMP JUMPDEST PUSH1 0x0 PUSH2 0xDEE DUP3 PUSH2 0xC47 JUMP JUMPDEST PUSH2 0xDF8 DUP2 DUP6 PUSH2 0xC52 JUMP JUMPDEST SWAP4 POP DUP4 PUSH1 0x20 DUP3 MUL DUP6 ADD PUSH2 0xE0A DUP6 PUSH2 0xC63 JUMP JUMPDEST DUP1 PUSH1 0x0 JUMPDEST DUP6 DUP2 LT ISZERO PUSH2 0xE46 JUMPI DUP5 DUP5 SUB DUP10 MSTORE DUP2 MLOAD PUSH2 0xE27 DUP6 DUP3 PUSH2 0xDC2 JUMP JUMPDEST SWAP5 POP PUSH2 0xE32 DUP4 PUSH2 0xDD6 JUMP JUMPDEST SWAP3 POP PUSH1 0x20 DUP11 ADD SWAP10 POP POP PUSH1 0x1 DUP2 ADD SWAP1 POP PUSH2 0xE0E JUMP JUMPDEST POP DUP3 SWAP8 POP DUP8 SWAP6 POP POP POP POP POP POP SWAP3 SWAP2 POP POP JUMP JUMPDEST PUSH1 0x0 PUSH1 0x20 DUP3 ADD SWAP1 POP DUP2 DUP2 SUB PUSH1 0x0 DUP4 ADD MSTORE PUSH2 0xE72 DUP2 DUP5 PUSH2 0xDE3 JUMP JUMPDEST SWAP1 POP SWAP3 SWAP2 POP POP JUMP JUMPDEST PUSH1 0x0 DUP3 DUP3 MSTORE PUSH1 0x20 DUP3 ADD SWAP1 POP SWAP3 SWAP2 POP POP JUMP JUMPDEST PUSH1 0x0 PUSH2 0xE96 DUP3 PUSH2 0xCC3 JUMP JUMPDEST PUSH2 0xEA0 DUP2 DUP6 PUSH2 0xE7A JUMP JUMPDEST SWAP4 POP PUSH2 0xEAB DUP4 PUSH2 0xCDF JUMP JUMPDEST DUP1 PUSH1 0x0 JUMPDEST DUP4 DUP2 LT ISZERO PUSH2 0xEDC JUMPI DUP2 MLOAD PUSH2 0xEC3 DUP9 DUP3 PUSH2 0xCEF JUMP JUMPDEST SWAP8 POP PUSH2 0xECE DUP4 PUSH2 0xD07 JUMP JUMPDEST SWAP3 POP POP PUSH1 0x1 DUP2 ADD SWAP1 POP PUSH2 0xEAF JUMP JUMPDEST POP DUP6 SWAP4 POP POP POP POP SWAP3 SWAP2 POP POP JUMP JUMPDEST PUSH1 0x0 PUSH1 0x20 DUP3 ADD SWAP1 POP DUP2 DUP2 SUB PUSH1 0x0 DUP4 ADD MSTORE PUSH2 0xF03 DUP2 DUP5 PUSH2 0xE8B JUMP JUMPDEST SWAP1 POP SWAP3 SWAP2 POP POP JUMP JUMPDEST PUSH1 0x0 PUSH2 0xF16 DUP3 PUSH2 0xC73 JUMP JUMPDEST SWAP1 POP SWAP2 SWAP1 POP JUMP JUMPDEST PUSH2 0xF26 DUP2 PUSH2 0xF0B JUMP JUMPDEST DUP3 MSTORE POP POP JUMP JUMPDEST PUSH1 0x0 PUSH1 0x20 DUP3 ADD SWAP1 POP PUSH2 0xF41 PUSH1 0x0 DUP4 ADD DUP5 PUSH2 0xF1D JUMP JUMPDEST SWAP3 SWAP2 POP POP JUMP JUMPDEST PUSH1 0x0 DUP1 REVERT JUMPDEST PUSH2 0xF55 DUP2 PUSH2 0xC13 JUMP JUMPDEST DUP2 EQ PUSH2 0xF60 JUMPI PUSH1 0x0 DUP1 REVERT JUMPDEST POP JUMP JUMPDEST PUSH1 0x0 DUP2 CALLDATALOAD SWAP1 POP PUSH2 0xF72 DUP2 PUSH2 0xF4C JUMP JUMPDEST SWAP3 SWAP2 POP POP JUMP JUMPDEST PUSH1 0x0 PUSH1 0x20 DUP3 DUP5 SUB SLT ISZERO PUSH2 0xF8E JUMPI PUSH2 0xF8D PUSH2 0xF47 JUMP JUMPDEST JUMPDEST PUSH1 0x0 PUSH2 0xF9C DUP5 DUP3 DUP6 ADD PUSH2 0xF63 JUMP JUMPDEST SWAP2 POP POP SWAP3 SWAP2 POP POP JUMP JUMPDEST PUSH1 0x0 PUSH1 0x60 DUP4 ADD PUSH1 0x0 DUP4 ADD MLOAD PUSH2 0xFBD PUSH1 0x0 DUP7 ADD DUP3 PUSH2 0xCA5 JUMP JUMPDEST POP PUSH1 0x20 DUP4 ADD MLOAD PUSH2 0xFD0 PUSH1 0x20 DUP7 ADD DUP3 PUSH2 0xCB4 JUMP JUMPDEST POP PUSH1 0x40 DUP4 ADD MLOAD DUP5 DUP3 SUB PUSH1 0x40 DUP7 ADD MSTORE PUSH2 0xFE8 DUP3 DUP3 PUSH2 0xD14 JUMP JUMPDEST SWAP2 POP POP DUP1 SWAP2 POP POP SWAP3 SWAP2 POP POP JUMP JUMPDEST PUSH1 0x0 PUSH1 0x20 DUP3 ADD SWAP1 POP DUP2 DUP2 SUB PUSH1 0x0 DUP4 ADD MSTORE PUSH2 0x100F DUP2 DUP5 PUSH2 0xFA5 JUMP JUMPDEST SWAP1 POP SWAP3 SWAP2 POP POP JUMP JUMPDEST PUSH1 0x0 DUP3 DUP3 MSTORE PUSH1 0x20 DUP3 ADD SWAP1 POP SWAP3 SWAP2 POP POP JUMP JUMPDEST PUSH32 0x416D6F756E7420746F6F206C6F7720746F207075726368617365207469636B65 PUSH1 0x0 DUP3 ADD MSTORE PUSH32 0x7400000000000000000000000000000000000000000000000000000000000000 PUSH1 0x20 DUP3 ADD MSTORE POP JUMP JUMPDEST PUSH1 0x0 PUSH2 0x1084 PUSH1 0x21 DUP4 PUSH2 0x1017 JUMP JUMPDEST SWAP2 POP PUSH2 0x108F DUP3 PUSH2 0x1028 JUMP JUMPDEST PUSH1 0x40 DUP3 ADD SWAP1 POP SWAP2 SWAP1 POP JUMP JUMPDEST PUSH1 0x0 PUSH1 0x20 DUP3 ADD SWAP1 POP DUP2 DUP2 SUB PUSH1 0x0 DUP4 ADD MSTORE PUSH2 0x10B3 DUP2 PUSH2 0x1077 JUMP JUMPDEST SWAP1 POP SWAP2 SWAP1 POP JUMP JUMPDEST PUSH32 0x5469636B6574732061726520736F6C64206F7574000000000000000000000000 PUSH1 0x0 DUP3 ADD MSTORE POP JUMP JUMPDEST PUSH1 0x0 PUSH2 0x10F0 PUSH1 0x14 DUP4 PUSH2 0x1017 JUMP JUMPDEST SWAP2 POP PUSH2 0x10FB DUP3 PUSH2 0x10BA JUMP JUMPDEST PUSH1 0x20 DUP3 ADD SWAP1 POP SWAP2 SWAP1 POP JUMP JUMPDEST PUSH1 0x0 PUSH1 0x20 DUP3 ADD SWAP1 POP DUP2 DUP2 SUB PUSH1 0x0 DUP4 ADD MSTORE PUSH2 0x111F DUP2 PUSH2 0x10E3 JUMP JUMPDEST SWAP1 POP SWAP2 SWAP1 POP JUMP JUMPDEST PUSH1 0x0 PUSH1 0x40 DUP3 ADD SWAP1 POP PUSH2 0x113B PUSH1 0x0 DUP4 ADD DUP6 PUSH2 0xC1D JUMP JUMPDEST PUSH2 0x1148 PUSH1 0x20 DUP4 ADD DUP5 PUSH2 0xC1D JUMP JUMPDEST SWAP4 SWAP3 POP POP POP JUMP JUMPDEST PUSH32 0x4E487B7100000000000000000000000000000000000000000000000000000000 PUSH1 0x0 MSTORE PUSH1 0x11 PUSH1 0x4 MSTORE PUSH1 0x24 PUSH1 0x0 REVERT JUMPDEST PUSH1 0x0 PUSH2 0x1189 DUP3 PUSH2 0xC13 JUMP JUMPDEST SWAP2 POP PUSH2 0x1194 DUP4 PUSH2 0xC13 JUMP JUMPDEST SWAP3 POP DUP3 DUP3 ADD SWAP1 POP DUP1 DUP3 GT ISZERO PUSH2 0x11AC JUMPI PUSH2 0x11AB PUSH2 0x114F JUMP JUMPDEST JUMPDEST SWAP3 SWAP2 POP POP JUMP JUMPDEST PUSH1 0x0 PUSH2 0x11BD DUP3 PUSH2 0xC13 JUMP JUMPDEST SWAP2 POP PUSH1 0x0 DUP3 SUB PUSH2 0x11D0 JUMPI PUSH2 0x11CF PUSH2 0x114F JUMP JUMPDEST JUMPDEST PUSH1 0x1 DUP3 SUB SWAP1 POP SWAP2 SWAP1 POP JUMP JUMPDEST PUSH1 0x0 PUSH2 0x11E6 DUP3 PUSH2 0xC13 JUMP JUMPDEST SWAP2 POP PUSH2 0x11F1 DUP4 PUSH2 0xC13 JUMP JUMPDEST SWAP3 POP DUP3 DUP3 SUB SWAP1 POP DUP2 DUP2 GT ISZERO PUSH2 0x1209 JUMPI PUSH2 0x1208 PUSH2 0x114F JUMP JUMPDEST JUMPDEST SWAP3 SWAP2 POP POP JUMP JUMPDEST PUSH32 0x4E487B7100000000000000000000000000000000000000000000000000000000 PUSH1 0x0 MSTORE PUSH1 0x41 PUSH1 0x4 MSTORE PUSH1 0x24 PUSH1 0x0 REVERT JUMPDEST PUSH32 0x4E487B7100000000000000000000000000000000000000000000000000000000 PUSH1 0x0 MSTORE PUSH1 0x32 PUSH1 0x4 MSTORE PUSH1 0x24 PUSH1 0x0 REVERT JUMPDEST PUSH1 0x0 PUSH2 0x1278 DUP3 PUSH2 0xC13 JUMP JUMPDEST SWAP2 POP PUSH32 0xFFFFFFFFFFFFFFFFFFFFFFFFFFFFFFFFFFFFFFFFFFFFFFFFFFFFFFFFFFFFFFFF DUP3 SUB PUSH2 0x12AA JUMPI PUSH2 0x12A9 PUSH2 0x114F JUMP JUMPDEST JUMPDEST PUSH1 0x1 DUP3 ADD SWAP1 POP SWAP2 SWAP1 POP JUMP JUMPDEST PUSH32 0x4C6F747465727920656E642074696D65206861736E2774207265616368656400 PUSH1 0x0 DUP3 ADD MSTORE POP JUMP JUMPDEST PUSH1 0x0 PUSH2 0x12EB PUSH1 0x1F DUP4 PUSH2 0x1017 JUMP JUMPDEST SWAP2 POP PUSH2 0x12F6 DUP3 PUSH2 0x12B5 JUMP JUMPDEST PUSH1 0x20 DUP3 ADD SWAP1 POP SWAP2 SWAP1 POP JUMP JUMPDEST PUSH1 0x0 PUSH1 0x20 DUP3 ADD SWAP1 POP DUP2 DUP2 SUB PUSH1 0x0 DUP4 ADD MSTORE PUSH2 0x131A DUP2 PUSH2 0x12DE JUMP JUMPDEST SWAP1 POP SWAP2 SWAP1 POP JUMP JUMPDEST PUSH2 0x132A DUP2 PUSH2 0xF0B JUMP JUMPDEST DUP3 MSTORE POP POP JUMP JUMPDEST PUSH1 0x0 PUSH1 0x20 DUP3 ADD SWAP1 POP PUSH2 0x1345 PUSH1 0x0 DUP4 ADD DUP5 PUSH2 0x1321 JUMP JUMPDEST SWAP3 SWAP2 POP POP JUMP JUMPDEST PUSH1 0x0 DUP2 MLOAD SWAP1 POP PUSH2 0x135A DUP2 PUSH2 0xF4C JUMP JUMPDEST SWAP3 SWAP2 POP POP JUMP JUMPDEST PUSH1 0x0 PUSH1 0x20 DUP3 DUP5 SUB SLT ISZERO PUSH2 0x1376 JUMPI PUSH2 0x1375 PUSH2 0xF47 JUMP JUMPDEST JUMPDEST PUSH1 0x0 PUSH2 0x1384 DUP5 DUP3 DUP6 ADD PUSH2 0x134B JUMP JUMPDEST SWAP2 POP POP SWAP3 SWAP2 POP POP JUMP JUMPDEST PUSH32 0x4E487B7100000000000000000000000000000000000000000000000000000000 PUSH1 0x0 MSTORE PUSH1 0x12 PUSH1 0x4 MSTORE PUSH1 0x24 PUSH1 0x0 REVERT JUMPDEST PUSH1 0x0 PUSH2 0x13C7 DUP3 PUSH2 0xC13 JUMP JUMPDEST SWAP2 POP PUSH2 0x13D2 DUP4 PUSH2 0xC13 JUMP JUMPDEST SWAP3 POP DUP3 PUSH2 0x13E2 JUMPI PUSH2 0x13E1 PUSH2 0x138D JUMP JUMPDEST JUMPDEST DUP3 DUP3 MOD SWAP1 POP SWAP3 SWAP2 POP POP JUMP INVALID LOG2 PUSH5 0x6970667358 0x22 SLT KECCAK256 SWAP3 PUSH14 0x77F18C7A9271C66EDD8A7AC0B69A 0xAE 0xD8 0xCA INVALID LOG4 0xB8 DIV SUB 0xE0 PUSH28 0xAAF21084C03A64736F6C634300081200330000000000000000000000 "
				},
				"gasEstimates": {
					"creation": {
						"codeDepositCost": "1031000",
						"executionCost": "infinite",
						"totalCost": "infinite"
					},
					"external": {
						"endTime()": "2496",
						"getBalance()": "340",
						"getLotteryHistory()": "infinite",
						"getPlayers()": "infinite",
						"getWinnerByLotteryId(uint256)": "infinite",
						"owner()": "2555",
						"pickWinner()": "infinite",
						"register()": "infinite"
					}
				},
				"methodIdentifiers": {
					"endTime()": "3197cbb6",
					"getBalance()": "12065fe0",
					"getLotteryHistory()": "3149c427",
					"getPlayers()": "8b5b9ccc",
					"getWinnerByLotteryId(uint256)": "992f7db3",
					"owner()": "8da5cb5b",
					"pickWinner()": "5d495aea",
					"register()": "1aa3a008"
				}
			},
			"storageLayout": {
				"storage": [
					{
						"astId": 33,
						"contract": "contracts/Lottery.sol:Lottery",
						"label": "owner",
						"offset": 0,
						"slot": "0",
						"type": "t_address"
					},
					{
						"astId": 36,
						"contract": "contracts/Lottery.sol:Lottery",
						"label": "players",
						"offset": 0,
						"slot": "1",
						"type": "t_array(t_address_payable)dyn_storage"
					},
					{
						"astId": 46,
						"contract": "contracts/Lottery.sol:Lottery",
						"label": "lotteryId",
						"offset": 0,
						"slot": "2",
						"type": "t_uint256"
					},
					{
						"astId": 48,
						"contract": "contracts/Lottery.sol:Lottery",
						"label": "totalTickets",
						"offset": 0,
						"slot": "3",
						"type": "t_uint256"
					},
					{
						"astId": 50,
						"contract": "contracts/Lottery.sol:Lottery",
						"label": "ticketAmount",
						"offset": 0,
						"slot": "4",
						"type": "t_uint256"
					},
					{
						"astId": 52,
						"contract": "contracts/Lottery.sol:Lottery",
						"label": "endTime",
						"offset": 0,
						"slot": "5",
						"type": "t_uint256"
					},
					{
						"astId": 57,
						"contract": "contracts/Lottery.sol:Lottery",
						"label": "history",
						"offset": 0,
						"slot": "6",
						"type": "t_mapping(t_uint256,t_struct(LotteryRecord)106_storage)"
					}
				],
				"types": {
					"t_address": {
						"encoding": "inplace",
						"label": "address",
						"numberOfBytes": "20"
					},
					"t_address_payable": {
						"encoding": "inplace",
						"label": "address payable",
						"numberOfBytes": "20"
					},
					"t_array(t_address_payable)dyn_storage": {
						"base": "t_address_payable",
						"encoding": "dynamic_array",
						"label": "address payable[]",
						"numberOfBytes": "32"
					},
					"t_mapping(t_uint256,t_struct(LotteryRecord)106_storage)": {
						"encoding": "mapping",
						"key": "t_uint256",
						"label": "mapping(uint256 => struct Lottery.LotteryRecord)",
						"numberOfBytes": "32",
						"value": "t_struct(LotteryRecord)106_storage"
					},
					"t_struct(LotteryRecord)106_storage": {
						"encoding": "inplace",
						"label": "struct Lottery.LotteryRecord",
						"members": [
							{
								"astId": 100,
								"contract": "contracts/Lottery.sol:Lottery",
								"label": "winner",
								"offset": 0,
								"slot": "0",
								"type": "t_address_payable"
							},
							{
								"astId": 102,
								"contract": "contracts/Lottery.sol:Lottery",
								"label": "amountWon",
								"offset": 0,
								"slot": "1",
								"type": "t_uint256"
							},
							{
								"astId": 105,
								"contract": "contracts/Lottery.sol:Lottery",
								"label": "players",
								"offset": 0,
								"slot": "2",
								"type": "t_array(t_address_payable)dyn_storage"
							}
						],
						"numberOfBytes": "96"
					},
					"t_uint256": {
						"encoding": "inplace",
						"label": "uint256",
						"numberOfBytes": "32"
					}
				}
			},
			"userdoc": {
				"kind": "user",
				"methods": {},
				"version": 1
			}
		}
	}
}