{
  "contractName": "Helper",
  "abi": [
    {
      "inputs": [
        {
          "internalType": "address",
          "name": "owner",
          "type": "address"
        }
      ],
      "name": "generateRandomNumber",
      "outputs": [
        {
          "internalType": "uint256",
          "name": "",
          "type": "uint256"
        }
      ],
      "stateMutability": "view",
      "type": "function",
      "constant": true
    }
  ],
  "bytecode": "0x61022e610053600b82828239805160001a607314610046577f4e487b7100000000000000000000000000000000000000000000000000000000600052600060045260246000fd5b30600052607381538281f3fe73000000000000000000000000000000000000000030146080604052600436106100355760003560e01c8063e87374361461003a575b600080fd5b610054600480360381019061004f9190610102565b61006a565b6040516100619190610148565b60405180910390f35b6000814260405160200161007f9291906101cc565b6040516020818303038152906040528051906020012060001c9050919050565b600080fd5b600073ffffffffffffffffffffffffffffffffffffffff82169050919050565b60006100cf826100a4565b9050919050565b6100df816100c4565b81146100ea57600080fd5b50565b6000813590506100fc816100d6565b92915050565b6000602082840312156101185761011761009f565b5b6000610126848285016100ed565b91505092915050565b6000819050919050565b6101428161012f565b82525050565b600060208201905061015d6000830184610139565b92915050565b60008160601b9050919050565b600061017b82610163565b9050919050565b600061018d82610170565b9050919050565b6101a56101a0826100c4565b610182565b82525050565b6000819050919050565b6101c66101c18261012f565b6101ab565b82525050565b60006101d88285610194565b6014820191506101e882846101b5565b602082019150819050939250505056fea2646970667358221220b1cdbd3c7b8210bf079d76335de145fde13fa4dd4c95e37339bd8e60d3b23eab64736f6c634300080d0033",
  "immutableReferences": {},
  "source": "//SPDX-License-Identifier: MIT\n\npragma solidity ^0.8.11;\n\nlibrary Helper {\n  function generateRandomNumber(address owner) public view returns (uint){\n    return uint(keccak256(abi.encodePacked(owner, block.timestamp)));\n  }\n}",
  "sourcePath": "/Users/claver/Projects/playground/blockchain/lottery/contracts/Helper.sol",
  "compiler": {
    "name": "solc",
    "version": "0.8.13+commit.abaa5c0e.Emscripten.clang"
  },
  "schemaVersion": "3.4.13",
  "updatedAt": "2023-04-02T08:00:03.817Z",
  "networkType": "ethereum",
  "devdoc": {
    "kind": "dev",
    "methods": {},
    "version": 1
  },
  "userdoc": {
    "kind": "user",
    "methods": {},
    "version": 1
  }
}