{
  "contractName": "Lottery",
  "abi": [
    {
      "inputs": [],
      "stateMutability": "nonpayable",
      "type": "constructor"
    },
    {
      "inputs": [],
      "name": "owner",
      "outputs": [
        {
          "internalType": "address",
          "name": "",
          "type": "address"
        }
      ],
      "stateMutability": "view",
      "type": "function",
      "constant": true
    },
    {
      "inputs": [
        {
          "internalType": "uint256",
          "name": "",
          "type": "uint256"
        }
      ],
      "name": "players",
      "outputs": [
        {
          "internalType": "address payable",
          "name": "",
          "type": "address"
        }
      ],
      "stateMutability": "view",
      "type": "function",
      "constant": true
    },
    {
      "inputs": [],
      "name": "getBalance",
      "outputs": [
        {
          "internalType": "uint256",
          "name": "",
          "type": "uint256"
        }
      ],
      "stateMutability": "view",
      "type": "function",
      "constant": true
    },
    {
      "inputs": [],
      "name": "getPlayers",
      "outputs": [
        {
          "internalType": "address payable[]",
          "name": "",
          "type": "address[]"
        }
      ],
      "stateMutability": "view",
      "type": "function",
      "constant": true
    },
    {
      "inputs": [
        {
          "internalType": "uint256",
          "name": "_lotteryId",
          "type": "uint256"
        }
      ],
      "name": "getWinnerByLotteryId",
      "outputs": [
        {
          "components": [
            {
              "internalType": "address payable",
              "name": "winner",
              "type": "address"
            },
            {
              "internalType": "uint256",
              "name": "amountWon",
              "type": "uint256"
            },
            {
              "internalType": "address payable[]",
              "name": "players",
              "type": "address[]"
            }
          ],
          "internalType": "struct Lottery.LotteryRecord",
          "name": "",
          "type": "tuple"
        }
      ],
      "stateMutability": "view",
      "type": "function",
      "constant": true
    },
    {
      "inputs": [],
      "name": "getLotteryHistory",
      "outputs": [
        {
          "components": [
            {
              "internalType": "address payable",
              "name": "winner",
              "type": "address"
            },
            {
              "internalType": "uint256",
              "name": "amountWon",
              "type": "uint256"
            },
            {
              "internalType": "address payable[]",
              "name": "players",
              "type": "address[]"
            }
          ],
          "internalType": "struct Lottery.LotteryRecord[]",
          "name": "",
          "type": "tuple[]"
        }
      ],
      "stateMutability": "view",
      "type": "function",
      "constant": true
    },
    {
      "inputs": [],
      "name": "register",
      "outputs": [],
      "stateMutability": "payable",
      "type": "function",
      "payable": true
    },
    {
      "inputs": [],
      "name": "pickWinner",
      "outputs": [],
      "stateMutability": "nonpayable",
      "type": "function"
    }
  ],
  "bytecode": "0x608060405234801561001057600080fd5b50336000806101000a81548173ffffffffffffffffffffffffffffffffffffffff021916908373ffffffffffffffffffffffffffffffffffffffff16021790555060016002819055506110da806100686000396000f3fe60806040526004361061007b5760003560e01c80638b5b9ccc1161004e5780638b5b9ccc146100f75780638da5cb5b14610122578063992f7db31461014d578063f71d96cb1461018a5761007b565b806312065fe0146100805780631aa3a008146100ab5780633149c427146100b55780635d495aea146100e0575b600080fd5b34801561008c57600080fd5b506100956101c7565b6040516100a29190610aee565b60405180910390f35b6100b36101cf565b005b3480156100c157600080fd5b506100ca610247565b6040516100d79190610d1a565b60405180910390f35b3480156100ec57600080fd5b506100f56103fc565b005b34801561010357600080fd5b5061010c6107eb565b6040516101199190610dab565b60405180910390f35b34801561012e57600080fd5b50610137610879565b6040516101449190610dee565b60405180910390f35b34801561015957600080fd5b50610174600480360381019061016f9190610e3a565b61089d565b6040516101819190610eb7565b60405180910390f35b34801561019657600080fd5b506101b160048036038101906101ac9190610e3a565b6109b8565b6040516101be9190610ee8565b60405180910390f35b600047905090565b662386f26fc1000034116101e257600080fd5b6001339080600181540180825580915050600190039060005260206000200160009091909190916101000a81548173ffffffffffffffffffffffffffffffffffffffff021916908373ffffffffffffffffffffffffffffffffffffffff160217905550565b606060008067ffffffffffffffff81111561026557610264610f03565b5b60405190808252806020026020018201604052801561029e57816020015b61028b6109f7565b8152602001906001900390816102835790505b5090506000600190505b60025481116103f4576000600360008381526020019081526020016000206040518060600160405290816000820160009054906101000a900473ffffffffffffffffffffffffffffffffffffffff1673ffffffffffffffffffffffffffffffffffffffff1673ffffffffffffffffffffffffffffffffffffffff16815260200160018201548152602001600282018054806020026020016040519081016040528092919081815260200182805480156103b657602002820191906000526020600020905b8160009054906101000a900473ffffffffffffffffffffffffffffffffffffffff1673ffffffffffffffffffffffffffffffffffffffff168152602001906001019080831161036c575b5050505050815250509050808383815181106103d5576103d4610f32565b5b60200260200101819052505080806103ec90610f90565b9150506102a8565b508091505090565b60008054906101000a900473ffffffffffffffffffffffffffffffffffffffff1673ffffffffffffffffffffffffffffffffffffffff163373ffffffffffffffffffffffffffffffffffffffff161461045457600080fd5b600060018054905073__Helper________________________________63e873743660008054906101000a900473ffffffffffffffffffffffffffffffffffffffff166040518263ffffffff1660e01b81526004016104b39190610fe7565b602060405180830381865af41580156104d0573d6000803e3d6000fd5b505050506040513d601f19601f820116820180604052508101906104f49190611017565b6104fe9190611073565b905060003073ffffffffffffffffffffffffffffffffffffffff166312065fe06040518163ffffffff1660e01b8152600401602060405180830381865afa15801561054d573d6000803e3d6000fd5b505050506040513d601f19601f820116820180604052508101906105719190611017565b90506001828154811061058757610586610f32565b5b9060005260206000200160009054906101000a900473ffffffffffffffffffffffffffffffffffffffff1673ffffffffffffffffffffffffffffffffffffffff166108fc829081150290604051600060405180830381858888f193505050501580156105f7573d6000803e3d6000fd5b5060405180606001604052806001848154811061061757610616610f32565b5b9060005260206000200160009054906101000a900473ffffffffffffffffffffffffffffffffffffffff1673ffffffffffffffffffffffffffffffffffffffff16815260200182815260200160018054806020026020016040519081016040528092919081815260200182805480156106e557602002820191906000526020600020905b8160009054906101000a900473ffffffffffffffffffffffffffffffffffffffff1673ffffffffffffffffffffffffffffffffffffffff168152602001906001019080831161069b575b5050505050815250600360006002600081548092919061070490610f90565b91905055815260200190815260200160002060008201518160000160006101000a81548173ffffffffffffffffffffffffffffffffffffffff021916908373ffffffffffffffffffffffffffffffffffffffff160217905550602082015181600101556040820151816002019080519060200190610783929190610a2e565b50905050600067ffffffffffffffff8111156107a2576107a1610f03565b5b6040519080825280602002602001820160405280156107d05781602001602082028036833780820191505090505b50600190805190602001906107e6929190610a2e565b505050565b6060600180548060200260200160405190810160405280929190818152602001828054801561086f57602002820191906000526020600020905b8160009054906101000a900473ffffffffffffffffffffffffffffffffffffffff1673ffffffffffffffffffffffffffffffffffffffff1681526020019060010190808311610825575b5050505050905090565b60008054906101000a900473ffffffffffffffffffffffffffffffffffffffff1681565b6108a56109f7565b600360008381526020019081526020016000206040518060600160405290816000820160009054906101000a900473ffffffffffffffffffffffffffffffffffffffff1673ffffffffffffffffffffffffffffffffffffffff1673ffffffffffffffffffffffffffffffffffffffff16815260200160018201548152602001600282018054806020026020016040519081016040528092919081815260200182805480156109a857602002820191906000526020600020905b8160009054906101000a900473ffffffffffffffffffffffffffffffffffffffff1673ffffffffffffffffffffffffffffffffffffffff168152602001906001019080831161095e575b5050505050815250509050919050565b600181815481106109c857600080fd5b906000526020600020016000915054906101000a900473ffffffffffffffffffffffffffffffffffffffff1681565b6040518060600160405280600073ffffffffffffffffffffffffffffffffffffffff16815260200160008152602001606081525090565b828054828255906000526020600020908101928215610aa7579160200282015b82811115610aa65782518260006101000a81548173ffffffffffffffffffffffffffffffffffffffff021916908373ffffffffffffffffffffffffffffffffffffffff16021790555091602001919060010190610a4e565b5b509050610ab49190610ab8565b5090565b5b80821115610ad1576000816000905550600101610ab9565b5090565b6000819050919050565b610ae881610ad5565b82525050565b6000602082019050610b036000830184610adf565b92915050565b600081519050919050565b600082825260208201905092915050565b6000819050602082019050919050565b600073ffffffffffffffffffffffffffffffffffffffff82169050919050565b6000610b6082610b35565b9050919050565b610b7081610b55565b82525050565b610b7f81610ad5565b82525050565b600081519050919050565b600082825260208201905092915050565b6000819050602082019050919050565b6000610bbd8383610b67565b60208301905092915050565b6000602082019050919050565b6000610be182610b85565b610beb8185610b90565b9350610bf683610ba1565b8060005b83811015610c27578151610c0e8882610bb1565b9750610c1983610bc9565b925050600181019050610bfa565b5085935050505092915050565b6000606083016000830151610c4c6000860182610b67565b506020830151610c5f6020860182610b76565b5060408301518482036040860152610c778282610bd6565b9150508091505092915050565b6000610c908383610c34565b905092915050565b6000602082019050919050565b6000610cb082610b09565b610cba8185610b14565b935083602082028501610ccc85610b25565b8060005b85811015610d085784840389528151610ce98582610c84565b9450610cf483610c98565b925060208a01995050600181019050610cd0565b50829750879550505050505092915050565b60006020820190508181036000830152610d348184610ca5565b905092915050565b600082825260208201905092915050565b6000610d5882610b85565b610d628185610d3c565b9350610d6d83610ba1565b8060005b83811015610d9e578151610d858882610bb1565b9750610d9083610bc9565b925050600181019050610d71565b5085935050505092915050565b60006020820190508181036000830152610dc58184610d4d565b905092915050565b6000610dd882610b35565b9050919050565b610de881610dcd565b82525050565b6000602082019050610e036000830184610ddf565b92915050565b600080fd5b610e1781610ad5565b8114610e2257600080fd5b50565b600081359050610e3481610e0e565b92915050565b600060208284031215610e5057610e4f610e09565b5b6000610e5e84828501610e25565b91505092915050565b6000606083016000830151610e7f6000860182610b67565b506020830151610e926020860182610b76565b5060408301518482036040860152610eaa8282610bd6565b9150508091505092915050565b60006020820190508181036000830152610ed18184610e67565b905092915050565b610ee281610b55565b82525050565b6000602082019050610efd6000830184610ed9565b92915050565b7f4e487b7100000000000000000000000000000000000000000000000000000000600052604160045260246000fd5b7f4e487b7100000000000000000000000000000000000000000000000000000000600052603260045260246000fd5b7f4e487b7100000000000000000000000000000000000000000000000000000000600052601160045260246000fd5b6000610f9b82610ad5565b91507fffffffffffffffffffffffffffffffffffffffffffffffffffffffffffffffff8203610fcd57610fcc610f61565b5b600182019050919050565b610fe181610dcd565b82525050565b6000602082019050610ffc6000830184610fd8565b92915050565b60008151905061101181610e0e565b92915050565b60006020828403121561102d5761102c610e09565b5b600061103b84828501611002565b91505092915050565b7f4e487b7100000000000000000000000000000000000000000000000000000000600052601260045260246000fd5b600061107e82610ad5565b915061108983610ad5565b92508261109957611098611044565b5b82820690509291505056fea264697066735822122090883772f8922645645f4ca5dd6248faf12783bd3f6e26281fe887abe00cd82a64736f6c634300080d0033",
  "immutableReferences": {},
  "source": "//SPDX-License-Identifier: MIT\n\npragma solidity ^0.8.11;\n\nimport './Helper.sol';\n\ncontract Lottery {\n  address public owner;\n  address payable[] public players;\n  uint lotteryId;\n  mapping(uint => LotteryRecord) history;\n\n  constructor(){\n    owner = msg.sender;\n    lotteryId = 1;\n  }\n\n  struct LotteryRecord {\n    address payable winner;\n    uint amountWon;\n    address payable[] players;\n  }\n\n  modifier isOwner(){\n    require(msg.sender == owner);\n    _;\n  }\n\n  function getBalance() view public returns(uint){\n    return address(this).balance;\n  }\n\n  function getPlayers() view public returns(address payable[] memory){\n    return players;\n  }\n\n  function getWinnerByLotteryId(uint _lotteryId) public view returns (LotteryRecord memory){\n    return history[_lotteryId];\n  }\n\n  function getLotteryHistory() public view returns (LotteryRecord[] memory){\n    LotteryRecord[] memory result = new LotteryRecord[](0);\n    \n    for(uint i = 1; i <= lotteryId; i++){\n      LotteryRecord memory record = history[i];\n      result[i] = record;\n    }\n    return result;  \n  }\n  \n  function register() public payable {\n    require(msg.value > .01 ether);\n    players.push(payable(msg.sender));\n  }\n\n  function pickWinner() public isOwner{\n    uint index = Helper.generateRandomNumber(owner) % players.length;\n    uint balance = this.getBalance();\n    players[index].transfer(balance);\n\n    // start a new lottery and create history record\n    history[lotteryId++] = LotteryRecord(players[index], balance, players);\n    // clean up players\n    players = new address payable[](0);\n    \n  }\n}",
  "sourcePath": "/Users/claver/Projects/playground/blockchain/lottery/contracts/Lottery.sol",
  "compiler": {
    "name": "solc",
    "version": "0.8.13+commit.abaa5c0e.Emscripten.clang"
  },
  "schemaVersion": "3.4.13",
  "updatedAt": "2023-04-02T09:54:11.253Z",
  "networkType": "ethereum",
  "devdoc": {
    "kind": "dev",
    "methods": {},
    "version": 1
  },
  "userdoc": {
    "kind": "user",
    "methods": {},
    "version": 1
  }
}