{
  "contractName": "Lottery",
  "abi": [
    {
      "inputs": [],
      "stateMutability": "nonpayable",
      "type": "constructor"
    },
    {
      "inputs": [],
      "name": "owner",
      "outputs": [
        {
          "internalType": "address",
          "name": "",
          "type": "address"
        }
      ],
      "stateMutability": "view",
      "type": "function",
      "constant": true
    },
    {
      "inputs": [
        {
          "internalType": "uint256",
          "name": "",
          "type": "uint256"
        }
      ],
      "name": "players",
      "outputs": [
        {
          "internalType": "address payable",
          "name": "",
          "type": "address"
        }
      ],
      "stateMutability": "view",
      "type": "function",
      "constant": true
    },
    {
      "inputs": [],
      "name": "getBalance",
      "outputs": [
        {
          "internalType": "uint256",
          "name": "",
          "type": "uint256"
        }
      ],
      "stateMutability": "view",
      "type": "function",
      "constant": true
    },
    {
      "inputs": [],
      "name": "getPlayers",
      "outputs": [
        {
          "internalType": "address payable[]",
          "name": "",
          "type": "address[]"
        }
      ],
      "stateMutability": "view",
      "type": "function",
      "constant": true
    },
    {
      "inputs": [],
      "name": "register",
      "outputs": [],
      "stateMutability": "payable",
      "type": "function",
      "payable": true
    },
    {
      "inputs": [],
      "name": "pickWinner",
      "outputs": [],
      "stateMutability": "nonpayable",
      "type": "function"
    }
  ],
  "bytecode": "0x608060405234801561001057600080fd5b50336000806101000a81548173ffffffffffffffffffffffffffffffffffffffff021916908373ffffffffffffffffffffffffffffffffffffffff160217905550610915806100606000396000f3fe6080604052600436106100555760003560e01c806312065fe01461005a5780631aa3a008146100855780635d495aea1461008f5780638b5b9ccc146100a65780638da5cb5b146100d1578063f71d96cb146100fc575b600080fd5b34801561006657600080fd5b5061006f610139565b60405161007c91906105c4565b60405180910390f35b61008d610141565b005b34801561009b57600080fd5b506100a46101b9565b005b3480156100b257600080fd5b506100bb610413565b6040516100c891906106cf565b60405180910390f35b3480156100dd57600080fd5b506100e66104a1565b6040516100f39190610712565b60405180910390f35b34801561010857600080fd5b50610123600480360381019061011e919061075e565b6104c5565b604051610130919061079a565b60405180910390f35b600047905090565b662386f26fc10000341161015457600080fd5b6001339080600181540180825580915050600190039060005260206000200160009091909190916101000a81548173ffffffffffffffffffffffffffffffffffffffff021916908373ffffffffffffffffffffffffffffffffffffffff160217905550565b60008054906101000a900473ffffffffffffffffffffffffffffffffffffffff1673ffffffffffffffffffffffffffffffffffffffff163373ffffffffffffffffffffffffffffffffffffffff161461021157600080fd5b600060018054905073__Helper________________________________63e873743660008054906101000a900473ffffffffffffffffffffffffffffffffffffffff166040518263ffffffff1660e01b815260040161027091906107c4565b602060405180830381865af415801561028d573d6000803e3d6000fd5b505050506040513d601f19601f820116820180604052508101906102b191906107f4565b6102bb9190610850565b9050600181815481106102d1576102d0610881565b5b9060005260206000200160009054906101000a900473ffffffffffffffffffffffffffffffffffffffff1673ffffffffffffffffffffffffffffffffffffffff166108fc3073ffffffffffffffffffffffffffffffffffffffff166312065fe06040518163ffffffff1660e01b8152600401602060405180830381865afa158015610360573d6000803e3d6000fd5b505050506040513d601f19601f8201168201806040525081019061038491906107f4565b9081150290604051600060405180830381858888f193505050501580156103af573d6000803e3d6000fd5b50600067ffffffffffffffff8111156103cb576103ca6108b0565b5b6040519080825280602002602001820160405280156103f95781602001602082028036833780820191505090505b506001908051906020019061040f929190610504565b5050565b6060600180548060200260200160405190810160405280929190818152602001828054801561049757602002820191906000526020600020905b8160009054906101000a900473ffffffffffffffffffffffffffffffffffffffff1673ffffffffffffffffffffffffffffffffffffffff168152602001906001019080831161044d575b5050505050905090565b60008054906101000a900473ffffffffffffffffffffffffffffffffffffffff1681565b600181815481106104d557600080fd5b906000526020600020016000915054906101000a900473ffffffffffffffffffffffffffffffffffffffff1681565b82805482825590600052602060002090810192821561057d579160200282015b8281111561057c5782518260006101000a81548173ffffffffffffffffffffffffffffffffffffffff021916908373ffffffffffffffffffffffffffffffffffffffff16021790555091602001919060010190610524565b5b50905061058a919061058e565b5090565b5b808211156105a757600081600090555060010161058f565b5090565b6000819050919050565b6105be816105ab565b82525050565b60006020820190506105d960008301846105b5565b92915050565b600081519050919050565b600082825260208201905092915050565b6000819050602082019050919050565b600073ffffffffffffffffffffffffffffffffffffffff82169050919050565b60006106368261060b565b9050919050565b6106468161062b565b82525050565b6000610658838361063d565b60208301905092915050565b6000602082019050919050565b600061067c826105df565b61068681856105ea565b9350610691836105fb565b8060005b838110156106c25781516106a9888261064c565b97506106b483610664565b925050600181019050610695565b5085935050505092915050565b600060208201905081810360008301526106e98184610671565b905092915050565b60006106fc8261060b565b9050919050565b61070c816106f1565b82525050565b60006020820190506107276000830184610703565b92915050565b600080fd5b61073b816105ab565b811461074657600080fd5b50565b60008135905061075881610732565b92915050565b6000602082840312156107745761077361072d565b5b600061078284828501610749565b91505092915050565b6107948161062b565b82525050565b60006020820190506107af600083018461078b565b92915050565b6107be816106f1565b82525050565b60006020820190506107d960008301846107b5565b92915050565b6000815190506107ee81610732565b92915050565b60006020828403121561080a5761080961072d565b5b6000610818848285016107df565b91505092915050565b7f4e487b7100000000000000000000000000000000000000000000000000000000600052601260045260246000fd5b600061085b826105ab565b9150610866836105ab565b92508261087657610875610821565b5b828206905092915050565b7f4e487b7100000000000000000000000000000000000000000000000000000000600052603260045260246000fd5b7f4e487b7100000000000000000000000000000000000000000000000000000000600052604160045260246000fdfea264697066735822122095edd1b590f734eb83d318bc10f0342fb0ee6bd4d4bf354d9ac4d2a08a0a78f364736f6c634300080d0033",
  "immutableReferences": {},
  "source": "//SPDX-License-Identifier: MIT\n\npragma solidity ^0.8.11;\n\nimport './Helper.sol';\n\ncontract Lottery {\n  address public owner;\n  address payable[] public players;\n\n  constructor(){\n    owner = msg.sender;\n  }\n\n  modifier isOwner(){\n    require(msg.sender == owner);\n    _;\n  }\n\n  function getBalance() view public returns(uint){\n    return address(this).balance;\n  }\n\n  function getPlayers() view public returns(address payable[] memory){\n    return players;\n  }\n  \n  function register() public payable {\n    require(msg.value > .01 ether);\n    players.push(payable(msg.sender));\n  }\n\n  function pickWinner() public isOwner{\n    uint index = Helper.generateRandomNumber(owner) % players.length;\n    players[index].transfer(this.getBalance());\n\n    // clean up players\n    players = new address payable[](0);\n  }\n}",
  "sourcePath": "/Users/claver/Projects/playground/blockchain/lottery/contracts/Lottery.sol",
  "compiler": {
    "name": "solc",
    "version": "0.8.13+commit.abaa5c0e.Emscripten.clang"
  },
  "schemaVersion": "3.4.13",
  "updatedAt": "2023-04-02T08:00:03.822Z",
  "networkType": "ethereum",
  "devdoc": {
    "kind": "dev",
    "methods": {},
    "version": 1
  },
  "userdoc": {
    "kind": "user",
    "methods": {},
    "version": 1
  }
}